:100000000C9405060C944C060C944C060C944C066F
:100010000C944C060C944C060C944C060C944C0618
:100020000C944C060C944C060C940D2D0C94DF2D66
:100030000C94F91E0C944C060C944C060C944C0633
:100040000C944C060C944C060C944C060C944C06E8
:100050000C944C060C94521F0C944C060C944C06B9
:100060000C944C060C944C060C944C060C944C06C8
:100070000C944C060C944C060C944C060C944C06B8
:100080000C944C060C944C060C944C060C944C06A8
:100090000C944C060C944C060C944C060C944C0698
:1000A0000C944C060C944C060C944C066E146E1476
:1000B000A014A014ED140B152C162C161615AB1548
:1000C000BC15BC151C162C162C162516CC16CC16D9
:1000D000DE16DE16D516DE16DE16DE16CC16CC16AD
:1000E000DA16DE16DE16DA164C2E732E6B2F732EF2
:1000F0006B2FBF2EE22E6B2F392F482F00002400CC
:10010000250026002A010000210022002300E10032
:1001100000001E001F0020002B00B200115027001D
:10012000370028000000B3007600A9004C00000052
:10013000AF00AC00AE00AB00000001000100AA005F
:100140001908460012507B007C007D000000400032
:10015000410042004C0000003D003E003F004900CD
:1001600000003A003B003C004B00470010504A00A2
:100170004D004E0044454255473A20646973616220
:100180006C65642E0A0044454255473A20656E610D
:10019000626C65642E0A000A0025303862003A203D
:1001A0000025303258000A722F6320303132333448
:1001B0003536370A000A002530325820006B657941
:1001C000626F6172645F7265706F72743A20000AC8
:1001D0000025303258006B6579626F6172645F731D
:1001E00065745F6C65643A2000290A002575002F4C
:1001F000002575005D28002564002000256400208E
:100200000025640020002564007C00253032580061
:100210006D6F7573656B6579205B62746E7C782099
:1002200079207620685D287265702F61636C293AA9
:10023000205B006D6B5F776865656C5F74696D65E9
:100240005F746F5F6D6178203D2025640A006D6BDF
:100250005F776865656C5F6D61785F737065656415
:10026000203D2025640A006D6B5F74696D655F74C5
:100270006F5F6D6178203D2025640A006D6B5F6DB6
:1002800061785F7370656564203D2025640A006DA8
:100290006B5F696E74657276616C203D2025640A1F
:1002A000006D6B5F64656C6179203D2025640A00F8
:1002B0006D6B5F776865656C5F74696D655F746FA2
:1002C0005F6D6178203D2025640A006D6B5F776863
:1002D00065656C5F6D61785F7370656564203D2056
:1002E00025640A006D6B5F74696D655F746F5F6D87
:1002F0006178203D2025640A006D6B5F6D61785F39
:100300007370656564203D2025640A006D6B5F692C
:100310006E74657276616C203D2025640A006D6BF9
:100320005F64656C6179203D2025640A000A002520
:100330007500363A20776865656C5F74696D655F36
:10034000746F5F6D61783A20000A00257500353AB8
:1003500020776865656C5F6D61785F737065656453
:100360003A20000A00257500343A2074696D655FF3
:10037000746F5F6D61783A20000A00257500333A8A
:10038000206D61785F73706565643A20000A00250E
:100390007500323A20696E74657276616C286D73EF
:1003A000293A20000A00257500313A2064656C6105
:1003B00079282A31306D73293A20000A092D2056F8
:1003C000616C756573202D0A004D3E004D25643E1D
:1003D00020003F007365742064656661756C740A63
:1003E00000433E200077686572652064656C746127
:1003F0003A20637572736F723D25642C20776865AF
:10040000656C3D25640A53656520687474703A2FE5
:100410002F656E2E77696B6970656469612E6F72E6
:10042000672F77696B692F4D6F7573655F6B6579A2
:10043000730A000A092D204D6F7573656B6579206D
:100440002D0A4553432F713A09717569740A313A7F
:100450000964656C6179282A31306D73290A323A52
:1004600009696E74657276616C286D73290A333A76
:10047000096D61785F73706565640A343A0974695F
:100480006D655F746F5F6D61780A353A09776865ED
:10049000656C5F6D61785F73706565640A363A09F3
:1004A000776865656C5F74696D655F746F5F6D61BA
:1004B000780A0A703A097072696E742076616C75F8
:1004C00065730A643A097365742064656661756CC6
:1004D00074730A75703A092B310A646F776E3A09A2
:1004E0002D310A706775703A092B31300A706764D4
:1004F0006F776E3A092D31300A0A73706565642092
:100500003D2064656C7461202A206D61785F737092
:10051000656564202A2028726570656174202F202B
:1005200074696D655F746F5F6D6178290A003F00C3
:100530004D3E2000433E20004C25640A0074696D46
:1005400065725F72656164333228293A2025303440
:100550006C580A006B6579626F6172645F69646CE4
:10056000653A2025580A006B6579626F6172645F95
:1005700070726F746F636F6C3A2025580A00686F51
:1005800073745F6B6579626F6172645F6C656473CD
:1005900028293A2025580A000A092D20537461742D
:1005A0007573202D0A004743433A20352E342E30F0
:1005B000204156522D4C4942433A20322E302E30A3
:1005C000204156525F415243483A20617672350AC3
:1005D000004F5054494F4E533A204C554641204D00
:1005E0004F5553454B45592045585452414B455959
:1005F00020434F4E534F4C4520434F4D4D414E44A9
:1006000020343039360A004255494C443A202231D0
:10061000303233393022202830313A34343A3239CA
:10062000204E6F762033302032303230290A005687
:1006300049443A2030784445414628696D636869E9
:1006400070776F6F6429205049443A2030783039F0
:1006500031332864756D6270616429205645523AC1
:10066000203078303030310A000A092D205665726A
:1006700073696F6E202D0A000A092D20436F6E7377
:100680006F6C65202D0A4553432F713A09717569C6
:10069000740A6D3A096D6F7573656B65790A000AA6
:1006A000092D204D61676963202D0A443A0944658C
:1006B000627567204D65737361676520546F676766
:1006C0006C650A583A094D61747269782044656214
:1006D0007567204D6F646520546F67676C65202DCA
:1006E0002053686F77206B657970726573736573DB
:1006F00020696E206D617472697820677269640A7E
:100700004B3A094B6579626F61726420446562758A
:100710006720546F67676C65202D2053686F7720C2
:100720006B65797072657373207265706F72740A8D
:100730004D3A094465627567204D6F7573652054A5
:100740006F67676C650A563A0956657273696F6E12
:100750000A533A095374617475730A433A09416341
:1007600074697661746520436F6E736F6C65204D9C
:100770006F64650A46312D4631303A095377697402
:10078000636820746F204C6179657220302D3920A8
:1007900028463130203D204C30290A302D393A0985
:1007A00053776974636820746F204C617965722097
:1007B000302D390A47524156453A095377697463D7
:1007C0006820746F204C6179657220302028616C3C
:1007D0007465726E617465290A423A094A756D70D2
:1007E00020746F20426F6F746C6F616465720A458C
:1007F00053433A094A756D7020746F20426F6F74CD
:100800006C6F616465722028616C7465726E6174CE
:1008100065290A453A095072696E7420454550525F
:100820004F4D2053657474696E67730A425350418B
:1008300043453A09436C65617220454550524F4D1E
:100840000A000A002575002E6E6B726F3A20000AAE
:10085000002575002E737761705F6261636B736C46
:100860006173685F6261636B73706163653A2000F6
:100870000A002575002E737761705F677261766577
:100880005F6573633A20000A002575002E6E6F5F66
:100890006775693A20000A002575002E737761702C
:1008A0005F72616C745F726775693A20000A002597
:1008B00075002E737761705F6C616C745F6C677527
:1008C000693A20000A002575002E737761705F7207
:1008D00063746C5F726775693A20000A00257500C1
:1008E0002E737761705F6C63746C5F6C6775693AC7
:1008F00020000A002575002E636170736C6F636BB6
:100900005F746F5F636F6E74726F6C3A20000A00E1
:100910002575002E737761705F636F6E74726F6CF4
:100920005F636170736C6F636B3A20000A0025305F
:100930003258006B65796D61705F636F6E666967D1
:100940002E7261773A20000A002575002E6D6F75B2
:1009500073653A20000A002575002E6B6579626F79
:100960006172643A20000A002575002E6D61747270
:1009700069783A20000A002575002E656E61626C68
:10098000653A20000A0025303258006465627567B8
:100990005F636F6E6669672E7261773A20000A00A6
:1009A00025750064656661756C745F6C617965724C
:1009B0003A20003F000A6D6F7573653A206F6666D6
:1009C0000A000A6D6F7573653A206F6E0A000A6B34
:1009D0006579626F6172643A206F66660A000A6B1D
:1009E0006579626F6172643A206F6E0A000A6D6108
:1009F000747269783A206F66660A000A6D617472D3
:100A000069783A206F6E0A000A64656275673A2059
:100A10006F66660A000A64656275673A206F6E0A3F
:100A2000000A0A4A756D70696E6720746F20626FE4
:100A30006F746C6F616465722E2E2E2000433E2011
:100A400000436C656172696E6720454550524F4D99
:100A50000A006565636F6E6669673A0A005B735DDD
:100A6000004B6579626F6172642073746172742ED9
:100A70000A005B575D005B535D005B525D005B44A9
:100A80005D005B435D000403300000001003640060
:100A900075006D00620070006100640000001603C4
:100AA00069006D00630068006900700077006F00E6
:100AB0006F00640000000403090409025B000301E5
:100AC00000A0FA090400000103010100092111013D
:100AD00000012240000705810308000A0904010003
:100AE0000103000000092111010001228100070516
:100AF000820320000A090402000203000000092109
:100B000011010001222200070583032000010705CF
:100B100003032000011201100100000008AFDE13E2
:100B2000090100010203010631FF0974A1010975E1
:100B3000150026FF0095207508810209761500260C
:100B4000FF00952075089102C005010902A10185E9
:100B5000020901A1000509190129051500250195C2
:100B600005750181029501750381010501093009AF
:100B7000311581257F950275088106093815812573
:100B80007F950175088106050C0A38021581257FBD
:100B9000950175088106C0C005010980A101850382
:100BA00019012AB700150126B700950175108100BB
:100BB000C0050C0901A101850419012AA002150133
:100BC00026A002950175108100C005010906A1014A
:100BD000050719E029E7150025019508750181022F
:100BE0009501750881010507190029FF150026FFE9
:100BF00000950675088100050819012905950575F8
:100C0000019102950175039101C011241FBECFEF20
:100C1000DAE0DEBFCDBF04B603FE27C080917802C4
:100C200090917902A0917A02B0917B028730904B2B
:100C3000A740B04BD1F41092780210927902109232
:100C40007A0210927B0214BE84B7877F84BF0FB6EE
:100C5000F894A8958091600088618093600010925C
:100C600060000FBEE0E0F8E3099511E0A0E0B1E01C
:100C7000ECE7F0E602C005900D92AA3AB107D9F769
:100C800022E0AAEAB1E001C01D92A837B207E1F75D
:100C90000E943E2A0C943C300C940000FF93EF938A
:100CA000E091AA01F091AB01309709F00995EF911D
:100CB000FF910895FC018591803011F0EFDFFBCFAB
:100CC0000895FF27E0E230E247FF0CC0419597FF0F
:100CD00009C0EDE26095709580959095611D711D3C
:100CE000811D911D27FF02C0219530E350E2AA2704
:100CF000660F771F881F991FAA1FA41710F0A41B47
:100D000063955A95A9F7AA3008F0A95FA05DAF9343
:100D1000F395611571058105910541F7ED3211F4E7
:100D2000EF93F395F21718F43F93F395FBCF8F9160
:100D3000B5DFFA95E1F70895E991F9918591803051
:100D400021F0853219F0AADFF9CF089520E0E89468
:100D500055915532C1F3503311F4689455915A337B
:100D600048F4505390F3220F022E220F220F200D31
:100D7000250FF4CF0EF4219589919991533619F3EB
:100D8000533729F1533559F1BC0188279927E89445
:100D90005C3621F48991999168945591543639F4CF
:100DA00046EF7EF077FF0DC08FEF9FEF0AC05537FB
:100DB0004AE039F0583540E121F0523642E009F07E
:100DC0000895FF93EF937DDFEF91FF91B7CFFF93EE
:100DD000EF93FC0181918030B9F360DFFBCFFF938B
:100DE000EF9368DFF1CFDF93CF93CDB7DEB72596D2
:100DF000A3DFCF91DF910895239A219A0C947A1260
:100E00002B9829980895CF92DF92EF92FF926B0171
:100E10007C010E943F1D80FF02C02B9A01C02B98CD
:100E200081FF02C0299A01C02998C701B601FF902D
:100E3000EF90DF90CF900C94A21A82E090E02B9A72
:100E400029982FEF31EE44E0215030404040E1F747
:100E500000C000002B9A299A2FEF31EE44E0215078
:100E600030404040E1F700C000002B98299A2FEF56
:100E700031EE44E0215030404040E1F700C0000036
:100E80002B9829982FEF31EE44E02150304040401C
:100E9000E1F700C00000019791F60C949A0A0C94B7
:100EA000980A0C9457070C942B0881E0089581E070
:100EB000089508950C9459071F93CF93DF9300D0A2
:100EC00000D01F92CDB7DEB749835A836B83309130
:100ED000E20189819A81311114C0662359F02223DD
:100EE00049F00E94081C182F682F89819A810E945E
:100EF000AF1B03C00E94DB1B182F69817A81812FF1
:100F000004C00E94081C69817A810F900F900F9095
:100F10000F900F90DF91CF911F910C943D08FC0131
:100F2000262F408151816281738184810C945C07FA
:100F3000CF93DF93EC0160E00E948F07BE01DF9149
:100F4000CF910C945A070E948B1F0E94A71D8111FC
:100F500002C00E944E1E0C941D070C944F070E9465
:100F6000BA160E9400072FEF84E39CE021508040D6
:100F70009040E1F700C000000C94781F0F931F937E
:100F8000CF93DF9300D0CDB7DEB78C0161E00E9434
:100F90008F079A838983B801CE0101960E943D0E86
:100FA000882309F44FC0B80189819A810E945107B2
:100FB000882309F447C0B80189819A810E948F0C67
:100FC000882309F43FC0B80189819A810E94E10C0D
:100FD0008823C1F1B80189819A810E940C0E88236F
:100FE00089F1F8018281882341F189819A818130D8
:100FF0002CE5920751F0803EECE59E07D9F0811573
:101000009C45D9F40E94AF071DC080913F02182F64
:101010001095117010FB80F980933F02112329F085
:1010200086E891E00E945A060DC084E791E00E9494
:101030005A0609C00E944E1E05C0C8010E945507ED
:10104000182F01C010E0812F0F900F90DF91CF91EA
:101050001F910F910895089581E008950C942C0834
:10106000CF93C82F0E9453078C2F0E942E08CF9138
:10107000089580E090E00895089524E1829FC001E2
:101080001124FC0125E0729FE00DF11D1124E60FF3
:10109000F11DEE0FFF1FE450FF4F859194910895CD
:1010A000880F991FFC01E956FE4F85919491089590
:1010B000CF93DF930E943D080E947009EC018115D7
:1010C000904508F041C0C11580E4D80708F0D1C0B0
:1010D000C83ED10510F5C03ED10508F0FDC0C83AA4
:1010E000D10578F4C53AD10508F0A2C0C130D105C8
:1010F00009F4F2C008F4EEC0C430D10508F0ECC029
:10110000E9C0CF3BD10508F49BC0C03CD10508F431
:10111000E1C0CE01805C91099EC0C11590E2D90763
:1011200058F4C11521E0D20708F0D6C0C03FD10560
:1011300008F4D0C0D065D0C0C11580E3D80708F04E
:101140008EC0CE019F7087C0C11595E5D90708F004
:1011500043C0C11524E5D20708F0A2C0C11582E53D
:10116000D80708F5C11591E5D90708F085C0CE016B
:1011700074E0969587957A95E1F783709C2F93702C
:1011800021E030E002C0220F331F9A95E2F73C685D
:10119000382BCF70C695C69580E2C89FE001112418
:1011A000C22BD32B99C09E01237033278C2F869599
:1011B0008695C115D34508F064C0C1E0D0E002C0F7
:1011C000CC0FDD1F2A95E2F720E2829FC001112497
:1011D000C82BD92BDC6880C0C11529E5D207A0F443
:1011E000C11588E5D80708F060C0C11596E5D90794
:1011F00008F070C08C2F0E94040A8F71C82FD0E0B5
:10120000DC2FCC27D06268C0C1152AE5D20708F4CC
:1012100051C0CE0190568115904208F05BC08D2FD1
:101220008F710E94040ADD27D0628F71D82B54C0C1
:10123000C55AD0E0CD5BDE4FC881D0E0D0644CC051
:10124000C85AD0E0CC0FDD1FCB5EDE4F0990D881AD
:10125000C02DD46441C00E945008EC013DC0CE01B5
:101260009927D3FF03C0EC01D86C36C0EC01D06CD9
:1012700033C0DF70D06A30C0DC2FCC27C16FD06A9A
:101280002BC0C1E0D0E002C0CC0FDD1F2A95E2F7F1
:1012900020E2829FC0011124C82BD92BDA681CC020
:1012A000DC2FCC27C46FD06A17C0DC2FCC27C06FCF
:1012B000D06A12C08C2F8F700E94040A94E0D695D9
:1012C000C7959A95E1F7CF70D0E0DC2FCC27D06995
:1012D000C82B02C0C0E0D0E0CE01DF91CF910895CD
:1012E0008238910569F1B0F48133910509F46DC03C
:1012F00048F48932910509F463C08A32910509F4F2
:1013000069C008958533910509F455C08933910565
:10131000B9F00895833E910569F138F4803E910556
:10132000B1F0823E910509F10895863E9105A9F13B
:10133000873E9105B9F1843E910509F064C023C050
:101340002091690220FD4FC021FD4DC0089580917C
:10135000690280FD44C080916A0280FF44C0809190
:10136000690284FD42C083EE4DC08091690282FF14
:1013700038C0F5CF8091690282FD33C080916A0246
:1013800080FD31C0ECCF80916A0281FF32C0809134
:10139000690284FD2AC087EE35C08091690283FF0F
:1013A00026C0F5CF8091690283FD21C080916A0239
:1013B00081FD1FC0ECCF8091690285FD1CC01DC05E
:1013C0008091690285FD19C016C08091690286FD71
:1013D00016C017C08091690286FD13C010C089E352
:1013E00011C082EE0FC080EE0DC080E00BC086EE13
:1013F00009C084EE07C089E205C085E303C08AE224
:1014000001C081E390E008959091690292FF0DC0C0
:10141000282F2871283019F4877F846006C0282F70
:101420002471243011F48B7F886093FF0DC0282F26
:101430002871283119F4877E846106C0282F247111
:10144000243111F48B7E886120916A0220FF0DC047
:10145000382F3871383019F4877F816006C0382FF3
:101460003171313011F48E7F886021FF0DC0282F3B
:101470002871283119F4877E816106C0282F2171D7
:10148000213111F48E7E886194FD877E0895E82FC6
:10149000F0E0EF59FD4F80810895CF92DF92EF92F7
:1014A000FF920F931F93CF93DF9386EA91E00E9400
:1014B0005A0681E6E82E82E0F82EC0E0D0E091EAFC
:1014C000C92E91E0D92E09E911E0DF93CF93DF9285
:1014D000CF920E94F3068EE991E00E945A06F7012E
:1014E00081917F010E948F1D1F928F931F930F93F5
:1014F0000E94F30687E991E00E945A0621968DB773
:101500009EB708960FB6F8949EBF0FBE8DBFC4302D
:10151000D105D9F6DF91CF911F910F91FF90EF90F8
:10152000DF90CF90089580EA8A95F1F708950895A5
:101530000C94970A0C94970AF894E82FE295EF70B0
:10154000F0E031A1282F2F7081E090E001C0880FDA
:101550002A95EAF7982F9095932391A392A1892B2E
:1015600082A37894089584EF0E949C0A85EF0E94DC
:101570009C0A86EF0E949C0A87EF0E949C0A86E6DE
:101580000E949C0A87E90E949C0A86EC0E949C0AA1
:1015900084E30E949C0A85E30E949C0AADE5B2E0C8
:1015A0001C92E1E6F2E0108211961C9211971182D2
:1015B00012961C921297128213961C92138284E048
:1015C0000E94670B0C94A3078F929F92AF92BF92D9
:1015D000CF92DF92EF92FF920F931F93CF93DF93FF
:1015E0008BE4A82E81E0B82ECDE5D2E09FE4E92E71
:1015F00091E0F92E912C01E010E06501F501808168
:10160000F894E82FE295EF70F0E021A18F70A80127
:1016100002C0440F551F8A95E2F7CA01922F982BFA
:1016200091A392A18095892382A378940E94930A22
:10163000E6E4F1E020E030E0812C4191A42FA29576
:10164000AF70B0E090968C9190E04F7002C095958D
:1016500087954A95E2F780FD07C0802F022E01C0D2
:10166000880F0A94EAF701C080E0882A2F5F3F4F75
:101670002530310511F75FEFA51AB50AF601808113
:101680000E949C0A8881881619F0888281E001C036
:1016900080E0982A2196EA14FB0409F0AECF292DA8
:1016A00044E061E672E08DE592E00E94680B0E94E2
:1016B000AD07892DDF91CF911F910F91FF90EF9092
:1016C000DF90CF90BF90AF909F908F900895089536
:1016D000FF920F931F93CF93DF938C01F62ED72F9A
:1016E000C42F222349F081E08093AE010E942B1F7A
:1016F0009093AD018093AC018091AE018823C1F03D
:101700008091AC019091AD010E94431F069780F03B
:10171000EF2DFD2FD8014C2F50E0CD01801B910BF8
:10172000841795071CF48D918193F7CF1092AE0129
:10173000DF91CF911F910F91FF90089508950C9420
:101740009E0B5098589A54985C9A89B181704C9924
:1017500002C090E001C092E0892B8093B10108950E
:10176000E091B101EE0FEE0FE093B10149B1842F8A
:10177000817090E049B144FB222720F930E044FF1A
:1017800002C022E030E0822B932B8E2B8093B1019C
:101790008F70E82FF0E0E15BFE4F90818091B00107
:1017A000890F8093B00184304CF08091AF018F5F3E
:1017B0008093AF0160E080E00E949F0B8091B001B8
:1017C0008D3F4CF48091AF0181508093AF0161E077
:1017D00080E00E949F0B8091B001082E000C990BB5
:1017E00064E070E00E94AA2F8093B0010895AF9248
:1017F000BF92CF92DF92EF92FF920F931F93CF93FE
:10180000DF937C015B01C42FD22FFC0182818823EE
:10181000F9F04093B4010E942B1F9093B301809381
:10182000B20180E28C0F883008F06EC0C77081E092
:1018300001C0880FCA95EAF7DF91CF911F910F91F0
:10184000FF90EF90DF90CF90BF90AF900C942A1450
:101850008091B401481335C08091B2019091B301D9
:101860000E94431F6C01B701C5010E947319C8167D
:10187000D90638F510E21D0FCD17B9F080E28C0FB4
:10188000883040F4C77081E001C0880FCA95EAF73C
:101890000E943114183058F581E09D2F977001C0D7
:1018A000880F9A95EAF70E942A14802F0E94171435
:1018B000183050F5D77081E001C0880FDA95EAF74B
:1018C0000AC080E28C0F8830F8F4C77081E001C054
:1018D000880FCA95EAF7DF91CF911F910F91FF9082
:1018E000EF90DF90CF90BF90AF900C943114802F89
:1018F000DF91CF911F910F91FF90EF90DF90CF90EC
:10190000BF90AF900C941714DF91CF911F910F915E
:10191000FF90EF90DF90CF90BF90AF9008950F931E
:101920009C01CB01253F4CE5340731F188F4293D7A
:10193000FCE53F07D9F02A3D4CE5340779F1283D15
:101940003C45A9F506E221EE41EE68ED7CE52BC0B1
:10195000273FFCE53F07E1F0A8F0283F3C4539F57B
:1019600007E225EE46EE68EF7CE51DC007E225EEB6
:1019700045EE69ED7CE517C006E221EE40EE65EF2D
:101980007CE511C007E225EE44EE66EF7CE50BC076
:1019900006E221EE42EE67EF7CE505C008E221E0B9
:1019A00045EE6AED7CE50E94F70B80E008C0FC0183
:1019B0008281882319F01092B40101C081E00F9157
:1019C0000895CF93DF93EC01FB018281882309F412
:1019D0001FC1C230FCE5DF0708F41BC1C6319CE51E
:1019E000D90738F09E012C5F3C452930310508F0BD
:1019F00010C10E94BA1D90936A0280936902C0319F
:101A0000ECE5DE0709F4C3C008F041C0C8308CE53E
:101A1000D80709F49AC0F0F4C430ECE5DE0709F405
:101A200087C068F4C2308CE5D80709F477C0C330AA
:101A3000DC4509F0E3C080916902826076C0C6305F
:101A4000ECE5DE0709F46EC008F07BC08091690206
:101A500088606BC0CC308CE5D80709F485C068F489
:101A6000CA30ECE5DE0709F474C008F079C00E94C2
:101A7000BA1680916902806858C0CE308CE5D807CC
:101A800009F476C008F07FC0809169028BC0CD3F19
:101A9000ECE5DE0709F44FC018F5C3318CE5D80733
:101AA00009F47DC078F4C131ECE5DE0709F473C0B8
:101AB000C231DC4509F0A2C00E94BA1680916902C9
:101AC0008F7733C0C5318CE5D80709F472C008F4AC
:101AD00086C0CC3FDC4509F091C080916A023EC0CF
:101AE000C130FDE5DF0709F45FC058F4CF3F9CE546
:101AF000D90709F444C008F43FC080916A028260AB
:101B00002DC0C330FDE5DF0709F475C008F45DC0E2
:101B1000C430DD4509F072C080E06EC0809169027A
:101B2000816003C08091690280618093690266C010
:101B30008091690211C080916A02826080936A027A
:101B40005DC0809169028062F0CF809169028064FB
:101B5000ECCF8091690288608460E7CF8160EECF2E
:101B6000809169028E7FE1CF809169028D7FDDCF08
:101B700080916902877FD9CF80916A0218C08091D5
:101B80006A028D7FDBCF809169028F7ECECF8091FC
:101B900069028F7DCACF809169028F7BC6CF809109
:101BA0006902877F8B7FC1CF80916A028D7F8E7F94
:101BB000C5CF8091690282FB222720F991E092270C
:101BC00090FB82F990FB83F9B0CF80916A02982F45
:101BD000909591708E7F892B90FB81F9AFCF0E94F9
:101BE000BA168091690287FB222720F991E092279B
:101BF00090FB87F99ACF81E00E94501E8091690284
:101C000090916A020E94CB1D0E94BA1680E001C02A
:101C100081E0DF91CF910895CF93DF9386319C458A
:101C200041F5EB010E94891C982F8A8120910001C7
:101C300030910101882379F09A7A81E009F480E0FB
:101C40008093B501911102C069E201C065E3C90149
:101C50000E94971E0AC08091B501811102C069E2FD
:101C600001C065E3C9010E94991E0E94D71C80E053
:101C700001C081E0DF91CF9108958F929F92AF9242
:101C8000BF92CF92DF92EF92FF920F931F93CF9369
:101C9000DF937C01DC01ED91FC91CF0181509545F2
:101CA0008F3F910510F4B5E5FB27DB011296CC912F
:101CB000CC2309F4B4C2EF3FF10579F070F0EF3DA9
:101CC000FC4519F01092B60160C39091B60181E015
:101CD00089278093B601A0E059C3A091B601AA2339
:101CE00009F4EBC01092B601E03CF10540F4E03895
:101CF000F10508F073C0E034F105D0F505C0EF3F01
:101D0000F10509F008F4A0C021E030E040E050E027
:101D100060E070E080E090E00E2F0E94C42FB09150
:101D2000B7012B2BB091B8013B2BB091B9014B2BD4
:101D3000B091BA015B2BB091BB016B2BB091BC0190
:101D40007B2BB091BD018B2BB091BE019B2B2093BF
:101D5000B7013093B8014093B9015093BA01609331
:101D6000BB017093BC018093BD019093BE01A1C0E3
:101D700021E030E040E050E060E070E080E090E0A2
:101D80008F01005411090E94C42FB091BF012B2B69
:101D9000B091C0013B2BB091C1014B2BB091C2015E
:101DA0005B2BB091C3016B2BB091C4017B2BB09125
:101DB000C5018B2BB091C6019B2B2093BF013093A3
:101DC000C0014093C1015093C2016093C30170935D
:101DD000C4018093C5019093C6016BC021E030E03F
:101DE00040E050E060E070E080E090E08F0100585B
:101DF00011090E94C42FB091C7012B2BB091C801CB
:101E00003B2BB091C9014B2BB091CA015B2BB09118
:101E1000CB016B2BB091CC017B2BB091CD018B2BE7
:101E2000B091CE019B2B2093C7013093C801409302
:101E3000C9015093CA016093CB017093CC01809388
:101E4000CD019093CE0135C021E030E040E050E07C
:101E500060E070E080E090E08F01005C11090E947A
:101E6000C42FB091CF012B2BB091D0013B2BB0915F
:101E7000D1014B2BB091D2015B2BB091D3016B2BD5
:101E8000B091D4017B2BB091D5018B2BB091D601B1
:101E90009B2B2093CF013093D0014093D1015093DD
:101EA000D2016093D3017093D4018093D5019093B4
:101EB000D601E701F983E88369C2E034F105D0F483
:101EC000A090B701B090B801C090B901D090BA010C
:101ED000E090BB01F090BC01B091BD011091BE013A
:101EE00021E030E040E050E060E070E080E090E031
:101EF0000E2F5DC0E038F105E8F4A090BF01B0906E
:101F0000C001C090C101D090C201E090C301F09027
:101F1000C401B091C5011091C60121E030E040E05C
:101F200050E060E070E080E090E04F01D0E48D1A76
:101F300091083CC0E03CF105E8F4A090C701B090E6
:101F4000C801C090C901D090CA01E090CB01F090C7
:101F5000CC01B091CD011091CE0121E030E040E004
:101F600050E060E070E080E090E04F01D0E88D1A32
:101F700091081CC0A090CF01B090D001C090D101B9
:101F8000D090D201E090D301F090D401B091D5016E
:101F90001091D60121E030E040E050E060E070E0D8
:101FA00080E090E04F01D0EC8D1A9108082D0E943E
:101FB000C42FA222B322C422D522E622F722B823BC
:101FC000192321E030E040E050E060E070E080E084
:101FD00090E0E034F105A0F04F01E038F10520F485
:101FE000D0E48D1A91080AC0E03CF10520F4D0E855
:101FF0008D1A910803C0D0EC8D1A9108082D01C0EC
:102000000E2F0E94C42F0B2F0E94DD2F09F0BDC19F
:10201000E03CF10548F4E038F10508F084C0E03414
:10202000F10508F042C005C0EF3FF10509F008F4E2
:10203000B8C021E030E040E050E060E070E080E0D7
:1020400090E00E2F0E94C42F20953095409550951A
:102050006095709580959095E091B7012E23E09161
:10206000B8013E23E091B9014E23E091BA015E230D
:10207000E091BB016E23E091BC017E23E091BD01A4
:102080008E23E091BE019E232093B7013093B801C7
:102090004093B9015093BA016093BB017093BC01A6
:1020A0008093BD019093BE0171C18F01005411094D
:1020B00021E030E040E050E060E070E080E090E05F
:1020C0000E94C42F2095309540955095609570954D
:1020D00080959095E091BF012E23E091C0013E23B1
:1020E000E091C1014E23E091C2015E23E091C30162
:1020F0006E23E091C4017E23E091C5018E23E0911F
:10210000C6019E232093BF013093C0014093C101BB
:102110005093C2016093C3017093C4018093C501C1
:102120009093C60133C18F010058110921E030E0BE
:1021300040E050E060E070E080E090E00E94C42F5A
:102140002095309540955095609570958095909527
:10215000E091C7012E23E091C8013E23E091C9011F
:102160004E23E091CA015E23E091CB016E23E09102
:10217000CC017E23E091CD018E23E091CE019E2300
:102180002093C7013093C8014093C9015093CA01FD
:102190006093CB017093CC018093CD019093CE01DD
:1021A000F5C08F01005C110921E030E040E050E013
:1021B00060E070E080E090E00E94C42F20953095B0
:1021C000409550956095709580959095E091CF01E0
:1021D0002E23E091D0013E23E091D1014E23E091E6
:1021E000D2015E23E091D3016E23E091D4017E23DE
:1021F000E091D5018E23E091D6019E232093CF015B
:102200003093D0014093D1015093D2016093D30118
:102210007093D4018093D5019093D601B7C0EF3F5E
:10222000F10511F008F0AEC0E034F105D0F4C09033
:10223000B701D090B801E090B901F090BA011091C7
:10224000BB01C091BC01B091BD01A091BE0121E0D4
:1022500030E040E050E060E070E080E090E00E2F81
:102260005DC0E038F105E8F4C090BF01D090C00136
:10227000E090C101F090C2011091C301C091C4016E
:10228000B091C501A091C60121E030E040E050E0EE
:1022900060E070E080E090E05F01D0E4AD1AB1084A
:1022A0003CC0E03CF105E8F4C090C701D090C80103
:1022B000E090C901F090CA011091CB01C091CC010E
:1022C000B091CD01A091CE0121E030E040E050E09E
:1022D00060E070E080E090E05F01D0E8AD1AB10806
:1022E0001CC0C090CF01D090D001E090D101F090FF
:1022F000D2011091D301C091D401B091D501A09128
:10230000D60121E030E040E050E060E070E080E0A5
:1023100090E05F01D0ECAD1AB1080A2D0E94C42FE5
:10232000A22EAC20B32EBD20C42ECE20D52EDF2071
:10233000E62EE122F72EFC22B823192F1A23E034CF
:10234000F10570F0E038F10518F4E054F10908C027
:10235000E03CF10518F4E058F10902C0E05CF10935
:1023600021E030E040E050E060E070E080E090E0AC
:102370000E2F0E94C42FA1E00B2F0E94DD2F19F415
:10238000A0E001C0A1E0A17001C0AC2F8A2FDF91B5
:10239000CF911F910F91FF90EF90DF90CF90BF9062
:1023A000AF909F908F9008959093DC018093DB0114
:1023B0000895E091DB01F091DC01309721F001906C
:1023C000F081E02D099480E00895EF92FF920F9341
:1023D0001F93CF93DF93E091DB01F091DC01309705
:1023E000B1F18C010280F381E02D099580913F02CB
:1023F00082FF2DC080FF04C08DEB91E00E945A0641
:10240000E80118E087EBE82E81E0F82E80913F028A
:1024100080FF0BC088811F928F93FF92EF920E94E2
:10242000F3060F900F900F900F90115021961111FD
:10243000EDCF80913F0280FF0AC085EB91E0DF91F4
:10244000CF911F910F91FF90EF900C945A06DF915E
:10245000CF911F910F91FF90EF900895E091DB01D4
:10246000F091DC01309739F022E0DC012C930480FC
:10247000F581E02D099408952091D9013091DA0178
:102480002817390771F09093DA018093D901E09110
:10249000DB01F091DC01309721F00680F781E02D1F
:1024A000099408952091D7013091D8012817390750
:1024B00071F09093D8018093D701E091DB01F09106
:1024C000DC01309721F00084F185E02D0994089516
:1024D00085B7806885BF85B7806885BF089581E02E
:1024E00008950C946F1208950C9473120C94731247
:1024F0000C9476120C9473120C9473120E9468124E
:102500000E947C120C94FC060E94221F0E94B30AB7
:102510000E949F1F0E94A10B0C947812CF93C82F8A
:1025200080913F0282FF1EC080FF04C086ED91E0D3
:102530000E945A0680913F0280FF0CC01F92CF93E9
:1025400081ED91E09F938F930E94F3060F900F907F
:102550000F900F9080913F0280FF04C08FEC91E0BC
:102560000E945A068C2FCF910C943008AF92BF92E4
:10257000CF92DF92EF92FF920F931F93CF93DF934F
:10258000CDB7DEB72A970FB6F894DEBF0FBECDBF2A
:102590000E9474120E9473120E94E40A0E94711237
:1025A000811111C08FEF89838A831B820E942B1FA8
:1025B0008160782F9D838C8349815A816B818D81C5
:1025C0000E94541340C08EEDA82E81E0B82E00E08A
:1025D00010E0C02E802F0E94470AE82EF501D1900E
:1025E0005F01D82631F40F5F1F4F0430110589F7C2
:1025F000D9CF80913F0281FD0E944D0A80E0FF24E7
:10260000F3949D2D9F21D1F08E83CF82EF2081E026
:1026100009F480E088870E942B1F8160782F9A87B9
:1026200089874E815F8168858A850E945413F801ED
:10263000E252FE4F8081F826F08205C08F5FFF0CCA
:102640008530F9F6D0CF0E94B00B0E94D0210E94B5
:10265000D9119091DD018917B1F00E94D9118093B1
:10266000DD012A960FB6F894DEBF0FBECDBFDF9115
:10267000CF911F910F91FF90EF90DF90CF90BF907F
:10268000AF900C948E122A960FB6F894DEBF0FBE50
:10269000CDBFDF91CF911F910F91FF90EF90DF9011
:1026A000CF90BF90AF900895CF93DF93CDB7DEB7B3
:1026B0002B970FB6F894DEBF0FBECDBF4F83588760
:1026C00069877A878B87DE01119686E0FD0111927A
:1026D0008A95E9F785E0FE01379601900D928A957B
:1026E000E1F749815A816B817C818D819E810E94B5
:1026F00076192B960FB6F894DEBF0FBECDBFDF91D3
:10270000CF910895FC01808191810E944A1C089517
:10271000CF93882309F455C0C82F8CEF8C0F813AD2
:10272000F8F48C2F0E94D22681114BC06C2F80911F
:102730000001909101010E94611E882349F06C2FD5
:1027400080910001909101010E94991E0E94D71C66
:102750006C2F80910001909101010E94971E0CC086
:1027600080E28C0F883058F4C77081E001C0880F78
:10277000CA95EAF70E948C1CCF910C94D71CEBE50C
:10278000EC0FE33040F4F0E0E357FE4F808190E03F
:10279000CF910C943C12E8E5EC0FE73150F4F0E0F7
:1027A000EE0FFF1FE15AFE4F80819181CF910C9473
:1027B0005212C03F30F08C2F0E944320CF910C94D6
:1027C0003021CF910895882389F19CEF980F913A99
:1027D00040F4682F80910001909101010E94991EA0
:1027E0000DC090E2980F983058F4877091E001C0C6
:1027F000990F8A95EAF7892F0E94921C0C94D71C96
:102800009BE5980F933020F480E090E00C943C120C
:1028100098E5980F973120F480E090E00C945212E4
:10282000803F20F00E94AB200C9430210895CF937C
:10283000C82F0E948813C93349F42FEF87EE93E025
:10284000215080409040E1F700C000008C2FCF91D4
:102850000C94E313882321F00E948C1C0C94D71C49
:102860000895882321F00E94921C0C94D71C08958F
:10287000CF92DF92EF92FF920F931F93CF93DF934C
:102880007C01062FC72FFC01158112951F70D28184
:10289000D1110E94A91C0E94821C882399F0DD237B
:1028A00089F08C2F807F803421F080E2800F883087
:1028B00048F082E00E94211D0E94821C91E0D82EE7
:1028C000D92601C0D12CCC2EC2948FE0C8228C2DE9
:1028D00090E0FC01EA5AFF4F0C94BE2F8C2F807FB2
:1028E000CF70882311F0C295C07FDD2399F0CC23EF
:1028F00009F48DC180E2800F883010F0011104C00E
:102900008C2F0E948C1C03C08C2F0E949C1C0E9448
:10291000D71C7DC1802F0E94E313CC2309F49CC1F6
:1029200080E2800F883010F0011104C08C2F0E94CB
:10293000921C03C08C2F0E94A21C0E94D71C8CC129
:102940008C2F807FCF70803211F0C295C07F002322
:1029500019F00130C9F022C0DD2371F0112341F0DC
:10296000113031F40E94BC1C8C2B0E94C41C74C119
:102970000E94BC1C8C2B1DC0112319F0113009F4CE
:102980006BC10E94CD1C25C0DD2321F0163008F05C
:1029900063C10EC0153008F05FC11BC0DD2361F0BC
:1029A000112331F0F701858180FF31C18F7085835C
:1029B0008C2F0E942A1450C1112359F0093309F0B9
:1029C00037C1FFEF27EE83E0F15020408040E1F770
:1029D0002DC18C2F0E9431143FC18C2F8695869576
:1029E000837019F0813061F037C1DD2321F0802F31
:1029F0009C2F937002C080E090E00E943C1234C192
:102A0000DD2321F0802F9C2F937002C080E090E0A6
:102A10000E94521229C1802FDD2319F00E94432009
:102A200002C00E94AB200E9430211EC18C2F8370F7
:102A300009F045C0D11114C1402F42954695477009
:102A4000440F440F602F6F70862F90E0A0E0B0E03D
:102A5000042E04C0880F991FAA1FBB1F0A94D2F727
:102A600004FF10C00FE010E020E030E004C0000FD1
:102A7000111F221F331F4A95D2F7009510952095FC
:102A8000309503C000E010E09801C695C695C3706C
:102A9000BC01CD01602B712B822B932BC23049F0EE
:102AA00058F4C13019F00E94C71ADAC00E94B51A52
:102AB000D7C00E94D91AD4C00E94B31AD1C0DD2356
:102AC00019F08C2F817001C08695882309F4C8C045
:102AD000402F429546954770440F440F602F6F700A
:102AE000862F90E0A0E0B0E0042E04C0880F991F6C
:102AF000AA1FBB1F0A94D2F704FF10C00FE010E01A
:102B000020E030E004C0000F111F221F331F4A9540
:102B1000D2F7009510952095309503C000E010E0A5
:102B20009801C695C695C370BC01CD01602B712B71
:102B3000822B932BC23049F058F4C13019F00E9417
:102B40008A1B8EC00E94781B8BC00E949C1B88C071
:102B50000E94EB1A85C0CF70DD2339F08C2F0E94C4
:102B6000111B802F0E942A147BC0802F0E943114D9
:102B70008C2F0E94321B74C0023F01F128F4003FE9
:102B800041F0013FA1F03FC0033FF9F0043F39F1AC
:102B90003AC0DD2341F0153008F05EC08C2F8F71F4
:102BA0000E94571B59C0163008F056C0F7CFDD23DE
:102BB00039F08C2F8F710E94111B4EC0DD23C9F399
:102BC0008C2F8F710E94321B47C0DD2329F08C2F80
:102BD0008F710E94FC1A40C00E94F71A3DC0DD238D
:102BE00049F0CF718C2F0E94111B63E08C2F0E9443
:102BF0000C1D32C081E00E94211D123068F182E07C
:102C00000E94211D29C0DD2331F0112391F2802F74
:102C10000E94881321C0112399F2093349F49FEFD0
:102C2000E7EEF3E09150E040F040E1F700C0000033
:102C3000802F0E94E31310C04C2F4F70602FC701EC
:102C40000E9439080E94241A0FC04C2F4F70602F29
:102C5000C7010E943C0808C088EF8C0D843020F426
:102C60000E94D9110E943008DD20C9F00E947E1C0C
:102C700080FD15C0F70112820E94781C0E94111B72
:102C8000C7010E9470160E94781CDF91CF911F919E
:102C90000F91FF90EF90DF90CF900C94321BDF915B
:102CA000CF911F910F91FF90EF90DF90CF900895FB
:102CB0000F931F93CF93DF93EC01688179818A8111
:102CC0000E94551C8C010E94AE1B0E94A11AB801E3
:102CD000CE010E943814DF91CF911F910F9108957A
:102CE000CF93DF93EC01988189812B813C81232B49
:102CF00031F08F3F31F481E09F3F19F403C081E050
:102D000001C080E080FD19C0CE010E94BE07811184
:102D10000CC00E94821C882381F08A81882369F07C
:102D200082E0DF91CF910C94211DCE010E945816B4
:102D3000CE01DF91CF910C949807DF91CF91089548
:102D40000E94A91C0E94B91C0E94D71C0E94E32269
:102D50000E94302180E090E00E943C1280E090E0F0
:102D60000C94521280910001909101010E949B1ECF
:102D70000C94A0160E94991C0C94B216E92FE295AF
:102D8000EF704E2F50E0FA013297EE30F105B0F4BB
:102D9000EA59FF4F0C94BE2F803F91F018F4883E03
:102DA00068F40EC0843F51F40BC0883E48F0813F68
:102DB00029F406C093FB882780F9089580E00895E0
:102DC00081E008950E944A1C0E94BE160895CF9388
:102DD000DF9300D000D01F92CDB7DEB70F900F90D9
:102DE0000F900F900F90DF91CF910895CF93DF93C5
:102DF00000D000D000D0CDB7DEB726960FB6F8943D
:102E0000DEBF0FBECDBFDF91CF9108951F93CF934B
:102E1000DF93C091E30116E08091E401C81799F0B7
:102E2000D0E01C9FF0011D9FF00D1124EB51FE4FCF
:102E30004081518162817381848195810E94F6165F
:102E40002196C770E9CFDF91CF911F9108954091EE
:102E5000150250911602609117027091180280912C
:102E6000190290911A020C94F6160F931F93CF93A8
:102E7000DF9380911A0282958F7009F05DC0809176
:102E80001702882309F458C08091E3011091E401EE
:102E90006091150270911602C0911802D09119022A
:102EA00091E06F3F09F090E0292F06E0811709F4C7
:102EB00043C0209721F07F3F21F030E003C031E094
:102EC00001C0322F90E030FD34C0089FF001099F0F
:102ED000F00D1124DF01AB51BE4F11963C911197BB
:102EE000371327C03C91361324C012963C91129799
:102EF00031111FC013964D915C9114974C1B5D0BC3
:102F0000483C5105B0F480911A028F708061809323
:102F10001A02E651FE4F80818F708061808385E1C7
:102F200092E00E947016DF91CF911F910F910C9447
:102F3000061701968770BACFDF91CF911F910F913D
:102F400008959F92AF92BF92CF92DF92EF92FF923D
:102F50000F931F93CF93DF93CDB7DEB761970FB673
:102F6000F894DEBF0FBECDBF8C0185E0F801DE0115
:102F70001D9601900D928A95E1F7F80140815181EB
:102F8000E280909115026091160220911802309112
:102F900019022115310531F06F3F31F481E09F3F77
:102FA00019F403C081E001C080E0F82FF1709F2E7A
:102FB00080FD46C1F801A380B48085E1C82E82E07F
:102FC000D82EF0901702F501E21BF30BFF2009F455
:102FD000DFC080911A02E83CF10508F09BC0282F61
:102FE000207F09F052C0561313C0491311C0FE2CA4
:102FF000E1100EC08F70806180931A020E94271723
:10300000C6010E94701680911A02F801858358C18A
:10301000AB2831F05F3F31F481E04F3F19F403C03A
:1030200081E001C080E080FD03C081E08E2502C008
:1030300080E090E0F82FF170FF2E80FF1CC080919F
:10304000E3012091E40136E0821709F417C190E012
:10305000389FF001399FF00D1124EB51FE4F618133
:10306000561306C06081461303C06281E61203C096
:1030700001968770E9CFFE2CEE2009F421C18091E2
:103080001A02816080931A025AC0561306C049136F
:1030900004C0E11002C0F8019FC04D875E878D8596
:1030A0009E850E94E216882379F1EE2069F1209135
:1030B0001A02822F82958F7090E0029774F08091AF
:1030C00015029091160298878F831986BB86AA866F
:1030D0002C87CE0107960E94701686E0F801A5E1C4
:1030E000B2E001900D928A95E1F70E9435170E9497
:1030F00027170DC0561729F14D875E878D859E8550
:103100000E94E21681112CC0C8010E947016FF2493
:10311000F394D6C0282F207F69F77A2DB98AA88A20
:103120006E2D89890E94E71685E192E00E94701653
:1031300086E0F60111928A95E9F70E942717F12C93
:10314000BFC04913D9CFE110D7CFF8018583C8019B
:103150000E94701686E0F60111928A95E9F7B0C0D8
:10316000EE2091F220911A02822F82958F7090E0CA
:1031700002970CF4B2CF80911502909116029A83B7
:1031800089831B82BD82AC822E83CE010196A3CFA0
:10319000E83CF10508F047C0FE2CEE2009F4B4CF5E
:1031A000561330C049132EC020911A0220FD21C0B1
:1031B000822F82958F70482F50E041155105C9F03C
:1031C000F80125834F30510541F08F5F982F92957C
:1031D000907F822F8F70892B8583C8010E94701683
:1031E00086E0F801A5E1B2E001900D928A95E1F741
:1031F00042C086E0F801A5E1B2E001900D928A9507
:10320000E1F75EC04D875E878D859E850E94E21640
:10321000811163CF80911A02816080931A02C801E4
:103220000E9470164DC07A2DB98AA88A6E2D8989A0
:103230000E94E71686E0F60111928A95E9F71BC015
:10324000EE2009F461CF4D875E878D859E850E94B3
:10325000E216F82E882309F457CF86E0F801A5E19D
:10326000B2E001900D928A95E1F785E192E00E942B
:1032700082130E9435170E94271722C04D875E8750
:103280008D859E850E944A1C292F22952F70223001
:1032900028F49F7039F0811105C00BC0243028F448
:1032A0009F7049F4805E883020F0C8010E9470163B
:1032B0009F2CF92C05C0F8019581907F99F7F9CFE3
:1032C0008F2D61960FB6F894DEBF0FBECDBFDF9194
:1032D000CF911F910F91FF90EF90DF90CF90BF9013
:1032E000AF909F90089588EC90E008951F93CF933E
:1032F000DF93CDB7DEB72C970FB6F894DEBF0FBEC5
:10330000CDBF4F83588769877A878B879C87CE018B
:1033100007960E94A1178823D1F09F8188852A856E
:103320003B85232B31F08F3F31F481E09F3F19F42F
:1033300003C081E001C080E080FD47C04F81588517
:1033400069857A858B859C850E94F6163EC086E04D
:10335000FE013796DE01119601900D928A95E1F7F4
:10336000FF81E8856A857B856115710531F0EF3F46
:1033700031F481E0FF3F19F403C081E001C080E037
:1033800080FD23C02091E40130E0C90101968770DF
:1033900099274091E30150E084179507F1F1F983F3
:1033A000EA837D836C8396E0929FD001939FB00D5A
:1033B0001124AB51BE4FFE01319601900D929A95AA
:1033C000E1F78093E4010E94061716E08091E30183
:1033D0009091E401891771F1189FC00111248B515C
:1033E0009E4F0E94A117882329F1E091E3011E9FBF
:1033F000F0011124EB51FE4F4081518162817381B4
:10340000848195810E94F6168091E30190E00196F7
:10341000877099278093E301D9CF0E94BA16109242
:10342000E4011092E301E5E1F2E086E0DF011D92A4
:103430008A95E9F72C960FB6F894DEBF0FBECDBF84
:10344000DF91CF911F910895EF92FF920F931F93F9
:10345000CF93DF938C01892B09F46CC0F12CEE24FF
:10346000E394E8012196F8018491843740F4843094
:1034700008F051C0813081F0823019F15BC085378E
:1034800009F444C0A8F19CE7980F903708F052C0A7
:103490008F770E94E31341C00E5F1F4FFE0184919E
:1034A00090E2980F983050F48770FE2D01C0FF0F06
:1034B0008A95EAF78F2F0E94AC1C14C00E948813D3
:1034C0002DC00E5F1F4FFE01849190E2980F98303F
:1034D00060F48770FE2D01C0FF0F8A95EAF78F2FE9
:1034E0000E94B21C0E94D71C19C00E94E31316C090
:1034F0000E5F1F4FFE01C491CC2381F08FE99FE046
:103500000197F1F700C00000C150F6CF0E5F1F4FCA
:10351000FE01F49003C00E9488138E018F2D882332
:1035200009F49FCFEFE9FFE03197F1F700C0000009
:103530008150F5CFDF91CF911F910F91FF90EF90C8
:103540000895089508950C94A21A0C94A31A0E9449
:10355000A51A60932E0270932F02809330029093ED
:1035600031020C94A0160C94A71A0F931F9300918C
:103570002E0210912F022091300230913102602BE7
:10358000712B822B932B1F910F910C94A71A0F93E1
:103590001F9300912E0210912F0220913002309142
:1035A000310260237123822393231F910F910C9486
:1035B000A71A0F931F9300912E0210912F022091B2
:1035C00030023091310260277127822793271F91A3
:1035D0000F910C94A71A0E94030760932A0270931C
:1035E0002B0280932C0290932D020C94A01660E085
:1035F00070E0CB010C94EB1A0F931F9341E050E065
:1036000060E070E08A019B0104C0000F111F221FBF
:10361000331F8A95D2F7C901B8011F910F910C94FD
:10362000EB1A0F931F9341E050E060E070E004C09C
:10363000440F551F661F771F8A95D2F780912A0283
:1036400090912B02A0912C02B0912D028A019B0136
:10365000082B192B2A2B3B2BC901B8011F910F9165
:103660000C94EB1A0F931F9341E050E060E070E080
:1036700004C0440F551F661F771F8A95D2F74095E7
:1036800050956095709580912A0290912B02A0919F
:103690002C02B0912D028A019B01082319232A23B1
:1036A0003B23C901B8011F910F910C94EB1A0F93A2
:1036B0001F9341E050E060E070E004C0440F551FEC
:1036C000661F771F8A95D2F780912A0290912B026C
:1036D000A0912C02B0912D028A019B010827192785
:1036E0002A273B27C901B8011F910F910C94EB1AAF
:1036F0000F931F9300912A0210912B0220912C020C
:1037000030912D02602B712B822B932B1F910F91E7
:103710000C94EB1A0F931F9300912A0210912B0225
:1037200020912C0230912D02602371238223932358
:103730001F910F910C94EB1A0F931F9300912A0283
:1037400010912B0220912C0230912D0260277127BD
:10375000822793271F910F910C94EB1A089524E070
:10376000929F900D1124890FE82FE695E695E69536
:10377000877051E001C0550F8A95EAF785E0E89F10
:10378000F0011124E55EFD4F20E030E070E0408163
:10379000CB01022E02C0969587950A94E2F78170BC
:1037A000819584278523842781932F5F3F4F253080
:1037B000310569F7089524E0929F900D1124890F37
:1037C000682F669566956695982F977085E0689F37
:1037D000B001112440E050E080E0FB01E40FF51F50
:1037E000E55EFD4F208130E0092E02C03695279519
:1037F0000A94E2F721703327042E01C0220F0A94A5
:10380000EAF7822B4F5F5F4F4530510531F708953E
:10381000BF92CF92DF92EF92FF920F931F93CF93BD
:10382000DF938C01C0902A02D0902B02E0902C02F2
:10383000F0902D0280912E0290912F02A0913002E3
:10384000B0913102C82AD92AEA2AFB2ACFE1D0E076
:10385000D701C6010C2E04C0B695A79597958795FC
:103860000A94D2F780FD04C0219790F7B12C07C0CD
:10387000BC2EB8018C2F0E9458080197A9F38B2DFC
:10388000DF91CF911F910F91FF90EF90DF90CF903C
:10389000BF900895CF93DF93EC010E94081CBE01F6
:1038A0000E945808DF91CF9108951F93CF93DF9323
:1038B000EB019091E201992321F0CB010E944A1C77
:1038C00013C0882349F0CB010E94081C182F682FD1
:1038D000CE010E94AF1B04C0CB010E94DB1B182F3E
:1038E000BE01812F0E945808DF91CF911F9108954A
:1038F0008091320285958595859508958091320253
:103900008770089590913202977081E009F480E009
:10391000089580913E02089590913E02892B8093F4
:103920003E020895809590913E02892380933E0245
:10393000089510923E02089590913D02892B809344
:103940003D020895809590913D02892380933D0228
:10395000089510923D02089590913C02892B809326
:103960003C020895809590913C02892380933C020B
:10397000089510923C0208958091330208950895AD
:103980000C94BF1C0C94C01C90913302981721F02A
:10399000809333020C94C21C0895809133028823D3
:1039A00029F01092330280E00C94C21C0895E0913B
:1039B0000001F091010180913E028083E0910001BD
:1039C000F0910101908180913D02892B8083E091EB
:1039D0000001F0910101908180913C02892B80834C
:1039E00080913302882381F0E0910001F091010180
:1039F0009081892B808380910001909101010E9428
:103A0000551E81110E94CD1C8091000190910101F1
:103A10000C94E5110C94BF1C98E0899F900111242F
:103A2000262B209332020E94111B80913202859531
:103A3000859585950C940A1D1092320280E00C94B5
:103A40000A1D209132028095822380933202982FA2
:103A5000977079F430E0482F082E000C550B24178E
:103A6000350739F08595859585950E94321B0C9414
:103A70001C1D08959093AB018093AA010895CF92E5
:103A8000DF92EF92FF926C01EE24FF24C114D10467
:103A9000E104F10421F0C701B60120E101C020E0FA
:103AA000C72ED82EE92EFF24C114D104E104F1045D
:103AB00019F0285FC701B6016B017C0154E0F69450
:103AC000E794D794C7945A95D1F7C114D104E1046F
:103AD000F10419F02C5FC701B6016B017C0142E0D3
:103AE000F694E794D794C7944A95D1F7C114D104BA
:103AF000E104F10419F02E5FC701B601DC01CB012E
:103B0000B695A79597958795892B8A2B8B2B09F0CE
:103B10002F5F822FFF90EF90DF90CF9008958295D6
:103B2000982F937344E0949F900111248C7C869588
:103B30008695282B822F8575880F2A7A2695822BC9
:103B400008956FEF7FEF80E090E00C94263080E0E6
:103B500090E00E94023021E08C3E9E4F09F020E070
:103B6000822F089582E090E00C94FA2F83E090E099
:103B70000C94FA2FCF9384E090E00E94FA2FC82F84
:103B800081E290E00E94FA2F2C2F30E0A901582BFF
:103B9000CA01CF910895CF93C92F682F84E090E098
:103BA0000E9408306C2F81E290E0CF910C94083095
:103BB000AB01BC018FE090E00C941A30AB01BC016A
:103BC00083E190E00C941A3060E070E0CB010C943B
:103BD000DE1D60E070E0CB010E94D81D0C94E41D56
:103BE0006CEE7EEF80E090E00E94263060E082E0A4
:103BF00090E00E94083060E083E090E00E9408308E
:103C000010922E0210922F02109230021092310266
:103C100060E084E090E00E94083060E081E290E0A3
:103C20000E94083060E085E090E00E94083060E08B
:103C300086E090E00E9408306FEF87E090E00E94FD
:103C4000083040E050E0BA0188E090E00E941A306D
:103C500060E08DE090E00E94083040E050E0BA0162
:103C600088E190E00E941A3060E087E190E00E94D5
:103C7000083040E050E0BA018CE190E00E941A3038
:103C800060E080E290E00E94083040E050E0BA013D
:103C900088E190E00E941A300C94E91D0C94F01D0C
:103CA000682F8EE090E00C940830FC01329697E08B
:103CB00080E0915029F021912223D9F38F5FF9CF31
:103CC0000895662349F0FC01329608962191621707
:103CD00029F0E817F907D1F780E0089581E0089509
:103CE0009C01FC0132969FEF80E04191461789F0DC
:103CF0009F3F19F4411101C0982F8F5F8630A9F7BB
:103D00009F3F39F0F901E90FF11D97FDFA956283A4
:103D1000089508959C012A5F3F4FFC01428146139C
:103D200001C01282019682179307B9F708950C9487
:103D3000701E0C948A1E029626E0FC0111922A95B0
:103D4000E9F7089508950C94A21E0C94A21ECF9337
:103D50000E94A51E0E94E40A0E94A31EC0E08C2FB0
:103D60000E94470A811104C0CF5FC430C1F701C06F
:103D700081E0CF9108950C94A21E0C94BB1E0E946A
:103D8000BD1E80916F02843049F11092400220E400
:103D900088E190E00FB6F894A895809360000FBE7C
:103DA0002093600080E00E9430080E94BD1E83B70F
:103DB000817F846083BF83B7816083BF7894889557
:103DC00083B78E7F83BF0FB6F894A895809160006B
:103DD000886180936000109260000FBE08950C947B
:103DE000A21E0E94BA160E94D9110E9430080C949B
:103DF000EF1E1F920F920FB60F9211248F939F9375
:103E0000AF93BF9380914002811113C080916502EE
:103E100090916602A0916702B09168024196A11D3F
:103E2000B11D8093650290936602A0936702B093E0
:103E30006802BF91AF919F918F910F900FBE0F902D
:103E40001F90189582E084BD93E095BD9AEF97BDD1
:103E500080936E0008952FB7F89480916502909139
:103E60006602A0916702B09168022FBF08952FB734
:103E7000F89460916502709166028091670290915A
:103E800068022FBF08959C014FB7F8948091650296
:103E900090916602A0916702B09168024FBF821BA9
:103EA000930B089578941F920F920FB60F921124DE
:103EB0008F939F93AF93BF93809165029091660219
:103EC000A0916702B09168020196A11DB11D809377
:103ED000650290936602A0936702B0936802BF9157
:103EE000AF919F918F910F900FBE0F901F901895DB
:103EF00087E797E790930108809300089AE088E1AC
:103F00000FB6F894A895809360000FBE9093600060
:103F1000FFCF0C94A11D0E94E40A8FE39CE9019756
:103F2000F1F700C000000E94E40A83E00E94470A03
:103F300080FF04C00E94891F0C94781F08950E947E
:103F4000A71D811102C00E944E1E0E94B21D8093C7
:103F50003F020E94BA1D90936A02809369020E94F8
:103F6000B61D682F70E080E090E00E94B31A609167
:103F70002A0270912B0280912C0290912D020C94B8
:103F800003078091470280FF0BC06091070185E025
:103F9000689FB001112475956795759567952BC03D
:103FA00081FF09C06091070185E0689FB00111247D
:103FB0007595679520C082FF07C06091070185E075
:103FC000689FB001112417C0909146029923D1F047
:103FD00060910601961788F72091070185E0289FD8
:103FE00090011124929FA001939F500D112470E025
:103FF000CA010E94AA2F6038710540F4611571054D
:1040000019F406C065E070E0862F08958FE70895E3
:1040100081E008958091470280FF08C0609103010C
:1040200070E0759567957595679521C081FF06C00D
:104030006091030170E07595679519C082FF04C017
:104040006091030170E010C090914502992399F0AE
:10405000609102019617A0F780910301899FC0012A
:10406000112470E00E94AA2F6038710540F4611598
:10407000710519F406C061E070E0862F08958FE79E
:10408000089581E00895803F21F40E94C11F819529
:1040900004C0813F29F40E94C11F80934B02089500
:1040A000823F21F40E94C11F819504C0833F29F4FF
:1040B0000E94C11F80934A020895893F19F40E940B
:1040C0000A2005C08A3F31F40E940A20819580931E
:1040D0004C0208958B3F21F40E940A20819504C070
:1040E0008C3F29F40E940A2080934D020895843F5A
:1040F00021F480914902816017C0853F21F48091AD
:104100004902826011C0863F21F480914902846097
:104110000BC0873F21F480914902886005C0883F29
:1041200031F48091490280618093490208958D3F66
:1041300021F48091470281600BC08E3F21F4809171
:104140004702826005C08F3F29F480914702846056
:10415000809347020895803F39F480914B0287FF96
:104160006AC010924B0267C0813F29F480914B02D4
:104170001816BCF360C090914A02823F29F497FF61
:104180005AC010924A0257C0833F19F41916CCF353
:1041900052C090914C02893F31F419160CF04BC07B
:1041A00010924C0248C08A3F19F497FF44C0F8CFE0
:1041B0008B3F39F480914D0287FF3DC010924D0234
:1041C0003AC08C3F29F480914D021816BCF333C0DD
:1041D000843F21F4809149028E7F17C0853F21F4EE
:1041E000809149028D7F11C0863F21F48091490260
:1041F0008B7F0BC0873F21F480914902877F05C0E8
:10420000883F31F4809149028F7E8093490213C028
:104210008D3F21F4809147028E7F0BC08E3F21F4A9
:10422000809147028D7F05C08F3F29F4809147021E
:104230008B7F8093470280914A02811106C0809152
:104240004B02811102C01092460280914C028111F2
:1042500006C080914D02811102C01092450208955E
:1042600080913F0283FF7EC080E192E00E945A0667
:10427000809149021F928F938BE092E09F938F93DE
:104280000E94F30689E092E00E945A0680914A0259
:10429000282F082E000C330B3F938F9386E092E07B
:1042A0009F938F930E94F30684E092E00E945A0647
:1042B00080914B02282F082E000C330B3F938F93D5
:1042C00081E092E09F938F930E94F3068FEF91E03D
:1042D0000E945A0680914C02282F082E000C330BA6
:1042E0003F938F938CEF91E09F938F930E94F306FF
:1042F0008AEF91E00E945A0680914D02282F082EE5
:10430000000C330B3F938F9387EF91E09F938F9334
:104310000E94F30684EF91E00E945A0680914602C3
:104320001F928F9381EF91E09F938F930E94F306EA
:104330008FEE91E00E945A06809147021F928F9360
:104340008CEE91E09F938F930E94F30689EE91E0AB
:104350000E945A068DB79EB74C960FB6F8949EBF32
:104360000FBE8DBF0E942B1F20914A02211104C055
:1043700020914B02222321F0909344028093430228
:1043800020914C02211104C020914D02222321F0E2
:10439000909342028093410288E492E00C942E12A2
:1043A000EF92FF920F931F93CF93DF9300D000D033
:1043B00000D0CDB7DEB786E0E8E4F2E0DE0111968A
:1043C00001900D928A95E1F7E0904A02F0904B023D
:1043D00000914C0210914D0210924A0210924B0231
:1043E00010924C0210924D02E11003C0FF2009F41C
:1043F0005DC080914302909144020E94431FAC0132
:1044000090914602992339F02091080130E0241759
:10441000350758F04BC0209109018AE0289F900190
:1044200011242417350718F041C09F3F19F09F5FF2
:1044300090934602EE2061F00E94C11F1E1414F0FA
:104440009FEF01C091E0989F902D112490934A0214
:10445000FF2061F00E94C11F1F1414F09FEF01C0E4
:1044600091E0989F902D112490934B0230914A0235
:104470003323E1F020914B022223C1F045EB3403BA
:10448000C0011124992319F090934A0203C081E0DE
:1044900080934A0235EB2303C0011124992319F0BC
:1044A00090934B0203C081E080934B02011103C043
:1044B000112309F45DC080914102909142020E9453
:1044C000431FAC0190914502992339F020910401DA
:1044D00030E02417350758F04BC0209105018AE0E1
:1044E000289F900111242417350718F041C09F3FE1
:1044F00019F09F5F90934502002361F00E940A200B
:10450000101614F09FEF01C091E0989F902D112498
:1045100090934C02112361F00E940A20111614F0AE
:104520009FEF01C091E0989F902D112490934D0230
:1045300030914C023323E1F020914D022223C1F04F
:1045400045EB3403C0011124992319F090934C02D8
:1045500003C081E080934C0235EB2303C00111249A
:10456000992319F090934D0203C081E080934D028E
:1045700080914A0281110BC080914B02811107C0CA
:1045800080914C02811103C080914D0281110E94E3
:104590003021EB82FC820D831E8386E0FE01319682
:1045A000A8E4B2E001900D928A95E1F726960FB645
:1045B000F894DEBF0FBECDBFDF91CF911F910F9159
:1045C000FF90EF900895E8E4F2E086E0DF011D92AD
:1045D0008A95E9F71092460210924502109247021E
:1045E000089583E394E00E945A061F9281E08F931E
:1045F0001F9285E08F9385EE93E09F938F930E94A7
:10460000F3060F900F900F900F900F900F9008955A
:104610008330E9F128F4813061F0823009F10895A6
:10462000853009F462C008F449C0863009F474C0CA
:10463000089580910901262F30E0280F311D2F3F6A
:10464000310524F4680F6093090103C08FEF809354
:104650000901809109011F928F938EE193E072C04E
:1046600080910801262F30E0280F311D2F3F3105A2
:1046700024F4680F6093080103C08FEF8093080152
:10468000809108011F928F938CE093E05BC0809132
:104690000701262F30E0280F311D2F3F310524F46C
:1046A000680F6093070103C08FEF8093070180912B
:1046B00007011F928F9389EF92E044C08091060119
:1046C000262F30E0280F311D2F3F310524F4680FCD
:1046D0006093060103C08FEF80930601809106016D
:1046E0001F928F9384EE92E02DC080910301262FBC
:1046F00030E0280F311D2F3F310524F4680F6093FF
:10470000030103C08FEF80930301809103011F9287
:104710008F938BEC92E016C080910201262F30E03F
:10472000280F311D2F3F310524F4680F60930201DB
:1047300003C08FEF80930201809102011F928F933B
:1047400080EB92E09F938F930E94F3060F900F905F
:104750000F900F900895833081F128F4813059F043
:104760008230D1F00895853009F449C0B8F186301F
:1047700009F456C0089580910901681720F4861B3A
:104780008093090102C010920901809109011F92D2
:104790008F9381EA92E054C080910801681720F459
:1047A000861B8093080102C01092080180910801C5
:1047B0001F928F938FE892E043C0809107016817A2
:1047C00020F4861B8093070102C01092070180919C
:1047D00007011F928F938CE792E032C0809106010F
:1047E000681720F4861B8093060102C01092060110
:1047F000809106011F928F9387E692E021C08091FD
:104800000301681720F4861B8093030102C01092F5
:104810000301809103011F928F938EE492E010C0F8
:1048200080910201681720F4861B8093020102C068
:1048300010920201809102011F928F9383E392E014
:104840009F938F930E94F3060F900F900F900F90FD
:104850000895CF93C82F1F928F9388E395E09F937D
:104860008F930E94F30681E090E0A0E0B0E0BC01ED
:10487000CD0104C0660F771F881F991FCA95D2F714
:104880000E94B31A0F900F900F900F90CF910C943D
:10489000BA16CF93DF938B3109F4EAC108F08BC1CC
:1048A0008B3009F4AEC108F065C1863009F4ACC1A3
:1048B00020F4853009F4BAC15DC2873009F4BDC166
:1048C000883009F057C282E59AE00E945A0683EACE
:1048D00099E00E945A060E94B61D1F928F9380EAAB
:1048E00099E09F938F930E94F3068EE999E00E94CE
:1048F0005A060E94B21DC82F8BE899E00E945A0602
:104900001F92CF9386E899E09F938F930E94F306BE
:1049100084E899E00E945A068AE799E00E945A06C4
:104920008C2F81701F928F9387E799E09F938F93CD
:104930000E94F30685E799E00E945A068BE699E00B
:104940000E945A06C1FB882780F91F928F9388E640
:1049500099E09F938F930E94F30686E699E00E9468
:104960005A068AE599E00E945A06C2FB882780F918
:104970001F928F9387E599E09F938F930E94F30690
:1049800085E599E00E945A068CE499E00E945A0657
:10499000C3FBCC27C0F91F92CF9389E499E09F9382
:1049A0008F930E94F30687E499E00E945A060E94C2
:1049B000BA1DEC0183E399E00E945A06DF93CF937E
:1049C0008EE299E09F938F930E94F3068CE299E028
:1049D0000E945A0683E199E00E945A068C2F81704A
:1049E0001F928F9380E199E09F938F930E94F3062B
:1049F0008DB79EB780960FB6F8949EBF0FBE8DBF41
:104A00008EE099E00E945A0687EF98E00E945A06CD
:104A1000C1FB882780F91F928F9384EF98E09F93C2
:104A20008F930E94F30682EF98E00E945A0680EE70
:104A300098E00E945A068D2F81701F928F938DED02
:104A400098E09F938F930E94F3068BED98E00E946D
:104A50005A0689EC98E00E945A06D695D1701F92AA
:104A6000DF9386EC98E09F938F930E94F30684EC8B
:104A700098E00E945A0682EB98E00E945A06C2FB18
:104A8000882780F91F928F938FEA98E09F938F93E6
:104A90000E94F3068DEA98E00E945A068BE998E09E
:104AA0000E945A06C3FB882780F91F928F9388E9DA
:104AB00098E09F938F930E94F30686E998E00E9406
:104AC0005A068CE898E00E945A06C4FB882780F9B1
:104AD0001F928F9389E898E09F938F930E94F3062B
:104AE00087E898E00E945A0685E798E00E945A06F7
:104AF000C5FB882780F91F928F9382E798E09F93E8
:104B00008F930E94F30680E798E00E945A0684E59E
:104B100098E00E945A06C6FB882780F91F928F935F
:104B200081E598E09F938F930E94F3068DB79EB71F
:104B300080960FB6F8949EBF0FBE8DBF8FE498E0AD
:104B40000E945A0687E498E00E945A06C7FBCC27C9
:104B5000C0F91F92CF9384E498E09F938F930E94B3
:104B6000F30682E498E00E945A060F900F900F908F
:104B70000F9045C0803109F4A5C020F48E3009F4AF
:104B80008BC0F8C0863109F4B8C0893109F0F2C091
:104B900089E696E00E945A068FE296E00E945A0645
:104BA00087E096E00E945A0681ED95E00E945A0641
:104BB00086EA95E084C08A32E1F060F4873209F435
:104BC000D5C028F48E3108F4D5C08D51D0C08932BB
:104BD00069F1D0C0833448F48A3308F0C5C0853306
:104BE00009F4C4C0883369F0C5C0833409F4BEC079
:104BF000C1C081E49AE00E945A060E944E1EC1E0A4
:104C0000BEC08FE996E05BC080913F02817F8E7FBE
:104C100080933F0288E796E00E945A068DE39AE06F
:104C20000E945A0681E080934F02E9CF81E29AE028
:104C30000E945A060E94AF07E2CF80913F02C82F20
:104C4000C095C170C0FB80F980933F02CC2329F04E
:104C500085E19AE00E945A0692C088E09AE00E949C
:104C60005A0680913F02897F877F80933F02C7CF9A
:104C700090913F0291FBCC27C0F981E0C827892F92
:104C8000C0FB81F980933F02CC2319F08BEF99E0B0
:104C900029C08DEE99E013C090913F0292FBCC2782
:104CA000C0F981E0C827892FC0FB82F980933F02B9
:104CB000CC2319F08EED99E015C08EEC99E00E949E
:104CC0005A069DCF90913F0293FBCC27C0F981E01B
:104CD000C827892FC0FB83F980933F02CC2351F072
:104CE00082EC99E00E945A0680913F028160809395
:104CF0003F0245C085EB99E0E2CF88E995E00E944C
:104D00005A060E94D9111F928F938EE795E09F93C8
:104D10008F930E94F306809114011F928F9387E670
:104D200095E09F938F930E94F30680915C021F92FF
:104D30008F9384E595E09F938F930E94F3060E94E2
:104D4000371F9F938F937F936F938DE395E09F938E
:104D50008F930E94F3068DB79EB742960FB6F894D4
:104D60009EBF0FBE8DBF4BCF895301C080E00E9414
:104D7000292445CF83EB99E00E945A06C0E08C2F8E
:104D8000DF91CF91089580E008950C94C3268E5151
:104D90008A3030F4E82FF0E0E057FE4F808108952C
:104DA00080E00895CF93C82F80914F02813059F051
:104DB00020F0823009F445C039C10E94891C82323A
:104DC00009F036C104C00E94891C823261F48C2F24
:104DD0000E94C526811104C08C2F0E9449242FC037
:104DE00081E090E02CC08C2F0E94C326811126C048
:104DF000C431E1F070F4CB3081F0C031D1F40E94C5
:104E0000F12280E395E00E945A0682E080934F02EF
:104E100015C0C93259F0C83361F488E796E00E94A2
:104E20005A0684E395E00E945A0608C010924F0289
:104E300001C18EE295E00E945A06FCC081E08170BB
:104E4000FBC0C43228F5CE3108F0C1C0CB30A1F18F
:104E5000D0F4C73009F0D0C08EE18093090182E31D
:104E6000809308018AE08093070184E18093060122
:104E700088E08093030188E28093020184ED93E04F
:104E80000E945A06BCC0C33149F1C431C1F0B4C05C
:104E9000CB3409F4A6C028F4C93289F0C83361F0D4
:104EA000ABC0C13509F49BC0C23509F496C0CE34FD
:104EB00009F0A2C06AE09BC00E94F122A0C08091CC
:104EC0004E02882319F010924E0299C081EE93E0B1
:104ED0000E945A0681E080934F02AEC08BEB93E0B4
:104EE0000E945A0689EA93E00E945A0680910901BD
:104EF0001F928F9386EA93E09F938F930E94F3060D
:104F000084EA93E00E945A0682E993E00E945A06DE
:104F1000809108011F928F938FE893E09F938F9366
:104F20000E94F3068DE893E00E945A068EE793E014
:104F30000E945A06809107011F928F938BE793E09E
:104F40009F938F930E94F30689E793E00E945A068D
:104F500088E693E00E945A06809106011F928F9383
:104F600085E693E09F938F930E94F30683E693E098
:104F70000E945A068EE493E00E945A068091030133
:104F80001F928F938BE493E09F938F930E94F3067D
:104F900089E493E00E945A0682E393E00E945A0655
:104FA000809102011F928F938FE293E09F938F93E2
:104FB0000E94F3068DE293E00E945A068DB79EB7D9
:104FC00048960FB6F8949EBF0FBE8DBF18C08C2FA9
:104FD0000E94C72680934E0212C061E003C061E0C8
:104FE00006C06AE080914E020E94082308C08091AA
:104FF0004E020E94AB2303C082ED93E013C0809168
:105000004E02882369F01F928F938CEC93E09F935C
:105010008F930E94F3060F900F900F900F9004C093
:1050200089EC93E00E945A0681E006C010924F027C
:1050300080E002C080E003CFCF91089580915B02B1
:1050400008959FB7F894109252029FBF90916F02FB
:10505000943009F057C09091E9009F703091EC00B6
:10506000232F217030FD20E8922B23E02093E900CC
:105070002091EB0020FF43C02091EE0027FF3FC0AE
:1050800020915002222321F02091E80025FF37C013
:105090001092500226E03091E80035FD15C03091A5
:1050A0006F02343061F53091EB0035FD28C021509E
:1050B00021F481E08093500222C0EFE9FFE03197B4
:1050C000F1F700C00000E7CF8093F1008091E80085
:1050D00085FD0AC08091E80080FFFCCF8091E80048
:1050E0008E778093E80006C08FB7F89421E0209374
:1050F00052028FBF9F709093E90080E008959F70E7
:105100009093E9008FEF0895CF93DF9300D01F9223
:10511000CDB7DEB790916F02943019F589837B8308
:105120006A8382E08093E9008FEF9091E8008150DC
:1051300095FD06C095ED9A95F1F700008111F5CF28
:105140008091E80085FF0DC040E050E063E070E032
:10515000CE0101960E94012B8091E8008E7780930A
:10516000E8000F900F900F90DF91CF910895BC0150
:1051700084E00C948428BC0183E00C94842822E011
:105180002093E9002FEF3091E800215035FD06C053
:1051900035ED3A95F1F700002111F5CF2091E800A7
:1051A00025FF0BC040E050E066E070E00E94012B5C
:1051B0008091E8008E778093E8000895CF93DF9385
:1051C00021E02093E9002FEF3091E800215035FDD8
:1051D00006C035ED3A95F1F700002111F5CF209189
:1051E000E80025FF14C0EC0140E050E068E070E00A
:1051F0000E94012B8091E8008E778093E80088E080
:10520000FE01A3E5B2E001900D928A95E1F7DF91EE
:10521000CF91089582E89AE00E945A0680916E022A
:10522000811109C00E94922C0E94EF2C8091E20013
:1052300084608093E20008958EE79AE00E945A0607
:1052400010926E0208958AE79AE00C945A0686E757
:105250009AE00C945A0682E79AE00E945A060C944F
:10526000F11E209151022F5F822F62E30E949E2F38
:10527000992319F0209351020895109251028091C0
:105280005202882371F180916F02843041F5809140
:10529000E9008F702091EC00922F917020FD90E832
:1052A000892B93E09093E9009091EB0090FF14C05C
:1052B0009091EE0097FF10C09091E80095FF03C019
:1052C0001092F100F9CF9091E80090FF05C0909105
:1052D000E8009E779093E8008F708093E900109229
:1052E0005202089542E061EC81E00E940B2C42E200
:1052F00061EC82E00E940B2C42E261EC83E00C94B2
:105300000B2C80917102833009F460C030F481303D
:1053100071F0823009F499C008958A3009F485C08B
:105320008B3009F46BC0893009F0A7C020C0809190
:105330007002813A09F0A1C08091E800877F8093D4
:10534000E8008091740290917502892B21F468E045
:1053500083E592E003C060E080E090E070E00E94AE
:105360004C2B8091E8008B778093E8000895809122
:105370007002813209F081C08091740290917502AF
:10538000029708F07AC08091E800877F8093E80058
:105390008091E80082FD05C080916F028111F8CFF5
:1053A0006CC02091F3008091F20090E0922B029764
:1053B00029F48091F1008B7F813021F48091F100FC
:1053C00080935B028091E8008B7753C080917002DC
:1053D000813A09F052C08091740290917502892B34
:1053E00009F04BC08091E800877F8093E8008091AE
:1053F000E80080FFFCCF8091140136C080917002DC
:105400008132D9F58091740290917502892BA9F5AA
:105410008091E800877F8093E8000E94402C809173
:105420007202809314010C94BA168091700281323A
:1054300021F58091E800877F8093E8000E94402C4E
:105440008091730280935C02089580917002813A8A
:10545000A1F48091E800877F8093E8008091E800C4
:1054600080FFFCCF80915C028093F1008091E80086
:105470008E778093E8000C94402C089584B7877F42
:1054800084BF0FB6F894A8958091600088618093DE
:105490006000109260000FBE90E080E80FB6F894B4
:1054A00080936100909361000FBE0E947E120E9463
:1054B000922C0E94EF2C8091E20084608093E200A5
:1054C00081E298E20E943A1D78940E94832F0E9404
:1054D00084128AE091E00E94D41181E69AE00E9451
:1054E0005A0680916F02853089F48DE59AE00E941A
:1054F0005A060E94BF1E80916D02882391F30E947C
:10550000A71E882371F30E94EB2AEBCF0E94B612EC
:105510000E9474120E947312E4CF0C948F2A292FD8
:10552000332723303105C9F060F42130310581F093
:105530002230310509F047C08BE590E02AEB3AE0D4
:1055400046C02132310511F12232310561F13BC0F3
:1055500082E190E025E13BE03AC099278130910556
:1055600061F040F08230910559F0039761F5E6E86B
:10557000FAE008C0E6EBFAE005C0EEE9FAE002C0A6
:10558000ECE8FAE0849190E09F0121C0633071055E
:10559000D0F4660F771FFB01ED55FE4F208131815E
:1055A00089E090E014C06330710568F4FB01EE0FF0
:1055B000FF1FE356FE4F20813181FB01E656FE4F6F
:1055C000808190E004C080E090E020E030E0FA01CB
:1055D00031832083089580E189BD82E189BD09B4CA
:1055E00000FEFDCF8091D8008F7D8093D800809100
:1055F000E00082608093E0008091E00081FDFCCFBC
:105600000895CF92DF92EF92FF920F931F93CF9363
:10561000DF93EC018B017A010E945F2C811133C072
:10562000E114F10439F0F70180819181081B190B15
:10563000C80FD91FC12CD12C0115110519F180916A
:10564000E80085FD16C08091E8008E778093E80021
:10565000E114F10449F0F70180819181C80ED91E4F
:10566000D182C08285E00FC00E945F2C882321F385
:105670000AC089918093F10001501109FFEFCF1A00
:10568000DF0ADACF80E0DF91CF911F910F91FF9079
:10569000EF90DF90CF9008952091760230917702BD
:1056A0002617370748F06115710539F42091E80095
:1056B0002E772093E80001C0B901FC0120E06115BC
:1056C000710579F180916F028823F1F18530F1F154
:1056D0008091E80083FD3CC08091E80082FD2EC0EF
:1056E0008091E80080FFEBCF2091F3008091F200E1
:1056F00090E0922B6115710551F08830910538F4D6
:1057000021912093F100615071090196F3CF21E0BE
:10571000089709F020E08091E8008E778093E800F8
:10572000CECF2111CFCF0AC080916F02882361F0C4
:10573000853061F08091E80083FD0AC08091E80027
:1057400082FFF2CF80E0089582E0089583E008951B
:1057500081E008952091760230917702261737076D
:1057600048F06115710539F42091E8002E772093F7
:10577000E80001C0B901FC0120E06115710591F15B
:1057800080916F02882309F440C0853009F43FC03E
:105790008091E80083FD3DC08091E80082FD2FC02C
:1057A0008091E80080FFE9CF2091F3008091F20022
:1057B00090E0922B6115710559F08830910540F405
:1057C00024912093F1003196615071090196F2CF36
:1057D00021E0089709F020E08091E8008E7780931F
:1057E000E800CBCF2111CCCF0AC080916F02882373
:1057F00061F0853061F08091E80083FD0AC08091FE
:10580000E80082FFF2CF80E0089582E0089583E00F
:10581000089581E00895982F973068F59093E900F6
:10582000981739F07091EC002091ED005091F00044
:1058300003C0242F762F50E021FD02C09F5FECCFE4
:105840003091EB003E7F3093EB003091ED003D7FD7
:105850003093ED003091EB0031603093EB007093AA
:10586000EC002093ED005093F0002091EE0027FD16
:10587000E5CF80E008958F708093E90081E008957E
:105880008091700287FF11C08091E80082FD05C001
:1058900080916F028111F8CF11C08091E8008B7761
:1058A0000BC080916F02882349F08091E80080FF4F
:1058B000F8CF8091E8008E778093E80008952091DA
:1058C000E4003091E50095E64091EC00842F817072
:1058D00040FF23C08091E80080FD1DC080916F02D1
:1058E000882399F0853099F08091EB0085FD11C0F7
:1058F0004091E4005091E5002417350729F39150B9
:1059000011F09A01E1CF84E0089582E0089583E0E8
:10591000089581E0089580E008954091E80042FFF5
:10592000DDCF08950E94002D0E94082DE0EEF0E0EA
:10593000808181608083E8EDF0E080818F778083D3
:1059400019BCA7EDB0E08C918E7F8C9380818F7E07
:10595000808310926E0208950F931F93CF93DF936D
:105960000E94002D0E94082DC8EDD0E088818F771D
:10597000888388818068888388818F7D888319BC2B
:1059800010926F0210926B0210926D0210926C02D4
:1059900000EE10E0F80180818B7F80838881816038
:1059A000888342E060E080E00E940B2CE1EEF0E0B2
:1059B00080818E7F8083E2EEF0E080818160808351
:1059C000808188608083F80180818E7F80838881D8
:1059D00080618883DF91CF911F910F910895E8ED49
:1059E000F0E080818F7E8083E7EDF0E08081816050
:1059F000808384E082BF81E080936E020C94AC2CA3
:105A0000E8EDF0E080818E7F80831092E2000895BF
:105A10001092DA001092E10008951F920F920FB6D3
:105A20000F9211242F933F934F935F936F937F9324
:105A30008F939F93AF93BF93EF93FF938091E10078
:105A400082FF0BC08091E20082FF07C08091E100DD
:105A50008B7F8093E1000E9431298091DA0080FFE2
:105A60001FC08091D80080FF1BC08091DA008E7F1C
:105A70008093DA008091D90080FF0DC080E189BD5C
:105A800082E189BD09B400FEFDCF81E080936F0201
:105A90000E940A2905C019BC10926F020E941C299D
:105AA0008091E10080FF19C08091E20080FF15C065
:105AB0008091E2008E7F8093E2008091E20080611D
:105AC0008093E2008091D80080628093D80019BC56
:105AD00085E080936F020E9427298091E10084FF76
