:100000000C944E060C9495060C9495060C9495064B
:100010000C9495060C9495060C9495060C949506F4
:100020000C9495060C9495060C94BB300C948F316F
:100030000C9431220C9495060C9495060C9495061C
:100040000C9495060C9495060C9495060C949506C4
:100050000C9495060C9488220C9495060C949506A5
:100060000C9495060C9495060C9495060C949506A4
:100070000C9495060C9495060C9495060C94950694
:100080000C9495060C9495060C9495060C94950684
:100090000C9495060C9495060C9495060C94950674
:1000A0000C9495060C9495060C94950600005F0040
:1000B00060006100290000005C005D005E002A0015
:1000C000000059005A005B005300AE000158620066
:1000D000630058000000010001000100570000000B
:1000E00001000100010056000000010001000100B4
:1000F000540002510100010067005500000001009A
:1001000001000100005C000001000100010001008D
:1001100000000100010001000100010001000100D8
:100120000100010044454255473A20646973616209
:100130006C65642E0A0044454255473A20656E615D
:10014000626C65642E0A0000000000000000002AB6
:100150002B2800000000000000000000000000004C
:10016000000029000000002C1E3420212224342607
:1001700027252E362D3738271E1F20212223242500
:10018000263333362E37381F0405060708090A0BB5
:100190000C0D0E0F101112131415161718191A1B27
:1001A0001C1D2F3130232D350405060708090A0BC5
:1001B0000C0D0E0F101112131415161718191A1B07
:1001C0001C1D2F3130354C000000000000000000E5
:1001D00000000000000000000000007E0F00D4FFBF
:1001E000FFFFC7000000780A0025303862003A207F
:1001F0000025303258000A722F63203031323334F8
:100200003536370A000A002530325820006B6579F0
:10021000626F6172645F7265706F72743A20000A77
:100220000025303258006B6579626F6172645F73CC
:1002300065745F6C65643A2000290A002575002FFB
:10024000002575005D28002564002000256400203D
:100250000025640020002564007C00253032580011
:100260006D6F7573656B6579205B62746E7C782049
:1002700079207620685D287265702F61636C293A59
:10028000205B006D6B5F776865656C5F74696D6599
:100290005F746F5F6D6178203D2025640A006D6B8F
:1002A0005F776865656C5F6D61785F7370656564C5
:1002B000203D2025640A006D6B5F74696D655F7475
:1002C0006F5F6D6178203D2025640A006D6B5F6D66
:1002D00061785F7370656564203D2025640A006D58
:1002E0006B5F696E74657276616C203D2025640ACF
:1002F000006D6B5F64656C6179203D2025640A00A8
:100300006D6B5F776865656C5F74696D655F746F51
:100310005F6D6178203D2025640A006D6B5F776812
:1003200065656C5F6D61785F7370656564203D2005
:1003300025640A006D6B5F74696D655F746F5F6D36
:100340006178203D2025640A006D6B5F6D61785FE8
:100350007370656564203D2025640A006D6B5F69DC
:100360006E74657276616C203D2025640A006D6BA9
:100370005F64656C6179203D2025640A000A0025D0
:100380007500363A20776865656C5F74696D655FE6
:10039000746F5F6D61783A20000A00257500353A68
:1003A00020776865656C5F6D61785F737065656403
:1003B0003A20000A00257500343A2074696D655FA3
:1003C000746F5F6D61783A20000A00257500333A3A
:1003D000206D61785F73706565643A20000A0025BE
:1003E0007500323A20696E74657276616C286D739F
:1003F000293A20000A00257500313A2064656C61B5
:1004000079282A31306D73293A20000A092D2056A7
:10041000616C756573202D0A004D3E004D25643ECC
:1004200020003F007365742064656661756C740A12
:1004300000433E200077686572652064656C7461D6
:100440003A20637572736F723D25642C207768655E
:10045000656C3D25640A53656520687474703A2F95
:100460002F656E2E77696B6970656469612E6F7296
:10047000672F77696B692F4D6F7573655F6B657952
:10048000730A000A092D204D6F7573656B6579201D
:100490002D0A4553432F713A09717569740A313A2F
:1004A0000964656C6179282A31306D73290A323A02
:1004B00009696E74657276616C286D73290A333A26
:1004C000096D61785F73706565640A343A0974690F
:1004D0006D655F746F5F6D61780A353A097768659D
:1004E000656C5F6D61785F73706565640A363A09A3
:1004F000776865656C5F74696D655F746F5F6D616A
:10050000780A0A703A097072696E742076616C75A7
:1005100065730A643A097365742064656661756C75
:1005200074730A75703A092B310A646F776E3A0951
:100530002D310A706775703A092B31300A70676483
:100540006F776E3A092D31300A0A73706565642041
:100550003D2064656C7461202A206D61785F737042
:10056000656564202A2028726570656174202F20DB
:1005700074696D655F746F5F6D6178290A003F0073
:100580004D3E2000433E20004C25640A0074696DF6
:1005900065725F72656164333228293A20253034F0
:1005A0006C580A006B6579626F6172645F69646C94
:1005B000653A2025580A006B6579626F6172645F45
:1005C00070726F746F636F6C3A2025580A00686F01
:1005D00073745F6B6579626F6172645F6C6564737D
:1005E00028293A2025580A000A092D2053746174DD
:1005F0007573202D0A004743433A20382E342E309D
:10060000204156522D4C4942433A20322E302E3052
:10061000204156525F415243483A20617672350A72
:10062000004F5054494F4E533A204C554641204DAF
:100630004F5553454B45592045585452414B455908
:1006400020434F4E534F4C4520434F4D4D414E4458
:1006500020343039360A004255494C443A20223081
:100660002E31322E302D6469727479222028323076
:100670003A34373A30352044656320203820323010
:100680003230290A005649443A20307844454146E0
:1006900028696D63686970776F6F642920504944D9
:1006A0003A203078303931332864756D6270616476
:1006B00029205645523A203078303030310A000A2D
:1006C000092D2056657273696F6E202D0A000A0984
:1006D0002D20436F6E736F6C65202D0A4553432F99
:1006E000713A09717569740A6D3A096D6F757365B0
:1006F0006B65790A000A092D204D61676963202D19
:100700000A443A094465627567204D6573736167F1
:100710006520546F67676C650A583A094D617472B9
:100720006978204465627567204D6F646520546F59
:1007300067676C65202D2053686F77206B65797033
:1007400072657373657320696E206D617472697868
:1007500020677269640A4B3A094B6579626F61726E
:100760006420446562756720546F67676C65202D4F
:100770002053686F77206B65797072657373207290
:1007800065706F72740A4D3A094465627567204D51
:100790006F75736520546F67676C650A563A095622
:1007A000657273696F6E0A533A0953746174757395
:1007B0000A433A09416374697661746520436F6E38
:1007C000736F6C65204D6F64650A46312D4631307C
:1007D0003A0953776974636820746F204C617965B6
:1007E0007220302D392028463130203D204C3029D0
:1007F0000A302D393A0953776974636820746F2081
:100800004C6179657220302D390A47524156453A7C
:100810000953776974636820746F204C617965723D
:1008200020302028616C7465726E617465290A42FB
:100830003A094A756D7020746F20426F6F746C6F47
:10084000616465720A4553433A094A756D702074B4
:100850006F20426F6F746C6F616465722028616CE9
:100860007465726E617465290A453A095072696E41
:100870007420454550524F4D2053657474696E671E
:10088000730A4253504143453A09436C65617220F3
:10089000454550524F4D0A000A002575002E6E6BDB
:1008A000726F3A20000A002575002E737761705F21
:1008B0006261636B736C6173685F6261636B7370B9
:1008C0006163653A20000A002575002E7377617018
:1008D0005F67726176655F6573633A20000A002581
:1008E00075002E6E6F5F6775693A20000A002575E6
:1008F000002E737761705F72616C745F72677569E7
:100900003A20000A002575002E737761705F6C61D4
:100910006C745F6C6775693A20000A002575002EBB
:10092000737761705F7263746C5F726775693A2088
:10093000000A002575002E737761705F6C63746C1C
:100940005F6C6775693A20000A002575002E6361A7
:1009500070736C6F636B5F746F5F636F6E74726FD5
:100960006C3A20000A002575002E737761705F6372
:100970006F6E74726F6C5F636170736C6F636B3AF0
:1009800020000A0025303258006B65796D61705F78
:10099000636F6E6669672E7261773A20000A0025E0
:1009A00075002E6D6F7573653A20000A002575007D
:1009B0002E6B6579626F6172643A20000A002575BA
:1009C000002E6D61747269783A20000A0025750066
:1009D0002E656E61626C653A20000A00253032583F
:1009E0000064656275675F636F6E6669672E72612A
:1009F000773A20000A0025750064656661756C749D
:100A00005F6C617965723A20003F000A6D6F757303
:100A1000653A206F66660A000A6D6F7573653A2045
:100A20006F6E0A000A6B6579626F6172643A206FBB
:100A300066660A000A6B6579626F6172643A206FBC
:100A40006E0A000A6D61747269783A206F66660AF0
:100A5000000A6D61747269783A206F6E0A000A6448
:100A6000656275673A206F66660A000A646562759A
:100A7000673A206F6E0A000A0A4A756D70696E67E0
:100A800020746F20626F6F746C6F616465722E2EBC
:100A90002E2000433E2000436C656172696E672022
:100AA000454550524F4D0A006565636F6E66696734
:100AB0003A0A005B735D004B6579626F6172642076
:100AC00073746172742E0A005B575D005B535D00A6
:100AD0005B525D005B445D005B435D00100364009E
:100AE00075006D0062007000610064000000160374
:100AF00069006D00630068006900700077006F0096
:100B00006F00640000000403090409027B00040173
:100B100000A0FA09040000010301010009211101EC
:100B200000012240000705810308000A09040100B2
:100B30000203000000092111010001222200070523
:100B400082032000010705030320000109040200BD
:100B500001030000000921110100012281000705A5
:100B6000840320000A090403000203000000092195
:100B7000110100012222000705850320000107055D
:100B800005032000011201100100000008AFDE1370
:100B9000090100010200010631FF0974A101097574
:100BA000150026FF0095207508810209761500269C
:100BB000FF00952075089102C00660FF0961A10140
:100BC0000962150026FF009520750881020963154A
:100BD0000026FF00952075089102C005010902A1B9
:100BE0000185020901A10005091901290515002542
:100BF00001950575018102950175038101050109C2
:100C00003009311581257F9502750881060938154F
:100C100081257F950175088106050C0A380215812A
:100C2000257F950175088106C0C005010980A101D5
:100C3000850319012AB700150126B7009501751023
:100C40008100C0050C0901A101850419012AA00237
:100C5000150126A002950175108100C00501090645
:100C6000A101050719E029E715002501950875017F
:100C700081029501750881010507190029FF1500FA
:100C800026FF0095067508810005081901290595BC
:100C90000575019102950175039101C011241FBED4
:100CA000CFEFDAE0DEBFCDBF04B603FE27C08091F0
:100CB0007C0290917D02A0917E02B0917F028730EC
:100CC000904BA740B04BD1F410927C0210927D0261
:100CD00010927E0210927F0214BE84B7877F84BF79
:100CE0000FB6F894A89580916000886180936000A9
:100CF000109260000FBEE0E0F8E3099511E0A0E07B
:100D0000B1E0E4E4F8E602C005900D92AE3AB10716
:100D1000D9F722E0AEEAB1E001C01D92AC37B207CC
:100D2000E1F70E94752D0C94E5330C940000FF93BD
:100D3000EF93E091AE01F091AF01309709F0099582
:100D4000EF91FF910895FC018591803011F0EFDF64
:100D5000FBCF0895FF27E0E230E247FF0CC041954A
:100D600097FF09C0EDE26095709580959095611DA3
:100D7000711D811D911D27FF02C0219530E350E2B6
:100D8000AA27660F771F881F991FAA1FA41710F0A4
:100D9000A41B63955A95A9F7AA3008F0A95FA05D36
:100DA000AF93F395611571058105910541F7ED321A
:100DB00011F4EF93F395F21718F43F93F395FBCFEB
:100DC0008F91B5DFFA95E1F70895E991F991859151
:100DD000803021F0853219F0AADFF9CF089520E0A4
:100DE000E89455915532C1F3503311F468945591FC
:100DF0005A3348F4505390F3220F022E220F220F41
:100E0000200D250FF4CF0EF4219589919991533639
:100E100019F3533729F1533559F1BC018827992724
:100E2000E8945C3621F489919991689455915436EF
:100E300039F446EF7EF077FF0DC08FEF9FEF0AC0C9
:100E400055374AE039F0583540E121F0523642E05A
:100E500009F00895FF93EF937DDFEF91FF91B7CFF6
:100E6000FF93EF93FC0181918030B9F360DFFBCFFA
:100E7000FF93EF9368DFF1CFDF93CF93CDB7DEB76A
:100E80002596A3DFCF91DF910895239A219A0C94A0
:100E90001B162B9829980895CF92DF92EF92FF921C
:100EA0006B017C010E94742080FF0CC02B9A81FF93
:100EB0000BC0299AC701B601FF90EF90DF90CF9049
:100EC0000C94101E2B98F3CF2998F4CF82E090E079
:100ED0002B9A29982FEF31EE44E0215030404040CA
:100EE000E1F700C000002B9A299A2FEF31EE44E081
:100EF000215030404040E1F700C000002B98299A73
:100F00002FEF31EE44E0215030404040E1F700C087
:100F100000002B9829982FEF31EE44E0215030400B
:100F20004040E1F700C00000019711F40C94A407C1
:100F300081E090E0CDCF0C94A5070C94A1070C9410
:100F4000A60781E008950895089508950895CF9320
:100F5000C62F811121C060912E0270912F028091C5
:100F60003002909131020E947420813059F0882320
:100F700011F0823061F089EAC11101C08AEACF9193
:100F80000C94AE178BEAC111FACF8CEAF8CF8DEB37
:100F9000C111F5CF8EEBF3CFCF91089581E0089585
:100FA00008950C94D0071F93CF93DF9300D000D007
:100FB0000F92CDB7DEB749835A836B833091E60138
:100FC00089819A8131111DC06623B9F02223A9F0CD
:100FD0000E942B1F182F682F89819A810E94D41E8E
:100FE00069817A81812F0F900F900F900F900F9051
:100FF000DF91CF911F910C947D0F0E94021F182F3B
:10100000EFCF0E942B1F69817A81EDCFFC01262F43
:10101000408151816281738184810C94D307CF9385
:10102000DF93EC0160E00E940608BE01DF91CF91E2
:101030000C94D107FF920F931F93CF93DF93E82F68
:10104000F0E0E95BFE4FF490C82FC695C695C695B3
:10105000D0E0FE01E952FE4F0491877010E0082EA7
:1010600002C0159507950A94E2F701701127C9533C
:10107000DE4FFE01C491D0E002C0D595C7958A9598
:10108000E2F7C170DD270115110519F081EE0E940C
:101090002C17209719F086EE0E942C178F2D0E9496
:1010A000AE17CD2B19F086EE0E947F17012B41F071
:1010B00081EEDF91CF911F910F91FF900C947F17DC
:1010C000DF91CF911F910F91FF900895EF92FF92C2
:1010D0000F931F93CF93DF93EC01162F0AE08881C3
:1010E000882309F454C0813009F04EC089818130D1
:1010F00099F47E0122E0E20EF11C8A810E94AE1773
:10110000E7012196812F815050F3EFE9FFE03197FD
:10111000F1F700C00000F7CF823041F47E0182E099
:10112000E80EF11C8A810E942C17EACF833041F42B
:101130007E01E2E0EE0EF11C8A810E947F17E0CF73
:10114000843011F02196DDCF2A81229690E080E054
:10115000AE014F5F5F4F2053330B2A30310548F00B
:10116000019778F2EFE9FFE03197F1F700C0000056
:10117000F7CF089FB001099F700D1124C901860F98
:10118000971F2981EA01E4CF0E941A08BACFDF91A4
:10119000CF911F910F91FF90EF90089560E00C9414
:1011A00066088F929F92AF92BF92CF92DF92EF929A
:1011B000FF920F931F936B017C0181E090E0A0E010
:1011C000B0E04C015D0104C0880C991CAA1CBB1C3A
:1011D0004A95D2F7B501A4014C015D0104C0880C09
:1011E000991CAA1CBB1C2A95D2F7482959296A299F
:1011F0007B2904C0880F991FAA1FBB1F0A95D2F72D
:101200008A019B010C211D212E213F210417150766
:101210002607370789F48C299D29AE29BF29BC01EF
:10122000CD011F910F91FF90EF90DF90CF90BF9075
:10123000AF909F908F90089580959095A095B095D0
:101240008C219D21AE21BF21EACF0F93382F262F6D
:1012500060912E0270912F028091300290913102A4
:10126000042F432F0E94D1080F910C94121E0E944C
:10127000BF220E94DF20811102C00E9483210C94B2
:1012800066070C949B070E943D1A0E9449072FEFA6
:1012900084E39CE0215080409040E1F700C00000D2
:1012A0000C94AC220F931F93CF93DF9300D0CDB754
:1012B000DEB78C0161E00E9406089A838983B80139
:1012C000CE0101960E947212811108C080E00F9039
:1012D0000F90DF91CF911F910F910895B8018981EF
:1012E0009A810E94B60D882389F3B80189819A8179
:1012F0000E949D07882351F3B80189819A810E9439
:10130000D310882319F3B80189819A810E9425118D
:101310008823E1F2B80189819A810E9448128823CA
:10132000A9F2F8018281882329F189819A8181308B
:10133000FCE59F0751F0803E2CE59207C1F0811536
:101340009C45C1F40E944309C1CF90914302892F6B
:101350008E7F90FF81608093430280FF05C086E30B
:1013600091E00E94A306B2CF84E291E0FACF0E94FE
:101370008321ACCFC8010E94CE07A9CF81E0089598
:101380000C94BE09CF93C82F0E949F078C2FCF913A
:101390000C94C00990E080E008950895FC01EE0FE0
:1013A000FF1FE951FE4F859194910895CF93DF93EC
:1013B0000E947D0F0E94EB0AEC01811520E5920747
:1013C00008F042C0811530E4930708F0BDC0883EA4
:1013D000910528F5803E910508F09DC0883A910559
:1013E00088F4853A910508F08FC08130910509F4A1
:1013F00092C0009709F48FC0049708F08CC0D0E029
:10140000C0E089C08F3B910508F489C0805C9109D8
:10141000C03CD105A0F30E94CE09EC017CC081152F
:10142000904250F4C11581E0D80708F074C0C03F65
:10143000D10528F3D0656FC0C11590E3D90708F036
:1014400079C0CE019F70E7CF811525E5920758F549
:10145000811534E5930708F0A6C0811542E594078D
:1014600050F4C11581E5D80708F471C0DC2FCC27F2
:10147000C16FD06A50C0982F969596959E012370A3
:101480003327C115D34508F07FC0C1E0D0E002C0CA
:10149000CC0FDD1F2A95E2F720E2929FC0011124B4
:1014A000C82BD92B6FC0C11589E5D807A8F4C11581
:1014B00098E5D90708F07CC0C11526E5D20708F0E9
:1014C0009ECF8C2F0E94820BC82FD0E0DC2FCC2720
:1014D000CC27DF71D0621FC0C1153AE5D30708F4ED
:1014E0006CC0CE0190568115904208F088CF8D2FA8
:1014F0008F710E94820B90E0982F882788279F7118
:101500009C012C2BE901E6CFC55AD0E0CD5BDE4F24
:10151000C881D0E0D064CE01DF91CF910895C85A40
:10152000D0E0CC0FDD1FCB5EDE4F0990D881C02DFF
:10153000D464F1CFCE019927D3FF03C0EC01D86C5E
:10154000EACFEC01D06CE7CFDF70D06AE4CFCE01F8
:10155000E4E096958795EA95E1F783702C2F269520
:101560002695237090E2299F90011124382B8C2F0F
:101570008370C1E0D0E002C0CC0FDD1F8A95E2F796
:10158000C22BD32BDC68C7CFC1E0D0E002C0CC0FA8
:10159000DD1F2A95E2F730E2939FC0011124C82B8A
:1015A000D92BDA68B8CFD82FCC27C46FD06AB3CF85
:1015B000DC2FCC27C06FD06AAECF8C2F8F700E94EB
:1015C000820B34E0D695C7953A95E1F7CF709C2F02
:1015D000EC01D069A0CF82389105B1F1B0F481332C
:1015E000910509F475C048F48932910509F469C080
:1015F0008A32910509F473C008958533910509F481
:1016000059C08933910501F10895833E9105A9F1EF
:1016100038F4803E9105F9F0823E910549F1089534
:10162000863E9105A9F1873E9105C9F1843E910559
:1016300019F520916E0221FF1FC080916D0284FD7B
:1016400014C087EE90E0089520916D022370A1F000
:1016500080EE90E0089520916D0220FD47C030910A
:101660006E0230FF09C024FF44C090E080E004C057
:1016700020916D0222FDF7CF089520916D0222FD89
:101680003BC030916E0230FDE3CF24FFF5CFEDCFAC
:1016900020916D0223FFF0CF24FDE7CFD2CF209120
:1016A0006D0223FD2CC030916E0231FFEECF84EE2F
:1016B00090E0089520916D0225FFDECF89E290E051
:1016C000089520916D0225FFD7CF85E390E008951E
:1016D00020916D0226FFD0CF8AE290E008952091FC
:1016E0006D0226FFC9CF81E390E0089589E390E081
:1016F000089583EE90E0089582EE90E0089586EEDE
:1017000090E0089590916D0292FF06C0282F2871F5
:101710002830F9F4877F846093FF06C0282F287152
:101720002831F1F4877E846120916E0220FF06C08B
:10173000382F38713830D9F4877F816021FF06C097
:10174000282F28712831D1F4877E816194FD877E0E
:101750000895282F24712430F9F68B7F8860DCCF20
:10176000282F2471243101F78B7E8861DDCF382F3B
:101770003171313019F78E7F8860E0CF282F2171C9
:10178000213121F78E7E8861E1CFE82FF0E0EB591F
:10179000FD4F80810895CF92DF92EF92FF920F93D9
:1017A0001F93CF93DF9386EF91E00E94A30685E617
:1017B000E82E82E0F82ED0E0C0E091EFC92E91E053
:1017C000D92E09EE11E0DF93CF93DF92CF920E94E2
:1017D0003C078EEE91E00E94A306F70181917F0104
:1017E0000E94C1201F928F931F930F930E943C076A
:1017F00087EE91E00E94A30621968DB79EB70896CA
:101800000FB6F8949EBF0FBE8DBFC430D105D9F678
:10181000DF91CF911F910F91FF90EF90DF90CF90CC
:10182000089580EA8A95F1F70895F894E82FE295F3
:10183000EF70F0E031A1282F2F7081E090E001C01F
:10184000880F2A95EAF7982F9095932391A392A158
:10185000892B82A37894089584EF0E94150C85EF5C
:101860000E94150C86EF0E94150C87EF0E94150C44
:1018700086E60E94150C87E90E94150C86EC0E94F2
:10188000150C84E30E94150C85E30E94150CA1E65B
:10189000B2E01C92E5E6F2E0108211961C921197DC
:1018A000118212961C921297128213961C92138226
:1018B00084E00E94D20C0C943709CF92DF92EF9211
:1018C000FF920F931F93CF93DF93CBE4D1E001E618
:1018D00012E0D12CEE24E394F12C8991F894E82FB6
:1018E000E295EF70F0E021A18F70A70102C0440FD4
:1018F000551F8A95E2F7CA01922F982B91A392A1C6
:101900008095892382A378940E94110CE6E4F1E08B
:1019100030E020E0C12C4191A42FA295AF70B0E03F
:1019200090968C9190E04F7002C0959587954A955E
:10193000E2F780FD33C08E2D022E01C0880F0A947D
:10194000EAF7C82A2F5F3F4F2530310521F7FE0106
:10195000319780810E94150CF8018081C81601F131
:10196000C08281E0D82A0F5F1F4FF1E0CF34DF073C
:1019700009F0B3CF2D2D44E065E672E081E692E0F8
:101980000E94D30C0E9441098D2DDF91CF911F91B0
:101990000F91FF90EF90DF90CF90089580E0D1CF2E
:1019A00080E0E0CF0895FF920F931F93CF93DF93D2
:1019B000F82E092F162FD72FC42F222349F081E0AC
:1019C0008093B2010E9461229093B1018093B00193
:1019D0008091B2018823A1F08091B0019091B10172
:1019E0000E947922069760F0EF2DF02FA12FBD2FD6
:1019F000CE0FDF2FD11DEC17FD0741F41092B2017D
:101A0000DF91CF911F910F91FF90089581918D9358
:101A1000F2CF0C94A70754985C9A22982A9A89B11D
:101A2000829581701A9905C090E0892B8093B50149
:101A3000089592E0FACFE091B501EE0FEE0FE0933A
:101A4000B50149B144FB882780F943B142FB222705
:101A500020F942FF02C022E030E0822BE82BE09325
:101A6000B501EF70F0E0E15BFE4F80819091B40131
:101A7000890F8093B40184304CF08091B3018F5F63
:101A80008093B30160E080E00E94090D8091B40171
:101A90008D3F4CF48091B30181508093B30161E09C
:101AA00080E00E94090D8091B401082E000C990B72
:101AB00064E070E00E944C338093B401089582E2A8
:101AC00090E00E94A333803289F483E290E00E9488
:101AD000A333823159F484E290E00E94A33391E071
:101AE000883009F090E0892F8170089580E0FCCF64
:101AF000CF93C82F6FEF811160E282E290E00E94E5
:101B0000B1336FEFC11162E183E290E00E94B13323
:101B10006FEFC11168E084E290E0CF910C94B13393
:101B200080E00E94780D0C94D920089585E290E021
:101B30000E94A333682F70E090E080E0089585E272
:101B400090E00C94B1330E94950D0E945F0D8111BD
:101B50000CC060E070E0CB010E949F0D0E94F70E68
:101B60000E94E10F81E00C94780D0895CF93FB0162
:101B7000C281CC2309F19C0122513F45203131051E
:101B800020F582510E94F10FC0E08C2FCF91089573
:101B900081E00E94381E43E062E081E00E94250956
:101BA000F3CF81E00E94591E43E062E081E00E9491
:101BB0002509EBCF82E0F6CF8031FFE59F0789F35F
:101BC00081319F45B9F3C1E0E0CF8031EFE59E0759
:101BD000F9F281319F45C9F682E0DBCF2FEFFC019E
:101BE00020830895EF92FF920F931F93CF93DF937B
:101BF000EC01062FE881E150E33108F05EC0F0E02F
:101C0000E951FC4C0C946033198289E08A83602F7F
:101C1000CE01DF91CF911F910F91FF90EF900C9427
:101C2000112C8981823069F0833071F08130D9F4D0
:101C30000E946D220E9466336A837B838C839D831E
:101C4000E6CF0E94960DF6CF7E0122E0E20EF11C57
:101C500010E0812F0E94C50BF70181937F011F5F68
:101C60001430B9F7D4CF602FCE010E94EE0DCFCF44
:101C700089818230C1F76A817B818C819D810E943C
:101C800066330E949F0DC3CF4B816A8189810E9478
:101C9000C90E9827892798279D838C83B8CF2C81DC
:101CA0003D813227232732274B816A8189810E9417
:101CB000E20EADCF0E94F70EAACF8FEF8883A7CF99
:101CC0000E948A0F8983A3CF0E948C0F98278927AF
:101CD00098279A8389839BCF6B8170E089819A8151
:101CE000AE014C5F5F4F9827892798270E948F0F7E
:101CF0008ECF6B8170E089819A81AE014C5F5F4F1E
:101D00009827892798270E94B60F81CF0E94E10F5C
:101D10007ECF0E94B70ED6CF6B8170E089819A8109
:101D2000AE014C5F5F4F9827892798270E942F0F9D
:101D30006ECF6B8170E089819A81AE014C5F5F4FFD
:101D40009827892798270E94540F61CF0E94900DF1
:101D50005ECF0E94112CFFEF21EE84E0F150204075
:101D60008040E1F700C000000E94AC2250CF84E028
:101D7000089550E0440F551F9AE0699F400D511D92
:101D8000112498E2899F400D511D1124CA018696A5
:101D900008950F931F93CF93DF930E94B90E8C0188
:101DA0000E94A333C82FD0E0DC2FCC27C8010196B6
:101DB0000E94A3339E01282BC901DF91CF911F916F
:101DC0000F9108950F931F93CF93DF93122F032F3B
:101DD0000E94B90EEC01602F0E94B133612FCE0139
:101DE0000196DF91CF911F910F910C94B133AF9277
:101DF000BF92CF92DF92EF92FF921F93CF93DF9328
:101E00008CEAC82E80E0D82ED0E07601C0E014C065
:101E1000F50125913491412F6C2F8D2F0E94E20EF8
:101E200082E0A80EB11C1F5F153091F78AE0E80E22
:101E3000F11CCF5FC43019F0570110E0E9CFDF5F2C
:101E400088E2C80ED11CD43001F7DF91CF911F91E9
:101E5000FF90EF90DF90CF90BF90AF900895EF92FA
:101E6000FF920F931F93CF93DF93EC018A017C01C4
:101E7000E60EF71ECE018696CE15DF0539F4DF910A
:101E8000CF911F910F91FF90EF900895C03AD10527
:101E900040F40E94A333F80180830F5F1F4F219607
:101EA000E9CFF8011082F9CFCF92DF92EF92FF9243
:101EB0000F931F93CF93DF937C016A018C01060F70
:101EC000171FEC01CE018696C017D10749F4DF91A8
:101ED000CF911F910F91FF90EF90DF90CF900895D9
:101EE000C03AD10540F4FE01EE19FF09EC0DFD1DCD
:101EF00060810E94B1332196E5CF462F843038F4BB
:101F0000743028F4653018F4672F0C94C90E90E0F3
:101F100080E0089580E108958AE393E00895EF92C8
:101F2000FF920F931F93CF93DF93EC018A017C0103
:101F3000E60EF71ECE018A539F4FCE15DF0539F40A
:101F4000DF91CF911F910F91FF90EF900895CA33C9
:101F500023E0D20740F40E94A333F80180830F5F8F
:101F60001F4F2196E7CFF8011082F9CFCF92DF9271
:101F7000EF92FF920F931F93CF93DF937C016A013F
:101F80008C01060F171FEC01CE018A539F4FC0171B
:101F9000D10749F4DF91CF911F910F91FF90EF90FE
:101FA000DF90CF900895CA3323E0D20740F4FE01BA
:101FB000EE19FF09EC0DFD1D60810E94B1332196E1
:101FC000E3CFCF93DF93C6ECD0E060E0CE010E9478
:101FD000B1332196C11584E0D807B9F7DF91CF91CD
:101FE0000895DF92EF92FF920F931F93CF93DF93A9
:101FF00000D000D0CDB7DEB7F82E8FE08F1540F0BF
:102000008FEF93E00E94A33306EC10E08823C1F029
:102010000F900F900F900F90DF91CF911F910F9124
:10202000FF90EF90DF900895011584E0180781F389
:10203000C8010E94A333811101C0FA940F5F1F4FA2
:10204000F110F2CF19821A821B821C82DD24D394F4
:1020500078018FEFE81AF80AC8010E94A333898338
:102060001A828823A9F29FEF980F933078F48A831D
:10207000D9820E5F1F4FC7010E94A3338B83882331
:1020800039F2CE0101960E94CE08E2CF8701F9CF46
:10209000AF92BF92CF92DF92EF92FF920F931F9376
:1020A000CF93DF937C015B01C42FD22FFC0182818F
:1020B0008823F9F04093B8010E9461229093B70100
:1020C0008093B60180E28C0F883008F061C0C77041
:1020D00081E001C0880FCA95EAF7DF91CF911F9187
:1020E0000F91FF90EF90DF90CF90BF90AF900C9446
:1020F000C1171091B801141340C08091B60190919E
:10210000B7010E9479226C01B701C5010E94B31C7E
:10211000C816D90690F5C0E2CD0F1D17B9F080E2C0
:10212000810F883040F4177081E001C0880F1A9544
:10213000EAF70E94C817C83048F481E09D2F9770D5
:1021400001C0880F9A95EAF70E94C117802F0E945C
:10215000AE17C830E8F4D77081E001C0880FDA9577
:10216000EAF7DF91CF911F910F91FF90EF90DF90F1
:10217000CF90BF90AF900C94C81780E28C0F88303E
:1021800038F4C77081E001C0880FCA95EAF7E9CF3B
:10219000DF91CF911F910F91FF90EF90DF90CF9043
:1021A000BF90AF9008950F939C01CB01253F4CE564
:1021B000340759F1A8F4293DFCE53F0701F12A3D18
:1021C0004CE53407D1F1283D3C4591F406E221EE7F
:1021D00041EE68ED7CE50E94481080E00F91089583
:1021E000273FFCE53F07E9F0B0F0283F3C45F9F018
:1021F000FC018281882339F11092B801EFCF07E208
:1022000025EE45EE69ED7CE5E6CF06E221EE40EEF7
:1022100065EF7CE5E0CF07E225EE44EE66EF7CE576
:10222000DACF06E221EE42EE67EF7CE5D4CF07E29B
:1022300025EE46EE68EF7CE5CECF08E221E045EEE4
:102240006AED7CE5C8CF81E0C9CFCF93DF93EC0185
:10225000FB018281882309F419C1C230FCE5DF0744
:10226000C0F1C6319CE5D90730F09E012C5F3C459A
:102270002930310570F50E94F22090936E02809310
:102280006D02C031ECE5DE0709F4CFC008F05BC099
:10229000C8308CE5D80709F4B6C088F5C430ECE541
:1022A000DE0709F4A8C0C0F4C2308CE5D80709F4F1
:1022B0009CC080916D028260C330DC4509F498C0F7
:1022C00080916D0290916E020E9400210E943D1A41
:1022D00080E0DF91CF91089580916D028061C630DA
:1022E000ECE5DE0709F484C080916D028860C73098
:1022F000DC4508F47DC080916D02806279C0CC30ED
:102300008CE5D80709F489C070F480916D028C6067
:10231000CA30ECE5DE0709F46BC008F478C08091A0
:102320006D028E7F65C0CE308CE5D80709F479C088
:1023300080916D028B7FCF30DC4508F459C08091CD
:102340006D028F7E55C0CD3FECE5DE0709F457C026
:1023500030F5C3318CE5D80709F46FC078F4C1318A
:10236000ECE5DE0709F465C0C231DC4509F0A8CF11
:102370000E943D1A80916D028F773AC0C5318CE57D
:10238000D80709F462C008F476C080916E028160BB
:10239000CC3FDC4509F094CF80936E0291CFC130E1
:1023A000FDE5DF0709F44DC088F480916E028D7F52
:1023B000CF3F9CE5D90781F380916E028E7FC115D6
:1023C000DD4550F380916E028360E6CFC330FDE5BA
:1023D000DF0709F459C008F444C080E0C430DD458B
:1023E00009F06ECF0E9485216BCF80916D028160D4
:1023F00080936D0265CF80916D028460F9CF8091EA
:102400006E028260C9CF80916D028064F1CF0E941C
:102410003D1A80916D028068EBCF80916D028D7FB7
:10242000E7CF80916D02877FE3CF80916D028F7D32
:10243000DFCF80916D028F7BDBCF80916D02837F38
:10244000D7CF80916E028C7FA7CF80916D0282FBE7
:10245000992790F921E0922790FB82F990FB83F96C
:10246000C7CF80916E02982F909591708E7F892BA7
:1024700090FB81F991CF0E943D1A90916D02892FB6
:1024800097FB87F98058B4CF81E0ACCF81E021CFB2
:10249000CF93DF93EB0186319C4511F50E94C01F5D
:1024A0009A81992399F08A7A91E009F490E09093C7
:1024B000B901811109C089E20E949B1F0E940C2072
:1024C00080E0DF91CF91089585E3F6CF8091B90147
:1024D000811104C089E20E94A21FF0CF85E3FBCFE7
:1024E00081E0EFCF4F925F926F927F928F929F9297
:1024F000AF92BF92CF92DF92EF92FF920F931F9312
:10250000CF93DF93EC01E881F981CF0181509545AC
:102510008F3F910510F485E5F827DB0112964C906A
:10252000442009F466C2EF3FF10509F100F1EF3DE7
:10253000FC4521F01092BA01A42D07C08091BA0188
:1025400091E089278093BA01A0E08A2FDF91CF9193
:102550001F910F91FF90EF90DF90CF90BF90AF90C1
:102560009F908F907F906F905F904F900895A09173
:10257000BA01AA2309F4E9C01092BA01E03CF105BE
:10258000F0F5E038F10508F0AAC0E034F10508F0F4
:1025900070C021E030E040E050E060E070E080E0BA
:1025A00090E00E2F0E946D33B091BB012B2BB091A8
:1025B000BC013B2BB091BD014B2BB091BE015B2BFD
:1025C000B091BF016B2BB091C0017B2BB091C101C9
:1025D0008B2BB091C2019B2B2093BB013093BC018C
:1025E0004093BD015093BE016093BF017093C00141
:1025F0008093C1019093C201F983E883A6CFEF3F96
:10260000F10509F030F621E030E040E050E060E014
:1026100070E080E090E08F01005C11090E946D3352
:10262000B091D3012B2BB091D4013B2BB091D501AC
:102630004B2BB091D6015B2BB091D7016B2BB09196
:10264000D8017B2BB091D9018B2BB091DA019B2B58
:102650002093D3013093D4014093D5015093D601F8
:102660006093D7017093D8018093D9019093DA01D8
:10267000C3CF21E030E040E050E060E070E080E077
:1026800090E08F01005411090E946D33B091C30195
:102690002B2BB091C4013B2BB091C5014B2BB091BA
:1026A000C6015B2BB091C7016B2BB091C8017B2B8E
:1026B000B091C9018B2BB091CA019B2B2093C30110
:1026C0003093C4014093C5015093C6016093C70184
:1026D0007093C8018093C9019093CA018DCF21E006
:1026E00030E040E050E060E070E080E090E08F019A
:1026F000005811090E946D33B091CB012B2BB09182
:10270000CC013B2BB091CD014B2BB091CE015B2B7B
:10271000B091CF016B2BB091D0017B2BB091D10147
:102720008B2BB091D2019B2B2093CB013093CC010A
:102730004093CD015093CE016093CF017093D001AF
:102740008093D1019093D20157CFE034F10508F086
:1027500067C07090BB018090BC019090BD01D0918A
:10276000BE01C091BF01B091C0015090C101609005
:10277000C20121E030E040E050E060E070E080E045
:1027800090E00E2F0E946D3359016A017B018C018C
:1027900027213B2D382149215D2D5D236C237F2D81
:1027A0007B238521912F96210E94863309F0C4CE88
:1027B000E03CF10508F08EC0E038F10508F0EBC010
:1027C000E034F10508F0B9C021E030E040E050E02D
:1027D00060E070E080E090E00E2F0E946D33209565
:1027E00030954095509560957095809590952721EE
:1027F000382149215D236C237B2385219621209359
:10280000BB013093BC014093BD015093BE01609366
:10281000BF017093C0018093C1019093C20195CE16
:10282000E038F105E0F47090C3018090C40190900D
:10283000C501D091C601C091C701B091C8015090A7
:10284000C9016090CA0121E030E040E050E060E062
:1028500070E080E090E08F010054110993CFE03CDC
:10286000F105E0F47090CB018090CC019090CD0107
:10287000D091CE01C091CF01B091D0015090D10143
:102880006090D20121E030E040E050E060E070E094
:1028900080E090E08F010058110974CF7090D3014F
:1028A0008090D4019090D501D091D601C091D701EC
:1028B000B091D8015090D9016090DA0121E030E068
:1028C00040E050E060E070E080E090E08F01005C6C
:1028D000110958CFEF3FF10511F008F075CF8F01C6
:1028E000005C110921E030E040E050E060E070E081
:1028F00080E090E00E946D33209530954095509592
:1029000060957095809590952721382149215D2308
:102910006C237B23852196212093D3013093D4010E
:102920004093D5015093D6016093D7017093D8019D
:102930008093D9019093DA0108CE8F0100541109D8
:1029400021E030E040E050E060E070E080E090E0C6
:102950000E946D3320953095409550956095709507
:10296000809590952721382149215D236C237B2375
:10297000852196212093C3013093C4014093C50162
:102980005093C6016093C7017093C8018093C90139
:102990009093CA01DACD8F010058110921E030E08F
:1029A00040E050E060E070E080E090E00E946D3335
:1029B00020953095409550956095709580959095AF
:1029C0002721382149215D236C237B2385219621F2
:1029D0002093CB013093CC014093CD015093CE0195
:1029E0006093CF017093D0018093D1019093D20175
:1029F000ACCDA1E0EF3FF10509F098F5E034F10529
:102A000090F58090BB019090BC01D091BD01C09128
:102A1000BE01B091BF01A091C0016090C101709052
:102A2000C20121E030E040E050E060E070E080E092
:102A300090E00E2F0E946D3359016A017B018C01D9
:102A400028213B2D39214D235D2D5C236B237F2DC8
:102A50007A23A1E08621912F97210E94863309F4E1
:102A6000A0E0A17072CDE038F105E0F48090C301E0
:102A70009090C401D091C501C091C601B091C70129
:102A8000A091C8016090C9017090CA018F010054E3
:102A9000110921E030E040E050E060E070E080E0CB
:102AA00090E0C8CFE03CF105A0F48090CB0190907D
:102AB000CC01D091CD01C091CE01B091CF01A091B8
:102AC000D0016090D1017090D2018F01005811099E
:102AD000E0CF8090D3019090D401D091D501C091E6
:102AE000D601B091D701A091D8016090D901709022
:102AF000DA018F01005C1109CCCF9093E001809343
:102B0000DF010895E091DF01F091E001309721F0BD
:102B10000190F081E02D099480E00895EF92FF92FA
:102B20000F931F93CF93DF938C01E091DF01F0911E
:102B3000E0013097C1F10280F381E02D0995809189
:102B4000430282FF30C080FF04C08DE092E00E940B
:102B5000A306D0E0C0E087E0E82E82E0F82E809166
:102B6000430280FF0EC0F801EC0FFD1F80811F9211
:102B70008F93FF92EF920E943C070F900F900F905F
:102B80000F902196C830D10551F78091430280FF04
:102B90000AC085E092E0DF91CF911F910F91FF90E5
:102BA000EF900C94A306DF91CF911F910F91FF90AE
:102BB000EF900895E091DF01F091E001309739F056
:102BC00022E0DC012C930480F581E02D0994089526
:102BD0002091DD013091DE012817390771F09093C3
:102BE000DE018093DD01E091DF01F091E00130979B
:102BF00021F00680F781E02D099408952091DB01F2
:102C00003091DC012817390771F09093DC01809333
:102C1000DB01E091DF01F091E001309721F00084C9
:102C2000F185E02D0994089585B7806885BF85B743
:102C3000806885BF0895089508950C94A3070E94A5
:102C400014160E941C160C94450781E008950C94FC
:102C50002516089508950E9458220E942C0C0E9467
:102C6000A30D0E94D3220E940B0D0C941D16CF932E
:102C7000C82F8091430282FF1EC080FF1CC086E2E5
:102C800092E00E94A3068091430280FF14C01F922D
:102C9000CF9381E292E09F938F930E943C078091B3
:102CA00043020F900F900F900F9080FF04C08FE1B0
:102CB00092E00E94A3068C2FCF910C94C209BF9280
:102CC000CF92DF92EF92FF920F931F93CF93DF93F8
:102CD000CDB7DEB72A970FB6F894DEBF0FBECDBFD3
:102CE0000E9429160E942A160E945D0C0E94271637
:102CF000882309F461C082EEC82E81E0D82E10E04E
:102D000000E0B02E802F0E94C50BE82EF601F19056
:102D10006F01F81609F44AC08091430281FD0E94B8
:102D2000CB0B9F2D9E2580E0FF24F394292F2F218C
:102D3000C1F18E83BF82EF2081E009F480E08887B3
:102D40000E9461228160782F9A8789874E815F81F6
:102D500068858A850E94FD16F801EE51FE4F80813C
:102D6000F826F0820E941B0D0E9400250E94821509
:102D70009091E101891789F10E9482158093E10108
:102D80002A960FB6F894DEBF0FBECDBFDF91CF916C
:102D90001F910F91FF90EF90DF90CF90BF900C9418
:102DA00037168F5FFF0C853009F0C0CF0F5F1F4FC4
:102DB0000430110509F0A5CF8FEF89838A831B8228
:102DC0000E9461228160782F9D838C8349815A8182
:102DD0006B818D810E94FD16C5CF2A960FB6F8949F
:102DE000DEBF0FBECDBFDF91CF911F910F91FF903E
:102DF000EF90DF90CF90BF900895CF93DF93CDB742
:102E0000DEB72B970FB6F894DEBF0FBECDBF4F8352
:102E1000588769877A878B871E821D8285E0FE012D
:102E20003796DE01119601900D928A95E1F749815E
:102E30005A816B817C818D819E812B960FB6F8948F
:102E4000DEBF0FBECDBFDF91CF910C94B61CFC014D
:102E5000808191810C946D1FCF93C82F882309F432
:102E60004CC08CEF8C0F813AC8F48C2F0E94E12962
:102E7000811143C06C2F80910001909101010E944B
:102E80009C21882329F08C2F0E94A21F0E940C20D5
:102E90008C2F0E949B1FCF910C940C2080E28C0FF2
:102EA000883048F4C77081E001C0880FCA95EAF7FE
:102EB0000E94C31FF0CFEBE5EC0FE33040F4F0E0ED
:102EC000E357FE4F808190E0CF910C94E815E8E540
:102ED000EC0FE73150F4F0E0EE0FFF1FE15AFE4F28
:102EE00080819181CF910C94FE15C03F30F08C2FE2
:102EF0000E947823CF910C946324CF910895882366
:102F000061F19CEF980F913A20F40E94A21F0C945B
:102F10000C2090E2980F983050F4877091E001C037
:102F2000990F8A95EAF7892F0E94C91FF0CF9BE578
:102F3000980F933020F490E080E00C94E81598E529
:102F4000980F973120F490E080E00C94FE15803FBC
:102F500020F00E94E0230C9463240895CF93C82F9F
:102F60000E942C17C93349F42FEF87EE93E02150CC
:102F700080409040E1F700C000008C2FCF910C946E
:102F80007F17882321F00E94C31F0C940C20089502
:102F9000882321F00E94C91F0C940C200895BF9231
:102FA000CF92DF92EF92FF920F931F93CF93DF9315
:102FB0006C01D62FC72FFC01058102950F7012817D
:102FC00011110E94E01F0E94B91FE82E882391F082
:102FD0001123D1F08C2F807F803421F080E28D0F7F
:102FE000883090F082E00E9457200E94B91F91E043
:102FF000E82EE926BC2EB2949FE0B922EB2DF0E03A
:10300000E650FC4C0C946033E12CF4CF0C2F0F7085
:10301000C07F11F00295007F1123A9F0002359F021
:1030200080E28D0F883010F0D11109C0802F0E94EE
:10303000C31F0E940C208D2F0E942C1714C0802FBC
:103040000E94D31FF6CF8D2F0E947F17002359F0C7
:1030500080E28D0F883010F0D1112CC0802F0E949B
:10306000C91F0E940C202B2D2850330B2430310512
:1030700020F40E9482150E94C209EE2009F49EC12C
:103080000E94B51F80FD9AC1F60112820E94AF1FF7
:103090000E94381EC6010E94FF190E94AF1FDF91D7
:1030A000CF911F910F91FF90EF90DF90CF90BF9045
:1030B0000C94591E802F0E94D91FD3CFFC2FFF7074
:1030C000FF2EC07FC03219F0F29480EFF822DD238A
:1030D00069F0D13049F1112391F1002351F1F6014A
:1030E000858180FFA8CF8F70858323C0112381F055
:1030F000011106C00E94F31F8F290E94C117B3CF90
:103100000130C1F70E94F31F8F290E94F91FABCF36
:10311000011106C00E9402208F2D0E94C817A3CF64
:10312000013009F4A0CFF6CF112329F0033008F0C5
:103130009ACF8F2DE2CF023008F095CFEDCF00234C
:1031400059F3D93349F4FFEF27EE33E0F150204033
:103150003040E1F700C000008D2F0E947F1783CF21
:103160008C2F86958695837069F0813009F07BCF2E
:103170008D2F9C2F9370111102C090E080E00E946F
:10318000FE1571CF8D2F9C2F9370111102C090E00E
:1031900080E00E94E81567CF8D2F112329F00E944F
:1031A00078230E9463245FCF0E94E023FACF8C2F04
:1031B000837009F041C0111156CF4D2F42954695AD
:1031C0004770440F440F0D2F0F7010E030E020E0E7
:1031D000042E04C0000F111F221F331F0A94D2F7C0
:1031E00060E070E0CB01D4FF0FC06FE070E080E0E2
:1031F00090E004C0660F771F881F991F4A95D2F789
:103200006095709580959095C695C695C370602B16
:10321000712B822B932BC23049F058F4C13019F036
:103220000E94EC1D20CF0E94DA1D1DCF0E94FE1DC2
:103230001ACF0E94D81D17CF8695112311F08C2F1D
:103240008170882309F40FCF4D2F42954695477022
:10325000440F440F0D2F0F7010E030E020E0042EDB
:1032600004C0000F111F221F331F0A94D2F760E021
:1032700070E0CB01D4FF0FC06FE070E080E090E021
:1032800004C0660F771F881F991F4A95D2F7609573
:10329000709580959095C695C695C370602B712BDF
:1032A000822B932BC23049F058F4C13019F00E94A0
:1032B000AF1ED9CE0E949D1ED6CE0E94C11ED3CE77
:1032C0000E94121ED0CECF70112329F08C2F0E94A5
:1032D000381E8D2F12CF8D2F0E94C8178C2F0E9461
:1032E000591EC1CED23F89F160F4D03FC9F0D13F21
:1032F00029F1112309F442C001119DCE8C2F8F7149
:1033000021C0D33F39F1D43FA1F7112369F1CF7127
:103310008C2F0E94381E63E08C2F0E944220A3CE87
:10332000112341F0023008F09ECE8C2F8F710E9445
:103330007C1E99CE033008F096CEF7CF8C2F8F717C
:10334000112369F20E94381E8ECE8C2F8F711123AB
:10335000C9F3C5CF112329F08C2F8F710E94231E32
:1033600082CE0E941E1E7FCE81E00E945720023036
:1033700008F479CE82E00E94572075CE002359F0E0
:10338000D93309F0E9CE8FEF97EEE3E0815090401A
:10339000E040E1F7DFCE8C2F8F71A1CF4C2F4F7023
:1033A0006D2FC6010E94CA090E94501D5CCE4C2F91
:1033B0004F706D2FC6010E94CD0955CEDF91CF9180
:1033C0001F910F91FF90EF90DF90CF90BF900895E5
:1033D0000F931F93CF93DF93EC01688179818A81EA
:1033E0000E94771F8C010E94D31E0E94D71DB80136
:1033F000CE01DF91CF911F910F910C94CF17CF93F6
:10340000DF93EC018B819C81892B29F08881998144
:1034100089238F3F59F4DF91CF910895CE010E9407
:10342000E819CE01DF91CF910C940F08CE010E94D4
:1034300052098111F3CF0E94B91F882361F38A8159
:10344000882349F382E0DF91CF910C9457200E94AA
:10345000E01F0E94F01F0E940C200E940C260E9478
:10346000632490E080E00E94E81590E080E00C94F6
:10347000FE150E94A91F0C94271A0E94D01F0C94BD
:10348000391AE92FE295EF70E250EE3070F4F0E077
:10349000E65FFB4C0C946033803F19F020F4883ECB
:1034A00020F481E00895843FE1F380E00895883EB0
:1034B000C0F3813FD1F7F5CF93FB882780F90895BA
:1034C0000E946D1F0C94411ACF93DF9300D000D05F
:1034D0000F92CDB7DEB70F900F900F900F900F9017
:1034E000DF91CF910895CF93DF9300D000D000D02B
:1034F000CDB7DEB726960FB6F894DEBF0FBECDBFB0
:10350000DF91CF9108951F93CF93DF93C091E7018F
:1035100016E08091E8018C1304C0DF91CF911F91D8
:103520000895D0E01C9FF0011D9FF00D1124E7517C
:10353000FE4F4081518162817381848195810E9417
:10354000731A2196C770E5CF4091190250911A0263
:1035500060911B0270911C0280911D0290911E02CD
:103560000C94731A1F93CF93DF9380911E02807F78
:10357000A9F480911B02882389F08091E701C09112
:10358000E8016091190270911A02A0911C02B09199
:103590001D02D62FD72316E0C81304C0DF91CF91A8
:1035A0001F91089590E0109711F0DF3F19F40196F4
:1035B0008770F2CF189F9001199F300D1124F901E7
:1035C000E751FE4F41814713F2CF40814613EFCFC1
:1035D00042814111ECCF438154814A1B5B0B483C33
:1035E000510528F780911E028F70806180931E0222
:1035F000F901E251FE4F80818F708061808389E103
:1036000092E00E94FF19DF91CF911F910C94831AD1
:10361000AF92BF92CF92DF92EF92FF920F931F93E0
:10362000CF93DF93CDB7DEB761970FB6F894DEBFC7
:103630000FBECDBF8C0185E0F801DE011D96019023
:103640000D928A95E1F7F80140815181E28089E18C
:10365000C82E82E0D82E60911C0270911D02611567
:10366000710509F461C19091190220911A02892F04
:1036700082238F3F09F458C1A380B480F0901B02CD
:10368000F501E61BF70BFF2009F4FCC080911E0238
:10369000382F307FE83CF10508F0B2C0311179C015
:1036A000FE2C251323C0941321C0E1101FC08F707E
:1036B000806180931E020E94A41AC6010E94FF1915
:1036C00080911E02F80185838F2D61960FB6F894C4
:1036D000DEBF0FBECDBFDF91CF911F910F91FF9045
:1036E000EF90DF90CF90BF90AF900895AB2829F076
:1036F000842F85238F3F09F033C180E0F82FF170CC
:10370000DF2E80FF3CC08091E7012091E80136E088
:10371000821315C04D875E878D859E850E946D1F23
:10372000292F22952F702230F0F0243018F59F7049
:10373000F1F0F8019581907FD1F4D12C1EC090E07A
:10374000389FF001399FF00D1124E751FE4F618140
:10375000651306C06081641303C062816E110FC0DF
:1037600001968770D5CF9F7011F0882331F3805E6A
:10377000883018F3C8010E94FF19FD2CA5CFEE2058
:1037800009F4A2CF80911E02816080931E02F12C69
:103790009BCF251306C0941304C0F801EE2009F452
:1037A0008DC04D875E878D859E850E94601A882317
:1037B00019F1EE2009F180911E02803270F0209103
:1037C000190230911A0238872F831986BB86AA8680
:1037D0008C87CE0107960E94FF1986E0F801A9E1C7
:1037E000B2E001900D928A95E1F70E94B21A0E9410
:1037F000A41AFF24F39468CFC8010E94FF19F9CFDF
:10380000311113C07A2DB98AA88A6E2D89890E9438
:10381000641A89E192E00E94FF1986E0F601119294
:103820008A95E9F70E94A41AB2CF25130FC094130A
:103830000DC0E1100BC0F8018583C8010E94FF197B
:1038400086E0F60111928A95E9F73ECF4D875E87B3
:103850008D859E850E94601A882371F2EE2061F2A8
:1038600080911E02803208F4B8CF20911902309165
:103870001A023A8329831B82BD82AC828E83CE01D9
:103880000196A9CFE83CF10508F041C0FE2CEE20DE
:1038900009F4B2CF25132AC0941328C080911E02C8
:1038A00080FD1BC0982F907FC1F0F8018583903F69
:1038B00031F0982F907F905F8F70892B8583C8019E
:1038C0000E94FF1986E0F801A9E1B2E001900D9293
:1038D0008A95E1F70E94A41AF7CE86E0F801A9E1E3
:1038E000B2E001900D928A95E1F7EECE4D875E87AA
:1038F0008D859E850E94601A81116FCF80911E0276
:10390000816080931E02C8010E94FF19DDCE7A2DCE
:10391000B98AA88A6E2D89890E94641A86E0F60108
:1039200011928A95E9F7D6CFEE2009F465CF4D873D
:103930005E878D859E850E94601AF82E882309F483
:103940005BCF86E0F801A9E1B2E001900D928A9583
:10395000E1F789E192E00E9427170E94B21ABACFDC
:1039600081E08E25CBCE88EC90E008951F93CF9315
:10397000DF93CDB7DEB72C970FB6F894DEBF0FBE3E
:10398000CDBF4F83588769877A878B879C87CE0105
:1039900007960E94081B882369F08A859B85892BDE
:1039A00039F04F815885842F85238F3F09F071C0EE
:1039B00016E05FC086E0FE013796DE0111960190A9
:1039C0000D928A95E1F78A859B85892B89F38F81F2
:1039D000988589238F3F61F32091E80130E0C90188
:1039E0000196877099274091E7014817190671F4ED
:1039F0000E943D1A1092E8011092E70186E0E9E189
:103A0000F2E0DF011D928A95E9F7D2CF96E0929F0E
:103A1000D001939FB00D1124A751BE4FFE013196E6
:103A200001900D929A95E1F78093E8010E94831A24
:103A3000BFCF819FC001112487519E4F0E94081B58
:103A40008823E9F0E091E7011E9FF0011124E7517E
:103A5000FE4F4081518162817381848195810E94F2
:103A6000731A8091E70190E00196877099278093FF
:103A7000E7018091E7019091E8018913DACF2C9654
:103A80000FB6F894DEBF0FBECDBFDF91CF911F916F
:103A9000089569857A858B859C850E94731A88CFE5
:103AA000EF92FF920F931F93CF93DF938C01892B9B
:103AB00081F0F12CEE24E394E8012196F801849141
:103AC000843770F4843008F05FC08130B1F0823008
:103AD000A1F1DF91CF911F910F91FF90EF90089589
:103AE000853709F44CC008F43DC09CE7980F903727
:103AF00080F78F770E947F1749C00E5F1F4FFE012E
:103B0000849190E2980F983060F48770FE2D01C088
:103B1000FF0F8A95EAF78F2F0E94E31F0E940C2067
:103B200002C00E942C178F2D815030F2EFE9FFE088
:103B30003197F1F700C00000F7CF0E5F1F4FFE0175
:103B4000849190E2980F983050F48770FE2D01C058
:103B5000FF0F8A95EAF78F2F0E94E91FDFCF0E949F
:103B60007F17E1CF0E5F1F4FFE01C491C150D8F205
:103B70008FE99FE00197F1F700C00000F7CF0E5FDB
:103B80001F4FFE01F490CFCF0E942C178E01CBCF98
:103B900008950C94C81D0E94C91D60933202709351
:103BA000330280933402909335020C94271A0895BF
:103BB0000C94CB1D0F931F9300913202109133028E
:103BC0002091340230913502602B712B822B932B84
:103BD0001F910F910C94CB1D0F931F9300913202F4
:103BE0001091330220913402309135026023712309
:103BF000822393231F910F910C94CB1D0F931F933E
:103C0000009132021091330220913402309135023A
:103C100060277127822793271F910F910C94CB1D4A
:103C20000C94C81D0E944C0760932E0270932F02C3
:103C300080933002909331020C94271A60E070E078
:103C4000CB010C94121E0F931F9341E050E060E0F3
:103C500070E08A019B0104C0000F111F221F331F57
:103C60008A95D2F7C901B8011F910F910C94121EC9
:103C70000F931F9341E050E060E070E004C0440FF8
:103C8000551F661F771F8A95D2F780912E0290915B
:103C90002F02A0913002B09131028A019B01082BC2
:103CA000192B2A2B3B2BC901B8011F910F910C94A2
:103CB000121E0F931F9341E050E060E070E004C0DB
:103CC000440F551F661F771F8A95D2F7CB01BA01A3
:103CD000609570958095909500912E0210912F021D
:103CE000209130023091310260237123822393238B
:103CF0001F910F910C94121E0F931F9341E050E0FF
:103D000060E070E004C0440F551F661F771F8A955E
:103D1000D2F780912E0290912F02A0913002B091A3
:103D200031028A019B01082719272A273B27C9014D
:103D3000B8011F910F910C94121E0F931F930091C5
:103D40002E0210912F022091300230913102602B0F
:103D5000712B822B932B1F910F910C94121E0F939A
:103D60001F9300912E0210912F022091300230916A
:103D7000310260237123822393231F910F910C94AE
:103D8000121E0F931F9300912E0210912F0220916B
:103D900030023091310260277127822793271F91CB
:103DA0000F910C94121E0895E92FEE0FEE0F9E0F47
:103DB000890F982F977041E001C0440F9A95EAF758
:103DC00086958695869595E0899FF0011124E15EA0
:103DD000FD4F30E020E070E05191DF011197CB0101
:103DE000022E02C0969587950A94E2F7817081951C
:103DF0008527842385278C932F5F3F4F25303105FE
:103E000059F70895E92FEE0FEE0F9E0F890F982FA7
:103E1000977086958695869525E0829FF0011124FE
:103E2000E15EFD4F50E040E080E0219130E0092E5E
:103E300002C0369527950A94E2F721703327042EA5
:103E400001C0220F0A94EAF7822B4F5F5F4F453083
:103E5000510559F70895BF92CF92DF92EF92FF92EA
:103E60000F931F93CF93DF938C01C0902E02D090BD
:103E70002F02E0903002F090310280913202909156
:103E80003302A0913402B0913502C82AD92AEA2A15
:103E9000FB2ACFE1D0E0BC2ED701C6010C2E04C016
:103EA000B695A795979587950A94D2F780FD0EC091
:103EB000219788F7B12C8B2DDF91CF911F910F9116
:103EC000FF90EF90DF90CF90BF900895B8018C2FB6
:103ED0000E94D609019761F3EECFCF93DF93EC01F7
:103EE0000E942B1FBE01DF91CF910C94D6091F9326
:103EF000CF93DF93EB019091E601992331F0CB0151
:103F0000DF91CF911F910C946D1F882379F0CB0125
:103F10000E942B1F182F682FCE010E94D41EBE01B5
:103F2000812FDF91CF911F910C94D609CB010E9474
:103F3000021F182FF4CF682F80910001909101018A
:103F40000C94D221682F80910001909101010C9472
:103F5000D42180910001909101010C94D62180918F
:103F600036028595859585950895809136028770EE
:103F7000089590913602977081E009F480E00895E9
:103F800080914202089590914202892B80934202CF
:103F9000089580959091420298239093420208954B
:103FA00010924202089590914102892B8093410220
:103FB000089580959091410298239093410208952D
:103FC00010924102089590914002892B8093400203
:103FD000089580959091400298239093400208950F
:103FE00010924002089580913702089508950C942C
:103FF000F61F90913702981721F0809337020C94A6
:10400000F71F089580913702882329F01092370214
:1040100080E00C94F71F0895E0910001F0910101F8
:10402000809142028083E0910001F0910101808142
:1040300090914102892B8083E0910001F091010170
:10404000808190914002892B80839091370299233F
:1040500081F0E0910001F09101018081892B808342
:1040600080910001909101010E948A2181110E949A
:10407000022080910001909101010C948E15089509
:104080000C943F2098E0899F90011124622B60934B
:1040900036020E94381E8091360285958595859559
:1040A0000C9440201092360280E00C9440209091B5
:1040B00036028095892380933602282F277071F469
:1040C000282F082E000C330B9217130639F0859514
:1040D000859585950E94591E0C94522008959093C1
:1040E000AF018093AE010895CF92DF92EF92FF92DD
:1040F0006C01EE24FF2420E0C114D104E104F1049A
:1041000019F0C701B60120E1C72ED82EE92EFF24F1
:10411000C114D104E104F10419F0285FC701B6010C
:104120006B017C0154E0F694E794D794C7945A95B8
:10413000D1F7C114D104E104F10419F02C5FC701D7
:10414000B6016B017C0142E0F694E794D794C794E2
:104150004A95D1F7C114D104E104F10419F02E5F9E
:10416000C701B6019695879577956795672B682B5C
:10417000692B09F02F5F822FFF90EF90DF90CF9097
:104180000895829590E09C01220F331F220F331F68
:104190002C7C95958795959587958373282B30E092
:1041A000C901880F991F8A7A359527952575822B25
:1041B00008956FEF7FEF90E080E00C94CF3390E0B4
:1041C00080E00E94AB3321E08C3E9E4F09F020E05E
:1041D000822F089582E090E00C94A33383E090E076
:1041E0000C94A333CF9384E090E00E94A333C82FB4
:1041F00081E290E00E94A333982F8C2FCF910895F5
:10420000CF93C92F682F84E090E00E94B1336C2FC8
:1042100081E290E0CF910C94B133AB01BC018FE00F
:1042200090E00C94C333AB01BC0183E190E00C94AB
:10423000C33360E070E0CB010C94132160E070E0C8
:10424000CB010E940D210C9419216CEE7EEF90E0C1
:1042500080E00E94CF3360E082E090E00E94B133C2
:1042600060E083E090E00E94B1331092320210923D
:104270003302109234021092350260E084E090E044
:104280000E94B13360E081E290E00E94B13360E0CF
:1042900085E090E00E94B13360E086E090E00E940B
:1042A000B1336FEF87E090E00E94B13340E050E01F
:1042B000BA0188E090E00E94C33360E08DE090E0B6
:1042C0000E94B13340E050E0BA0188E190E00E94E2
:1042D000C33360E087E190E00E94B13340E050E0FA
:1042E000BA018CE190E00E94C33360E080E290E08C
:1042F0000E94B13340E050E0BA0188E190E00E94B2
:10430000C3330C941E210C942521682F8EE090E07D
:104310000C94B1339C012E5F3F4FAC01485F5F4F5F
:1043200080E02417350709F40895F90191919F0160
:104330009923B9F38F5FF5CF662349F0FC013296DC
:1043400008962191261729F0E817F907D1F780E0A0
:10435000089581E008959C01FC0132969FEF80E072
:104360004191461751F09F3F19F4411101C0982F18
:104370008F5F8630A9F79F3F09F40895290F311DFB
:1043800097FD3A95F90162830895FC0132960896EB
:104390002191261303C0DF0111971C92E817F9073A
:1043A000B9F708950C94AB210C94C521029626E030
:1043B000FC0111922A95E9F70895089508950C9447
:1043C000DE210E94DF2180917302843049F1109236
:1043D000440288E190E020E40FB6F894A895809319
:1043E00060000FBE2093600080E00E94C2090E941E
:1043F000DF2183B7817F846083BF83B7816083BF00
:104400007894889583B78E7F83BF0FB6F894A8956C
:1044100080916000886180936000109260000FBE00
:1044200008950895CF930E94DD210E945D0C0E94A3
:104430001122C0E08C2F0E94C50B811105C0CF5FF7
:10444000C430C1F7CF91089581E0FCCF08950C945A
:1044500026220E943D1A0E9482150E94C2090C94D5
:1044600027221F921FB61F9211248F939F93AF9301
:10447000BF9380914402811113C080916902909191
:104480006A02A0916B02B0916C024196A11DB11D10
:104490008093690290936A02A0936B02B0936C02BE
:1044A000BF91AF919F918F911F901FBE1F90189544
:1044B00082E084BD93E095BD9AEF97BD80936E0036
:1044C00008952FB7F8948091690290916A02A091A3
:1044D0006B02B0916C022FBF08952FB7F8946091D2
:1044E000690270916A0280916B0290916C022FBFF9
:1044F00008959C014FB7F8948091690290916A02E7
:10450000A0916B02B0916C024FBF821B930B089578
:1045100078941F921FB61F9211248F939F93AF938D
:10452000BF938091690290916A02A0916B02B09151
:104530006C020196A11DB11D8093690290936A02DD
:10454000A0936B02B0936C02BF91AF919F918F913A
:104550001F901FBE1F90189587E797E7909301085B
:104560008093000888E19AE00FB6F894A8958093AC
:1045700060000FBE90936000FFCF0C94900D0E94DE
:104580005D0C8FE39CE90197F1F700C000000E94E9
:104590005D0C83E00E94C50B80FF04C00E94BD2219
:1045A0000C94AC2208950E94DF20811102C00E9469
:1045B00083210E94EA20809343020E94F22090937C
:1045C0006E0280936D020E94EE20682F70E090E0F2
:1045D00080E00E94D81D60912E0270912F02809180
:1045E0003002909131020C944C0780914B0280FF75
:1045F00012C06091070185E0689FB0011124759594
:1046000067957595679560387105A8F56115710511
:10461000A1F1862F089581FF09C06091070185E00F
:10462000689FB001112475956795EDCF60910701E2
:1046300082FD0AC080914A028823D1F09091060140
:1046400060910701891728F085E0689FB001112467
:10465000DACF869FB001112485E0869F9001879F65
:10466000300D1124692F70E0C9010E944C33CBCF6B
:1046700065E070E0CECF8FE7089581E008958091E6
:104680004B0280FF0CC06091030170E07595679547
:10469000759567956115710549F1862F089581FF1C
:1046A00006C06091030170E075956795F3CF609146
:1046B000030182FD0BC0909149029923A1F0609102
:1046C000020180910301961738F0682F70E060387E
:1046D000710500F38FE70895899FC001112470E0F0
:1046E0000E944C33F4CF61E070E0D7CF81E00895B1
:1046F000803F31F40E94F522819580934F02089506
:10470000813F19F40E94F522F8CF823F31F40E94D4
:10471000F522819580934E020895833F19F40E94FB
:10472000F522F8CF893F29F40E943F23809350025D
:1047300008958A3F21F40E943F238195F7CF8B3F54
:1047400031F40E943F2381958093510208958C3F5C
:1047500019F40E943F23F8CF843F31F480914D0239
:10476000816080934D020895853F21F480914D0230
:104770008260F7CF863F21F480914D028460F1CFB3
:10478000873F21F480914D028860EBCF883F21F470
:1047900080914D028061E5CF8D3F31F480914B02D5
:1047A000816080934B0208958E3F21F480914B02EB
:1047B0008260F7CF8F3FB9F780914B028460F1CFD1
:1047C00090914E02803F59F480914F0287FF0DC0B7
:1047D00010924F0291110BC010924A0208C0813F03
:1047E00081F480914F0218169CF3992381F08091F7
:1047F000500290915102892B09F064C01092490235
:104800000895823F49F497FFF0CF10924E028091B5
:104810004F028111ECCFE0CF833F19F41916ACF3AE
:10482000E4CF20915002893F29F41216F4F6109239
:104830005002DBCF8A3F19F427FFD7CFF8CF209162
:1048400051028B3F29F427FFD0CF10925102CDCFD8
:104850008C3F19F41216CCF3C8CF843F31F4809109
:104860004D028E7F80934D02C0CF853F21F4809111
:104870004D028D7FF7CF863F21F480914D028B7FD3
:10488000F1CF873F21F480914D02877FEBCF883FA6
:1048900021F480914D028F7EE5CF8D3F31F48091E0
:1048A0004B028E7F80934B02A0CF8E3F21F48091EC
:1048B0004B028D7FF7CF8F3F09F097CF80914B024E
:1048C0008B7FF0CF08958091430283FF7EC080E606
:1048D00092E00E94A30680914D021F928F938BE578
:1048E00092E09F938F930E943C0789E592E00E949B
:1048F000A30680914E02282F082E000C330B3F9305
:104900008F9386E592E09F938F930E943C0784E506
:1049100092E00E94A30680914F02282F082E000CDF
:10492000330B3F938F9381E592E09F938F930E9487
:104930003C078FE492E00E94A30680915002282F4A
:10494000082E000C330B3F938F938CE492E09F93DF
:104950008F930E943C078AE492E00E94A306809114
:104960005102282F082E000C330B3F938F9387E4BE
:1049700092E09F938F930E943C0784E492E00E9410
:10498000A30680914A021F928F9381E492E09F9345
:104990008F930E943C078FE392E00E94A3068091D0
:1049A0004B021F928F938CE392E09F938F930E9410
:1049B0003C0789E392E00E94A3068DB79EB74C9610
:1049C0000FB6F8949EBF0FBE8DBF0E9461229C015E
:1049D00090914E0280914F02982B21F03093480223
:1049E000209347029091500280915102982B21F020
:1049F00030934602209345028CE492E00C94DA1541
:104A0000EF92FF920F931F93CF93DF9300D000D0CC
:104A100000D0CDB7DEB786E0ECE4F2E0DE0111961F
:104A200001900D928A95E1F7E0904E02F0904F02CE
:104A3000009150021091510210924E0210924F02BA
:104A400010925002109251028E2D8F2991F0809178
:104A50004702909148020E947922AC0190914A024B
:104A6000992309F43FC0809108018417150608F4C2
:104A700047C0802F812B91F0809145029091460292
:104A80000E947922AC0190914902992309F477C0E0
:104A9000809104018417150608F47FC080914E02AE
:104AA00090914F02892B90915002892B9091510245
:104AB000892B11F00E94632486E0FE013196ACE45C
:104AC000B2E001900D928A95E1F726960FB6F89420
:104AD000DEBF0FBECDBFDF91CF911F910F91FF9031
:104AE000EF900895209109018AE0289F90011124F8
:104AF0002417350708F0BDCF9F5F90934A0202C08C
:104B00009F3FD1F7EE2059F00E94F5229FEF1E142F
:104B10000CF491E0899F802D112480934E02FF2098
:104B200059F00E94F5229FEF1F140CF491E0899F29
:104B3000802D112480934F0230914E02332309F4CB
:104B400098CF20914F02222309F493CF45EB3403F1
:104B5000C0011124992359F090934E0245EB240390
:104B600090011124332339F030934F0282CF81E03A
:104B700080934E02F3CF81E080934F027ACF209151
:104B800005018AE0289F900111242417350708F0B9
:104B900085CF9F5F9093490202C09F3FD1F70023CA
:104BA00059F00E943F239FEF10160CF491E0899F6B
:104BB000802D112480935002112359F00E943F232D
:104BC0009FEF11160CF491E0899F802D11248093A2
:104BD000510230915002332309F460CF20915102E9
:104BE000222309F45BCF45EB3403C0011124992340
:104BF00059F09093500245EB240390011124332384
:104C000039F0309351024ACF81E080935002F3CFC4
:104C100081E08093510242CF86E0ECE4F2E0DF01D4
:104C20001D928A95E9F710924A0210924902109259
:104C30004B02089583E894E00E94A3061F9281E04E
:104C40008F931F9285E08F9385E394E09F938F93DA
:104C50000E943C070F900F900F900F900F900F90B5
:104C60000895833009F445C028F4813061F0823022
:104C700049F10895853009F46AC008F451C08630BE
:104C800009F47CC0089580910901482F460F5527EB
:104C9000551F4F3F510594F4680F609309018091AF
:104CA00009011F928F938EE693E09F938F930E944A
:104CB0003C070F900F900F900F9008958FEF809307
:104CC0000901EDCF80910801482F460F5527551F48
:104CD0004F3F510554F4680F60930801809108011B
:104CE0001F928F938CE593E0E0CF8FEF80930801C4
:104CF000F5CF80910701482F460F5527551F4F3F8D
:104D0000510554F4680F60930701809107011F92C9
:104D10008F9389E493E0C9CF8FEF80930701F5CF9C
:104D200080910601482F460F5527551F4F3F5105CB
:104D300054F4680F60930601809106011F928F93CF
:104D400084E393E0B2CF8FEF80930601F5CF80919B
:104D50000301482F460F5527551F4F3F510554F467
:104D6000680F60930301809103011F928F938BE181
:104D700093E09BCF8FEF80930301F5CF80910201E9
:104D8000482F460F5527551F4F3F510554F4680FC4
:104D900060930201809102011F928F9380E093E063
:104DA00084CF8FEF80930201F5CF8330C9F128F4CF
:104DB000813061F0823019F10895853009F452C0D4
:104DC00008F43FC0863009F45EC00895809109015F
:104DD000681790F4861B80930901809109011F9246
:104DE0008F9381EF92E09F938F930E943C070F90E7
:104DF0000F900F900F90089510920901EECF8091BF
:104E00000801681750F4861B8093080180910801FF
:104E10001F928F938FED92E0E6CF10920801F6CFAC
:104E200080910701681750F4861B809307018091D9
:104E300007011F928F938CEC92E0D5CF109207015F
:104E4000F6CF80910601681750F4861B8093060107
:104E5000809106011F928F9387EB92E0C4CF10924E
:104E60000601F6CF80910301681750F4861B8093EA
:104E70000301809103011F928F938EE992E0B3CFDB
:104E800010920301F6CF80910201681750F4861B3F
:104E900080930201809102011F928F9383E892E038
:104EA000A2CF10920201F6CFCF93C82F1F928F93FB
:104EB00088E895E09F938F930E943C0761E070E043
:104EC00080E090E004C0660F771F881F991FCA9585
:104ED000D2F70E94D81D0F900F900F900F90CF9196
:104EE0000C943D1ACF93DF938B3109F4FAC108F08B
:104EF0009CC18B3009F4B8C108F06AC1863009F44E
:104F0000C6C148F4853009F49EC189E09AE00E9448
:104F1000A30680E0CCC1873009F4CCC18830A9F762
:104F200088EA9AE00E94A30689EF99E00E94A3060E
:104F30000E94EE201F928F9386EF99E09F938F93AC
:104F40000E943C0784EF99E00E94A3060E94EA2099
:104F5000C82F81EE99E00E94A3061F92CF938CED9B
:104F600099E09F938F930E943C078AED99E00E94FD
:104F7000A30680ED99E00E94A3068C2F81701F92FA
:104F80008F938DEC99E09F938F930E943C078BEC5D
:104F900099E00E94A30681EC99E00E94A306C1FB60
:104FA000882780F91F928F938EEB99E09F938F93C0
:104FB0000E943C078CEB99E00E94A30680EB99E0ED
:104FC0000E94A306C2FB882780F91F928F938DEA67
:104FD00099E09F938F930E943C078BEA99E00E948F
:104FE000A30682EA99E00E94A306C3FBCC27C0F97E
:104FF0001F92CF938FE999E09F938F930E943C0774
:105000008DE999E00E94A3060E94F220EC0189E854
:1050100099E00E94A306DF93CF9384E899E09F93E1
:105020008F930E943C0782E899E00E94A30689E6DC
:1050300099E00E94A3068C2F81701F928F9386E6C1
:1050400099E09F938F930E943C078DB79EB78096FF
:105050000FB6F8949EBF0FBE8DBF84E699E00E9404
:10506000A3068DE499E00E94A306C1FB882780F97E
:105070001F928F938AE499E09F938F930E943C073D
:1050800088E499E00E94A30686E399E00E94A306C3
:105090008D2F81701F928F9383E399E09F938F935D
:1050A0000E943C0781E399E00E94A3068FE199E00A
:1050B0000E94A306D695D1701F92DF938CE199E0F0
:1050C0009F938F930E943C078AE199E00E94A30678
:1050D00088E099E00E94A306C2FB882780F91F920E
:1050E0008F9385E099E09F938F930E943C0783E024
:1050F00099E00E94A30681EF98E00E94A306C3FBFB
:10510000882780F91F928F938EEE98E09F938F935C
:105110000E943C078CEE98E00E94A30682EE98E085
:105120000E94A306C4FB882780F91F928F938FEDFE
:1051300098E09F938F930E943C078DED98E00E942A
:10514000A3068BEC98E00E94A306C5FB882780F994
:105150001F928F9388EC98E09F938F930E943C0757
:1051600086EC98E00E94A3068AEA98E00E94A306D3
:10517000C6FB882780F91F928F9387EA98E09F9358
:105180008F930E943C078DB79EB780960FB6F89418
:105190009EBF0FBE8DBF85EA98E00E94A3068DE9F1
:1051A00098E00E94A306C7FBCC27C0F91F92CF93BB
:1051B0008AE998E09F938F930E943C0788E998E0E2
:1051C0000E94A3060F900F900F900F9081E06FC088
:1051D000803109F49EC080F48E3009F096CE909113
:1051E0004302892F8B7F92FF84608093430282FF6A
:1051F0008DC084E39AE081C0863109F49AC0893178
:1052000009F083CE8FEB96E00E94A30685E896E036
:105210000E94A30687E596E00E94A30681E296E03D
:105220000E94A30686EF95E021C08A3249F190F4EE
:10523000873211F128F48E3108F467CE8D511DC0EC
:10524000893209F062CE87E79AE00E94A3060E94A5
:105250004309BCCF833468F48A3308F0A1C0853396
:1052600059F0883309F051CE85EF96E00E94A306ED
:10527000ADCF833409F049CE80E00E945427A6CFF9
:1052800087E99AE00E94A3060E9483219FCF809124
:105290004302807F809343028EEC96E00E94A30637
:1052A00083E99AE00E94A30681E080935302DF9194
:1052B000CF91089590914302892F8E7F90FF816056
:1052C0008093430280FF03C08BE69AE0CFCF8EE548
:1052D0009AE00E94A30680914302817F809343025B
:1052E00075CF90914302892F8D7F91FF82608093CB
:1052F000430281FF08C081E59AE00E94A3068091E5
:1053000043028160EBCF83E49AE0B0CF84E29AE07D
:10531000ADCF90914302892F877F93FF8860809360
:10532000430283FF03C088E19AE0E7CF8BE09AE075
:105330009DCF88EE95E00E94A3060E9482151F92E1
:105340008F938EEC95E09F938F930E943C07809102
:1053500014011F928F9387EB95E09F938F930E9488
:105360003C07809160021F928F9384EA95E09F939F
:105370008F930E943C070E946D229F938F937F938F
:105380006F938DE895E09F938F930E943C078DB7B4
:105390009EB742960FB6F8949EBF0FBE8DBF16CF34
:1053A00089536BCF80E008950C94D2298E518A30B6
:1053B00030F4E82FF0E0E057FE4F8081089580E060
:1053C0000895CF93C82F809153028130C1F0882374
:1053D00039F0823009F447C01092530280E00DC0CA
:1053E0000E94C01F8232D1F78C2F0E94D2298111D6
:1053F0001BC08C2F0E9472278170CF9108950E944C
:10540000C01F823289F38C2F0E94D42981111BC0C6
:10541000C431D9F060F4CB3071F0C031D1F08EE7F7
:1054200095E00E94A30613C081E090E0E5CFC93269
:1054300061F0C833A1F78EEC96E00E94A30684E8E1
:1054400095E00E94A30681E0D7CF1092530280E03E
:10545000D3CF0E941A2680E895E00E94A30682E03E
:1054600080935302F0CFC432C8F4CE3108F0BEC0EE
:10547000CB30E1F040F4C73009F4CCC082E294E0D4
:105480000E94A30626C0C331C1F1C431B9F780918F
:105490005202882351F1109252020AC0CB3409F40F
:1054A000B7C0C8F4C93299F3C83341F70E941A262D
:1054B00080915202882309F4C4C01F928F938CE11B
:1054C00094E09F938F930E943C070F900F900F9052
:1054D0000F9081E092CFC13509F494C0C23509F430
:1054E0008BC0CE3459F66AE08EC081E394E00E940E
:1054F000A30681E08093530280CF8BE094E00E946A
:10550000A30689EF93E00E94A306809109011F92F0
:105510008F9386EF93E09F938F930E943C0784EFD5
:1055200093E00E94A30682EE93E00E94A30680917E
:1055300008011F928F938FED93E09F938F930E94AA
:105540003C078DED93E00E94A3068EEC93E00E9451
:10555000A306809107011F928F938BEC93E09F939A
:105560008F930E943C0789EC93E00E94A30688EB8E
:1055700093E00E94A306809106011F928F9385EB12
:1055800093E09F938F930E943C0783EB93E00E94EC
:10559000A3068EE993E00E94A306809103011F9267
:1055A0008F938BE993E09F938F930E943C0789E947
:1055B00093E00E94A30682E893E00E94A3068091F4
:1055C00002011F928F938FE793E09F938F930E9426
:1055D0003C078DE793E00E94A3068DB79EB74896DF
:1055E0000FB6F8949EBF0FBE8DBF62CF8C2F0E9466
:1055F000D629809352025CCF61E0809152020E94D2
:10560000312656CF61E0809152020E94D52650CFBC
:105610006AE0F3CF8EE18093090182E38093080171
:105620008AE08093070184E18093060188E08093FB
:10563000030188E28093020184E294E00E94A306C1
:1056400037CF89E194E01CCF80915F0208959FB726
:10565000F894109256029FBF90917302943009F013
:1056600048C02091E9002F703091EC00932F917089
:1056700030FD90E8922B25E02093E9002091EB008B
:1056800020FF34C02091EE0027FF30C0209154024B
:10569000222321F02091E80025FF28C01092540217
:1056A00026E03091E80035FF14C08093F10080912E
:1056B000E80085FD27C08091E80080FFFCCF809145
:1056C000E8008E778093E8009F709093E90080E077
:1056D000089530917302343049F43091EB0035FD78
:1056E00005C0215041F481E0809354029F70909353
:1056F000E9008FEF0895EFE9FFE03197F1F700C07F
:105700000000CFCF8FB7F89421E0209356028FBFCF
:10571000DBCFCF93DF9300D00F92CDB7DEB7909160
:105720007302943011F589837B836A839093E90037
:105730008FEF9091E800815095FD06C095ED9A9508
:10574000F1F700008111F5CF8091E80085FF0DC0D1
:1057500050E040E063E070E0CE0101960E94612ECF
:105760008091E8008E778093E8000F900F900F9063
:10577000DF91CF910895BC0184E00C94892BBC018A
:1057800083E00C94892B9C0184E08093E9009FEFD7
:105790008091E800915085FD06C085ED8A95F1F76E
:1057A00000009111F5CF8091E80085FF0CC050E01A
:1057B00040E066E070E0C9010E94612E8091E8003F
:1057C0008E778093E8000895CF93DF93EC0181E01A
:1057D0008093E9008FEF9091E800815095FD06C01D
:1057E00095ED9A95F1F700008111F5CF8091E800D1
:1057F00085FF14C050E040E068E070E0CE010E94F8
:10580000612E8091E8008E778093E80088E0FE01A9
:10581000A7E5B2E001900D928A95E1F7DF91CF9173
:105820000895CF93FC01603221F58091730284309A
:1058300001F5C091E900CF702091EC00922F91709A
:1058400020FD90E8C92B82E08093E9008091E80078
:1058500080FF0CC050E040E060E270E0CF010E94A9
:10586000612E8091E8008E778093E800CF70C0931E
:10587000E900CF91089588ED9AE00E94A3068091F7
:105880007202811109C00E9440300E949D308091B7
:10589000E20084608093E200089584ED9AE00E9423
:1058A000A30610927202089580ED9AE00C94A3066C
:1058B0008CEC9AE00C94A30688EC9AE00E94A30674
:1058C0000C942922209155022F5F822F62E30E94BF
:1058D0004033992319F020935502089510925502F0
:1058E000809156028823F1F0809173028430C1F4D4
:1058F0009091E9009F702091EC00822F817020FD33
:1059000080E8892B95E09093E9009091EB0090FF5F
:1059100004C09091EE0097FD08C08F708093E9005D
:105920001092560208951092F1009091E80095FDB2
:10593000FACF9091E80090FFF0CF9091E8009E7729
:105940009093E800EACF42E061EC81E00E94BC2F36
:1059500042E261EC84E00E94BC2F42E261EC82E012
:105960000E94BC2F42E260EC83E00E94BC2F42E226
:1059700061EC85E00C94BC2F80917502833009F4B2
:1059800061C030F48130D1F1823009F49DC00895B6
:105990008A3009F489C08B3009F46FC0893009F06E
:1059A00050C080917402813209F04BC0809178021E
:1059B00090917902009719F0029709F042C0809106
:1059C000E800877F8093E8008091E80082FF35C07F
:1059D0009091F3008091F200029729F48091F100F8
:1059E0008B7F813021F48091F10080935F02809160
:1059F000E8008B778093E8000C94F02F809174027C
:105A0000813AF9F48091E800877F8093E8008091E3
:105A1000780290917902892B61F468E087E592E041
:105A200070E00E94FF2E8091E8008B778093E80061
:105A3000089560E090E080E0F3CF809173028111DF
:105A4000C3CF089580917402813AD9F7809178028A
:105A500090917902892BA9F78091E800877F809344
:105A6000E8008091E80080FFFCCF809114018093D2
:105A7000F1008091E8008E77BDCF80917402813271
:105A800001F78091780290917902892BD1F680916B
:105A9000E800877F8093E8000E94F02F80917602D3
:105AA000809314010C943D1A80917402813249F65E
:105AB0008091E800877F8093E8000E94F02F80911A
:105AC000770280936002089580917402813A09F010
:105AD000B8CF8091E800877F8093E8008091E8004C
