:100000000C94AE020C94F5020C94F5020C94F502DB
:100010000C94F5020C94F5020C94F5020C94F50284
:100020000C94F5020C94F5020C946B200C94272090
:100030000C949F270C94F5020C94F5020C94F50295
:100040000C94F5020C94F5020C94F5020C94F50254
:100050000C94F5020C947B270C94F5020C94F50299
:100060000C94F5020C94F5020C94F5020C94F50234
:100070000C94F5020C94F5020C94F5020C94F50224
:100080000C94F5020C94F5020C94F5020C94F50214
:100090000C94F5020C94F5020C94F5020C94F50204
:1000A0000C94F5020C94F5020C94F5020631FF094C
:1000B00074A1010975150026FF00952075088102BD
:1000C0000976150026FF00952075089102C00501EC
:1000D0000902A10185020901A100050919012905EB
:1000E00015002501950575018102950175038101B2
:1000F0000501093009311581257F950275088106B2
:1001000009381581257F950175088106050C0A3887
:10011000021581257F950175088106C0C00501097A
:1001200080A101850319012AB700150126B70095A2
:100130000175108100C0050C0901A1018504190198
:100140002AA002150126A002950175108100C006A3
:1001500060FF0961A1010962150026FF0095207565
:100160000881020963150026FF0095207508910299
:10017000C005010906A101050719E029E7150025B9
:10018000019508750181029501750881010507191E
:100190000029FF150026FF00950675088100050857
:1001A00019012905950575019102950175039101C4
:1001B000C00000000000000000000000000000007F
:1001C000000000000000000000000000000000002F
:1001D00000000000007E0F00D4FFFFFFC7000000FA
:1001E0007800000000000000002A2B28000000001A
:1001F00000000000000000000000000029000000D6
:10020000002C1E3420212224342627252E362D377B
:1002100038271E1F202122232425263333362E374C
:10022000381F0405060708090A0B0C0D0E0F1011E4
:1002300012131415161718191A1B1C1D2F313023F1
:100240002D350405060708090A0B0C0D0E0F1011B9
:1002500012131415161718191A1B1C1D2F313035BF
:100260004C290A002575002F002575005D28002502
:10027000640020002564002000256400200025641F
:10028000007C0025303258006D6F7573656B6579A1
:10029000205B62746E7C782079207620685D2872FD
:1002A00065702F61636C293A205B000000240025F3
:1002B0000026002A0000002100220023002900005F
:1002C000001E001F0020002B00F4000158270037FB
:1002D0006228000000010001000100005C00000134
:1002E000000100010057000000010001000100565C
:1002F000002A5D0100010001002E00000001000144
:10030000000100005C000001000100010057000036
:100310000001000100010056002A5D0100010001FA
:10032000002E000000010001000100005C0000013F
:10033000000100010057000000010001000100560B
:10034000002A5D0100010001002E000A002530385E
:1003500062003A200025303258000A722F632030A4
:10036000313233343536370A00FD377A585A0000B7
:1003700004E6D6B4460200210116000000742FE501
:10038000A3E0013800AF5D003D8889C65436C3172D
:100390004FE4F0523D1CF29C49F3710610FC7E10B4
:1003A0003B8E08BC6CA245A9047162C6ABFF622EED
:1003B000A749AD26B31E66EBFE2CE21F2EE790C5C3
:1003C0006AEF65B397595707C802B783D5684628BF
:1003D000AC0CA63231DD2E5C0E9BBAB405B9BFE180
:1003E000C4009C1FF84D60D639215A48DA6098EC59
:1003F000140271FF4B919B9BAABEAEA137D5BCC125
:10040000A706DE5D4C095E8F6ED4FFEB91A529AF88
:1004100005261FBCECB6C90399EF484033986F0816
:10042000FB036E26F81B18EFE9B035DDCEF0B80FF0
:1004300067736406223200000041017AC0F44B1C4D
:100440009A0001CB01B902000064C6E4E6B1C467BA
:10045000FB020000000004595A5B735D004B657994
:10046000626F6172642073746172742E0A005B4360
:100470005D005B445D005B535D005B575D005B525C
:100480005D0009027B00040100A0FA0904000001DC
:10049000030101000921110100012240000705812B
:1004A0000308000A090401000203000000092111E9
:1004B0000100012222000705820320000107050335
:1004C00003200001090402000103000000092111BA
:1004D0000100012281000705840320000A090403AA
:1004E000000203000000092111010001222200077F
:1004F00005850320000107050503200001120110F6
:100500000100000008EDFE13091000010203011CA8
:10051000037600690061006C003A00660036003422
:1005200000630032006200330063000000100364C7
:100530000075006D0062007000610064000000162C
:100540000369006D00630068006900700077006F48
:10055000006F0064000000040309040011241FBEA2
:10056000CFEFDAE0DEBFCDBF04B603FE27C0809137
:10057000450290914602A0914702B091480287300F
:10058000904BA740B04BD1F4109245021092460216
:10059000109247021092480214BE84B7877F84BF2E
:1005A0000FB6F894A89580916000886180936000F0
:1005B000109260000FBEE0E0F8E3099511E0A0E0C2
:1005C000B1E0E2E5F1E502C005900D92A437B10774
:1005D000D9F722E0A4E7B1E001C01D92A534B2072B
:1005E000E1F70E9498210C947B280C940000FF9363
:1005F000EF93E0917401F0917501309709F009953E
:10060000EF91FF910895FC018591803011F0EFDFAB
:10061000FBCF0895FF27E0E230E247FF0CC0419591
:1006200097FF09C0EDE26095709580959095611DEA
:10063000711D811D911D27FF02C0219530E350E2FD
:10064000AA27660F771F881F991FAA1FA41710F0EB
:10065000A41B63955A95A9F7AA3008F0A95FA05D7D
:10066000AF93F395611571058105910541F7ED3261
:1006700011F4EF93F395F21718F43F93F395FBCF32
:100680008F91B5DFFA95E1F70895E991F991859198
:10069000803021F0853219F0AADFF9CF089520E0EB
:1006A000E89455915532C1F3503311F46894559143
:1006B0005A3348F4505390F3220F022E220F220F88
:1006C000200D250FF4CF0EF4219589919991533681
:1006D00019F3533729F1533559F1BC01882799276C
:1006E000E8945C3621F48991999168945591543637
:1006F00039F446EF7EF077FF0DC08FEF9FEF0AC011
:1007000055374AE039F0583540E121F0523642E0A1
:1007100009F00895FF93EF937DDFEF91FF91B7CF3D
:10072000FF93EF93FC0181918030B9F360DFFBCF41
:10073000FF93EF9368DFF1CFDF93CF93CDB7DEB7B1
:100740002596A3DFCF91DF910895E8EDF0E0808159
:100750008E7F80831092E2001092DA001092E10006
:10076000A0EEB0E08C9181608C9380818F77808344
:1007700019BCA7EDB0E08C918E7F8C9380818F7E29
:1007800080831092230208952091E4003091E500C7
:1007900095E6A9012091EC00822F817020FF06C010
:1007A0008091E80080FF06C080E008952091E80075
:1007B00022FD1AC080913002882389F0853089F0AB
:1007C0008091EB0085FD0FC02091E4003091E500A1
:1007D00042175307F9F29150E1F684E0089582E060
:1007E000089583E0089581E00895EF92FF920F93BA
:1007F0001F93CF937C018B010E94C403C82F8111EA
:1008000017C08091E80085FD0BC08091E8008E77CD
:100810008093E8000E94C403882399F3C82F08C07E
:10082000F70181917F018093F1000150110949F78F
:100830008C2FCF911F910F91FF90EF900895809191
:10084000320287FF13C08091E80082FF06C08091CA
:10085000E8008B778093E80004C08091300281111A
:10086000F2CF0895809130028823D9F38091E80077
:1008700080FFF8CF8091E8008E77ECCF982F90938F
:10088000E900242F762F50E0891731F07091EC00A9
:100890002091ED005091F00021FD07C09F5F97303F
:1008A00071F78093E90081E008953091EB003E7F7D
:1008B0003093EB003091ED003D7F3093ED003091AF
:1008C000EB0031603093EB007093EC002093ED006F
:1008D0005093F0002091EE0027FDE0CF80E00895D6
:1008E000CF92DF92EF92FF920F931F93CF93DF93FC
:1008F000C8EDD0E088818F7E8883E7EDF0E08081CD
:100900008160808384E082BF81E0809323028881BC
:100910008E7F888302EE10E0F80110821092DA00D8
:1009200081EEC82ED12CF601108288818F778883C2
:1009300088818068888388818F7D888319BC109224
:1009400030021092310210922F0210922E0290EE7D
:10095000E92EF12CF70180818B7F80838881816073
:10096000888342E060E080E00E943E04F6018081DE
:100970008E7F8083F80180818160808380818860A0
:100980008083F70180818E7F808388818061888366
:10099000DF91CF911F910F91FF90EF90DF90CF905B
:1009A0000895FC01809138029091390286179707CB
:1009B000A0F06115710529F49091E8009E7790935D
:1009C000E80090E06115710551F4911108C0809123
:1009D000E80082FF34C080E00895BC01F2CF80912E
:1009E00030028823C1F18530C1F18091E80083FD98
:1009F00030C08091E80082FDEACF8091E80080FF5E
:100A0000E1CF8091F3002091F200382F611571053C
:100A100019F02830310558F091E02830310509F0FF
:100A200090E02091E8002E772093E800CBCF8191D1
:100A30008093F100615071092F5F3F4FE7CF8091A4
:100A40003002882341F0853041F08091E80083FF37
:100A5000BECF81E0089582E0089583E008958091FB
:100A60002502089587E797E790930108809300088F
:100A700088E19AE00FB6F894A895809360000FBEC5
:100A800090936000FFCF9C014FB7F89480911B02B8
:100A900090911C02A0911D02B0911E024FBF821BBB
:100AA000930B08952FB7F89480911B0290911C022C
:100AB000A0911D02B0911E022FBF08959C01FC0160
:100AC00032969FEF80E04191461751F09F3F19F415
:100AD000411101C0982F8F5F8630A9F79F3F09F41D
:100AE0000895290F311D97FD3A95F9016283089504
:100AF0008091F50181111092F50108958091F40122
:100B00009091F301892B9091F201892B80937601CA
:100B10009091F501992391F0892B8093760120E043
:100B200088E791E0FC013191CF0131112F5FF1E0B5
:100B30008E379F07B9F721110E947805E091FD01DA
:100B4000F091FE01309731F00280F381E02D86E7CD
:100B500091E009940895E92FEE0FEE0F9E0F890F93
:100B6000982F977086958695869525E0829FF0014F
:100B70001124EE51FE4F50E040E080E0219130E042
:100B8000092E02C0369527950A94E2F72170332783
:100B9000042E01C0220F0A94EAF7822B4F5F5F4FA9
:100BA0004530510559F70895E92FEE0FEE0F9E0FCE
:100BB000890F982F977041E001C0440F9A95EAF78A
:100BC00086958695869595E0899FF0011124EE51D2
:100BD000FE4F30E020E070E05191DF011197CB0132
:100BE000022E02C0969587950A94E2F7817081954E
:100BF0008527842385278C932F5F3F4F2530310530
:100C000059F708958091E1019091B001981301C0C6
:100C100008958F5F8770FACF882341F08095909177
:100C2000F30189238093F3010C947E0508958823B2
:100C300039F09091F301982B9093F3010C947E0579
:100C40000895882341F080959091F4018923809341
:100C5000F4010C947E050895882339F09091F401F5
:100C6000982B9093F4010C947E0508952091A70190
:100C70003091A8012817390771F09093A80180934B
:100C8000A701E091FD01F091FE01309721F0008471
:100C9000F185E02D099408952091A5013091A601D8
:100CA0002817390771F09093A6018093A501E09170
:100CB000FD01F091FE01309721F00680F781E02DD3
:100CC00009940895E091FD01F091FE01309721F023
:100CD0000190F081E02D099480E0089590910B023D
:100CE000803F59F480910C0287FF0DC010920C02D6
:100CF00091110BC01092060208C0813F81F48091CF
:100D00000C0218169CF3992381F080910D029091AA
:100D10000E02892B09F064C0109203020895823FED
:100D200049F497FFF0CF10920B0280910C028111D1
:100D3000ECCFE0CF833F19F41916ACF3E4CF209148
:100D40000D02893F29F41216F4F610920D02DBCF42
:100D50008A3F19F427FFD7CFF8CF20910E028B3F9F
:100D600029F427FFD0CF10920E02CDCF8C3F19F47B
:100D70001216CCF3C8CF843F31F480910A028E7FE3
:100D800080930A02C0CF853F21F480910A028D7FB3
:100D9000F7CF863F21F480910A028B7FF1CF873F06
:100DA00021F480910A02877FEBCF883F21F4809164
:100DB0000A028F7EE5CF8D3F31F48091A9018E7FAD
:100DC0008093A901A0CF8E3F21F48091A9018D7F4E
:100DD000F7CF8F3F09F097CF8091A9018B7FF0CF9C
:100DE00008958091A90180FD16C081FD16C082FD85
:100DF00016C0809103028823A1F0883280F428E095
:100E0000829FC001112468E270E00E94D227862FE1
:100E1000672B39F0089582E0089584E0089588E012
:100E2000089581E008958091A90180FD14C081FD9D
:100E300014C082FD16C080910602882381F084319F
:100E400080F422E3829FC001112464E170E00E94DB
:100E5000D227862F08958CE0089589E1089585E0D2
:100E6000089582E30895803F31F40E94130781952D
:100E700080930C020895813F19F40E941307F8CF64
:100E8000823F31F40E941307819580930B020895ED
:100E9000833F19F40E941307F8CF893F29F40E9479
:100EA000F10680930D0208958A3F21F40E94F10615
:100EB0008195F7CF8B3F31F40E94F10681958093A5
:100EC0000E0208958C3F19F40E94F106F8CF843F7A
:100ED00031F480910A02816080930A020895853F6F
:100EE00021F480910A028260F7CF863F21F480913D
:100EF0000A028460F1CF873F21F480910A02886062
:100F0000EBCF883F21F480910A028061E5CF8D3FCD
:100F100031F48091A90181608093A90108958E3FE9
:100F200021F48091A9018260F7CF8F3FB9F78091BA
:100F3000A9018460F1CFF894E82FE295EF70F0E01A
:100F400031A1282F2F7081E090E001C0880F2A95F1
:100F5000EAF7982F9095932391A392A1892B82A3CE
:100F6000789408959091F70192FF06C0282F287178
:100F70002830F9F4877F846093FF06C0282F2871FA
:100F80002831F1F4877E84612091F80120FF06C0AA
:100F9000382F38713830D9F4877F816021FF06C03F
:100FA000282F28712831D1F4877E816194FD877EB6
:100FB0000895282F24712430F9F68B7F8860DCCFC8
:100FC000282F2471243101F78B7E8861DDCF382FE3
:100FD0003171313019F78E7F8860E0CF282F217171
:100FE000213121F78E7E8861E1CF80FD02C02B9AEE
:100FF00008952B980895829590E09C01220F331F4D
:10100000220F331F2C7C9595879595958795837333
:10101000282B30E0C901880F991F8A7A35952795CA
:101020002575822B0895CF93DF939C013A95211566
:101030003F4168F5EC01CC27D170DC01AA27B270E2
:10104000AC01442754709C012227387094FF11C0D2
:1010500080E1CD2B09F480E0AB2B09F08062452BB9
:1010600009F08064232B09F08068FB01DF91CF91A8
:10107000099481E0CD2B09F480E0AB2B09F082606C
:10108000452B09F08460232B81F38860EECFDF913C
:10109000CF910895CF92DF92EF92FF920F931F931B
:1010A0008B019C01A9016627772780E14115510535
:1010B0006105710519F4B901A80180E0C52ED62E8D
:1010C000E72EFF24C114D104E104F10419F0885F74
:1010D000B701A6016A017B01F4E0F694E794D79486
:1010E000C794FA95D1F7C114D104E104F10419F0C1
:1010F0008C5FB701A6016A017B01E2E0F694E794F8
:10110000D794C794EA95D1F7C114D104E104F1044E
:1011100019F08E5FB701A6017695679557954795AB
:10112000452B462B472B09F08F5F80FF0DC02E9A71
:1011300081FF0CC0299AC901B8011F910F91FF903E
:10114000EF90DF90CF9008952E98F2CF2998F3CFAB
:10115000CF9384E090E00E943928C82F82E290E08B
:101160000E943928982F8C2FCF9108950F931F93A9
:10117000CF93DF93843000F561111EC024E0829F7D
:101180008001112450E0440F551F040F151F09530F
:101190001F4FC8010E943928C82FD0E0DC2FCC2770
:1011A000C80101960E9439289E01282BC901DF91B0
:1011B000CF911F910F91089590E080E0F8CF0F93A9
:1011C0001F93CF93DF93843030F5643020F54530A2
:1011D00010F5C42FD0E0CC0FDD1F2AE0629FC00DB8
:1011E000D11D112438E2839FC00DD11D1124CE01E1
:1011F00087960E943928082F10E0102F0027CE0173
:1012000088960E9439289801282BC901DF91CF9137
:101210001F910F91089590E080E0F8CF462F209124
:101220001F0230912002232B91F47E3F39F46E3F50
:1012300071F48091A3019091A4010895843038F451
:10124000743028F4653018F4672F0C94DF0890E0B0
:1012500080E00895CF93DF930E940E09EC0182385D
:101260009105A9F1D8F58133910509F496C048F5A7
:101270008932910509F48AC08A9709F495C0C1158D
:1012800021E5D20708F0BCC0C11530E5D30708F04E
:1012900014C1C83ED10508F09CC0C03ED10560F520
:1012A000C83AD10508F087C0C53AD10508F0FDC09D
:1012B000C130D10509F12097F9F0C430D105E0F42F
:1012C00040C08533910509F45AC0C997C1F6809191
:1012D000F701837089F0C0EED0E00EC0833E910527
:1012E00099F170F4803E910501F1823E910539F645
:1012F0008091F70182FD21C0CE01DF91CF91089549
:10130000863E910561F1873E910571F1843E91051C
:1013100009F0B5CF8091F80181FFEECF8091F70100
:10132000C7EED0E084FD0DC0E7CF8091F70180FDCE
:1013300012C19091F80190FFDFCFC3EED0E084FF9F
:10134000DBCFD0E0C0E0D8CF8091F70182FD06C1AD
:101350009091F80190FDBFCF84FFCECFF2CF809166
:10136000F70183FDDDCFC8CF8091F70183FDF9C080
:101370009091F80191FFF0CFC4EED0E0BDCF809105
:10138000F70185FFB9CFC9E2D0E0B6CF8091F70170
:1013900085FFB2CFC5E3D0E0AFCF8091F70186FFE4
:1013A000ABCFCAE2D0E0A8CF8091F70186FFA4CFEF
:1013B000C1E3D0E0A1CFCF3BD10518F6C85AD0E0A9
:1013C000CC0FDD1FC85EDE4F0990D881C02DD464DC
:1013D00093CFC11540E2D40758F4C11581E0D80776
:1013E00008F08ACFC03FD10508F4ABCFD06584CFD9
:1013F000C11590E4D90708F4A4CFDF70D06A7CCF80
:10140000C11525E5D20700F5C11534E5D30708F06D
:101410008AC0C11543E5D40708F071C0C11582E543
:10142000D80708F467C0CE018370992721E030E027
:1014300002C0220F331F8A95E2F7C695C69580E257
:10144000C89FE001112452C0C11599E5D907A8F43D
:10145000C11528E5D20708F06BC0C11536E5D307E2
:1014600008F06FCF8C2F0E94B207C82FD0E0DC2F7E
:10147000CC27CC27DF71D0623FCFC1154AE5D40716
:1014800008F45BC0CE0190568115904208F059CF08
:101490008D2F8F710E94B20790E0982F88278827A0
:1014A0009F719C012C2BE901E6CFC55AD0E0CB5EA1
:1014B000DE4FC881D0E0D0641FCFCE01E4E0969526
:1014C0008795EA95E1F783702C2F26952695237052
:1014D00040E2249F90011124382B8C2F8370C1E0AF
:1014E000D0E002C0CC0FDD1F8A95E2F7C22BD32BD0
:1014F000DC6802CFDC2FCC27C16FD06AFDCECE01D5
:101500008370992721E030E002C0220F331F8A95B3
:10151000E2F7C695C69590E2C99FE0011124C22B5F
:10152000D32BDA68E9CEDC2FCC27C46FD06AE4CEA7
:10153000DC2FCC27C06FD06ADFCE8C2F8F700E943B
:10154000B20734E0D695C7953A95E1F7CF709C2F56
:10155000EC01D069D1CEC9E3D0E0CECEC2EED0E06E
:10156000CBCEC6EED0E0C8CEBF92CF92DF92EF9244
:10157000FF920F931F93CF93DF938C01C090410292
:10158000D0904202E0904302F090440280913A02EF
:1015900090913B02A0913C02B0913D02C82AD92A09
:1015A000EA2AFB2ACFE1D0E0BC2ED701C6010C2EDF
:1015B00004C0B695A795979587950A94D2F780FDB4
:1015C0000EC0219788F7B12C8B2DDF91CF911F9101
:1015D0000F91FF90EF90DF90CF90BF900895B801EA
:1015E0008C2F0E942A09019761F3EECFCF93DF93EE
:1015F000EC010E94B40ABE01DF91CF910C942A093C
:101600000E94F60A292F2F7092959F7092509E305B
:1016100078F4E92FF0E0E358F74D0C94E627803F8B
:1016200019F020F4883E20F481E00895843FE1F32E
:1016300080E00895883EC0F3813FD1F7F5CF822F37
:101640008695869586950895CF93C091F801C2FB43
:10165000992790F9981781F080FBC2F9C093F8019F
:101660006091F70184E090E00E9447286C2F82E2AD
:1016700090E0CF910C944728CF910895CF93DF93BA
:10168000C7EDD0E060E0CE010E9447282196C11549
:1016900084E0D807B9F7DF91CF9108950F931F9396
:1016A000CF93DF938901843028F5611123C0423044
:1016B00008F521153C4531F42091000130910101DC
:1016C000232BC1F094E0899FE001112450E0440FE6
:1016D000551FC40FD51FC953DF4F612FCE010E9484
:1016E0004728602FCE010196DF91CF911F910F9176
:1016F0000C944728DF91CF911F910F9108950F937C
:101700001F93CF93DF938901843048F5643038F517
:10171000453028F521153C4531F4209100013091E8
:101720000101232BE1F0C42FD0E0CC0FDD1F9AE0A4
:10173000699FC00DD11D112498E2899FC00DD11D54
:101740001124612FCE0187960E944728602FCE0179
:101750008896DF91CF911F910F910C944728DF91CC
:10176000CF911F910F9108958F929F92AF92BF9248
:10177000CF92DF92EF92FF921F93CF93DF938090EF
:1017800000019090010181E090E09093010180932D
:1017900000018BEAC82E82E0D82EC0E07601D0E0AE
:1017A00014C0F50125913491412F6D2F8C2F0E948B
:1017B0007F0B82E0A80EB11C1F5F153091F78AE005
:1017C000E80EF11CDF5FD43019F0570110E0E9CFCB
:1017D00021E030E040E060E08C2F0E944E0B21E0E1
:1017E00030E041E060E08C2F0E944E0BCF5F88E23A
:1017F000C80ED11CC43091F6909201018092000174
:10180000DF91CF911F91FF90EF90DF90CF90BF902D
:10181000AF909F908F9008958091100283FF7EC0BB
:1018200088E892E00E94030380910A021F928F933E
:1018300083E892E09F938F930E949C0381E892E05B
:101840000E94030380910B02282F082E000C330BFB
:101850003F938F938EE792E09F938F930E949C0318
:101860008CE792E00E94030380910C02282F082E3F
:10187000000C330B3F938F9389E792E09F938F93F4
:101880000E949C0387E792E00E94030380910D026F
:10189000282F082E000C330B3F938F9384E792E0A0
:1018A0009F938F930E949C0382E792E00E94030320
:1018B00080910E02282F082E000C330B3F938F933C
:1018C0008FE692E09F938F930E949C038CE692E0B8
:1018D0000E940303809106021F928F9389E692E093
:1018E0009F938F930E949C0387E692E00E940303DC
:1018F0008091A9011F928F9384E692E09F938F932A
:101900000E949C0381E692E00E9403038DB79EB77C
:101910004C960FB6F8949EBF0FBE8DBF0E94520525
:101920009C0190910B0280910C02982B21F0309336
:1019300008022093070290910D0280910E02982BCD
:1019400021F03093050220930402E091FD01F09113
:10195000FE01309749F082E0809309020480F5810E
:10196000E02D89E092E00994089590E080E00E94E3
:101970004C0690E080E00E9436061092F30110922F
:10198000F2010E947E0586E0E9E0F2E0DF011D92AF
:101990008A95E9F710920602109203021092A901AB
:1019A0000C940C0C0E944A0860934102709342020E
:1019B00080934302909344020C94B50C0F931F93B1
:1019C00060914102709142028091430290914402E1
:1019D0008B019C0106701127222733270630110541
:1019E0002105310529F468601F910F910C94D20CE8
:1019F000677FFACF0F931F9341E050E060E070E003
:101A000004C0440F551F661F771F8A95D2F7CB017C
:101A1000BA01609570958095909500914102109162
:101A200042022091430230914402602371238223B9
:101A300093231F910F910C94D20C9091F1018095FA
:101A400089238093F101282F277039F4282F082E3D
:101A5000000C330B9217130621F49091F80192FFBA
:101A600007C08595859585950E94FA0C1092F10125
:101A700008950F931F9341E050E060E070E004C0D0
:101A8000440F551F661F771F8A95D2F78091410238
:101A900090914202A0914302B09144028A019B01BD
:101AA000082B192B2A2B3B2BC901B8011F910F9131
:101AB0000C94D20C60933A0270933B0280933C02E8
:101AC00090933D020C94B50C1092F401E8E7F1E01C
:101AD00086E0DF011D928A95E9F70C94B50C1F93FF
:101AE000CF93DF93CDB7DEB7AA970FB6F894DEBFDA
:101AF0000FBECDBF82E392E02091F100DC012D9377
:101B0000CD01B2E08A339B07B9F78091330283306D
:101B100009F471C0B8F4813009F448C0823009F486
:101B2000B2C08091E80083FF3AC180913202909167
:101B300033029A3008F033C1E92FF0E0E557F74D52
:101B40000C94E6278A3009F48DC08B3009F470C0FC
:101B5000893039F780913202813219F7809136024B
:101B600090913702009711F00297D9F68091E80022
:101B7000877F8093E8008091E80082FF37C09091D2
:101B8000F3008091F200029729F48091F1008B7F9D
:101B9000813021F48091F100809325028091E8004A
:101BA0008B778093E8000E941F04BBCF80913202A4
:101BB000813A09F0B6CF8091E800877F8093E800F2
:101BC0008091360290913702892B61F468E086E2B9
:101BD00092E070E00E94D1048091E8008B778093BE
:101BE000E8009FCF60E090E080E0F3CF809130028A
:101BF0008111C1CF96CF80913202813A09F091CF05
:101C00008091360290913702892B09F08ACF80911A
:101C1000E800877F8093E8008091E80080FFFCCF98
:101C200080910C018093F1008091E8008E77B9CF0C
:101C300080913202813209F074CF80913602909106
:101C40003702892B09F06DCF8091E800877F809360
:101C5000E8000E941F048091340280930C010E94CE
:101C6000640D5FCF80913202813209F05ACF8091AA
:101C7000E800877F8093E8000E941F04809135026E
:101C8000809324024ECF80913202813A09F049CFED
:101C90008091E800877F8093E8008091E80080FFD2
:101CA000FCCF80912402BECF803899F0823809F0B1
:101CB00076C0809136028F70873008F070C08093B4
:101CC000E9008091EB0085FB882780F91092E900FC
:101CD00006C080912E0290912F0291118260909106
:101CE000E800977F9093E8008093F1001092F10054
:101CF0008091E8008E77C5C1882309F4B2C1823093
:101D000009F04DC0809134028111B6C18091360234
:101D10008F702FEF280F263008F041C08093E90024
:101D20002091EB0020FFA8C1933031F48091EB00AB
:101D300080628093EB00A0C19091EB009061909342
:101D4000EB0021E030E001C0220F8A95EAF72093F2
:101D5000EA001092EA008091EB008860EACF8111DE
:101D60001EC0109134021F778091E3008078812B90
:101D70008093E3008091E800877F8093E8000E94D1
:101D80001F048091E80080FFFCCF8091E300806811
:101D90008093E30082E0111183E080933002809110
:101DA000E80083FF0AC08091E800877F8093E80005
:101DB0008091EB0080628093EB00AA960FB6F894B6
:101DC000DEBF0FBECDBFDF91CF911F910895805828
:101DD000823028F720913402309135022C3DE3E027
:101DE0003E07A1F583E08A838AE289834FB7F8949E
:101DF000DE01139620E03EE051E2E32FF0E0509345
:101E00005700E49120FF03C0E295EF703F5FEF7051
:101E10008E2F90E0EA30C0F0C7968D939D932F5F90
:101E2000243159F74FBF8091E800877F8093E80005
:101E30006AE270E0CE0101960E94D1048091E80030
:101E40008B778093E800ABCFC096E7CF80913602C6
:101E500090913702432F55274330510509F44AC06A
:101E600078F54130510509F485C08BE790E0E2E850
:101E7000F4E04230510509F092CF2091E800277F2D
:101E80002093E8002091380230913902821793079D
:101E900008F49C0140E02115310509F070C04111A2
:101EA0006EC08091E80082FDC9CF80913002882306
:101EB00029F2853019F28091E80083FFF2CFBECF7E
:101EC0004132510509F447C04232510509F067CF4C
:101ED0008430910508F063CFFC01EE0FFF1FED5930
:101EE000FE4F0190F081E02D815A9E4FDC018C91D4
:101EF00090E01DC0332721303105E9F0211531056F
:101F000079F022303105F9F02330310509F047CF5F
:101F1000EFE0F5E0E4918E2F90E0EFE0F5E007C010
:101F2000E7E5F5E0E4918E2F90E0E7E5F5E0009736
:101F300009F435CFA2CFEFE3F5E0E4918E2F90E0E6
:101F4000EFE3F5E0F4CFEDE2F5E0E4918E2F90E0E1
:101F5000EDE2F5E0ECCF8430910508F020CF880F5A
:101F6000991FFC01E559FE4F0190F081E02D89E0B9
:101F700090E083CF82E190E0EDEFF4E07ECF8091BE
:101F80003002882309F45ACF853009F457CF809165
:101F9000E80083FD53CF8091E80082FD82CF8091DD
:101FA000E80080FF78CF9091F3008091F200211536
:101FB000310519F08830910550F041E0089709F09B
:101FC00040E08091E8008E778093E80064CF4491F0
:101FD0004093F1003196215031090196E8CF8038C5
:101FE00009F0DDCE8091E800877F8093E800809142
:101FF00031028093F1007CCE8111D1CE1091340258
:10200000123008F0CCCE8091E800877F8093E80002
:10201000109331020E941F04112311F084E005C0C7
:102020008091E30087FDFACF81E08093300242E0A7
:1020300061EC81E00E943E0442E261EC84E00E9497
:102040003E0442E261EC82E00E943E0442E260EC27
:1020500083E00E943E0442E261EC85E00E943E047F
:102060009ECE80913402813009F099CE81E0933088
:1020700009F080E080932F021092E9008091E8003F
:10208000877F8093E8000E941F0489CE8823F1F1A6
:102090009CEF980F913A78F4E8E7F1E02EE731E011
:1020A0009191891303C0DF0111971C922E173F07EE
:1020B000B9F70C947E0590E2980F983088F48770F9
:1020C00021E030E0A90102C0440F551F8A95E2F7D4
:1020D000CA0180959091F40189238093F401E9CF9E
:1020E0009BE5980F933020F490E080E00C944C0630
:1020F00098E5980F973120F490E080E00C94360634
:10210000803F20F00E946E060C940C0C0895CF9333
:10211000C82F882309F456C08CEF8C0F813AF8F44D
:10212000E8E7F1E08EE791E0DF012D91C21759F069
:102130008A179B07D1F76C2F86E791E00E945E0516
:10214000CF910C947E052191C21303C0DF0111973A
:102150001C928E179F07B9F70E947E05ECCF80E294
:102160008C0F883068F4C77021E030E001C0220F86
:10217000CA95EAF78091F401822B8093F401E0CFB5
:10218000EBE5EC0FE33040F4F0E0EB5EFE4F8081D6
:1021900090E0CF910C944C06E8E5EC0FE73150F459
:1021A000F0E0EE0FFF1FE85EFE4F80819181CF913E
:1021B0000C943606C03F30F08C2F0E943307CF912D
:1021C0000C940C0CCF9108959FB7F89410922102B3
:1021D0009FBF90913002943009F048C02091E900EF
:1021E0002F703091EC00932F917030FD90E8922B7E
:1021F00025E02093E9002091EB0020FF34C02091DE
:10220000EE0027FF30C02091F601222321F020911B
:10221000E80025FF28C01092F60126E03091E80082
:1022200035FF14C08093F1008091E80085FD27C040
:102230008091E80080FFFCCF8091E8008E7780934A
:10224000E8009F709093E90080E00895309130029B
:10225000343049F43091EB0035FD05C0215041F494
:1022600081E08093F6019F709093E9008FEF0895CD
:10227000EFE9FFE03197F1F700C00000CFCF8FB753
:10228000F89421E0209321028FBFDBCFCF93DF931F
:1022900000D00F92CDB7DEB790913002943011F597
:1022A00089837B836A839093E9008FEF9091E800A4
:1022B000815095FD06C095ED9A95F1F700008111CA
:1022C000F5CF8091E80085FF0DC050E040E063E06D
:1022D00070E0CE0101960E94F5038091E8008E77B0
:1022E0008093E8000F900F900F90DF91CF910895A9
:1022F000BC0184E00C944611BC0183E00C944611AF
:102300009C0184E08093E9009FEF8091E800915068
:1023100085FD06C085ED8A95F1F700009111F5CF96
:102320008091E80085FF0CC050E040E066E070E07E
:10233000C9010E94F5038091E8008E778093E80040
:102340000895CF93DF93EC0181E08093E9008FEF54
:102350009091E800815095FD06C095ED9A95F1F7B2
:1023600000008111F5CF8091E80085FF14C050E096
:1023700040E068E070E0CE010E94F5038091E80043
:102380008E778093E80088E0FE01A6E2B2E001903B
:102390000D928A95E1F7DF91CF9108951F93CF9326
:1023A000DF93182FD0E0C0E0893311F4C0E5D0E00E
:1023B000812F0E948710209731F4812FDF91CF91D8
:1023C0001F910C9446108FE99FE00197F1F700C030
:1023D00000002197F0CF0F931F93CF93DF93C62F69
:1023E000D42F022FFC0182818823A1F06093400248
:1023F0000E94520590933F0280933E02C77081E095
:1024000001C0880FCA95EAF7DF91CF911F910F9114
:102410000C942C0680914002681335C080913E02D6
:1024200090913F020E944305883C910560F510E2BF
:102430001D0FCD17B9F080E28C0F883040F4C770C3
:1024400081E001C0880FCA95EAF70E942106183082
:1024500048F481E09D2F977001C0880F9A95EAF7A4
:102460000E942C06802F0E94CE11183098F4D7704D
:1024700081E001C0880FDA95EAF7DF91CF911F91D3
:102480000F910C942106C77081E001C0880FCA9596
:10249000EAF7F3CFDF91CF911F910F910895CF927B
:1024A000DF92EF92FF920F931F93CF93DF93C6E4D7
:1024B000D1E089EFE82E81E0F82ED12C01E010E088
:1024C0008991F894E82FE295EF70F0E021A18F70E8
:1024D000A80102C0440F551F8A95E2F7CA01922F46
:1024E000982B91A392A18095892382A3789400C010
:1024F000EAE4F1E030E020E0C12C4191A42FA29564
:10250000AF70B0E090968C9190E04F7002C09595BE
:1025100087954A95E2F780FD49C0802F022E01C0C1
:10252000880F0A94EAF7C82A2F5F3F4F25303105FC
:1025300021F7FE01319780810E949B0750EA5A954E
:10254000F1F7F7018081C81699F1C08281E0D82A9D
:10255000FFEFEF1AFF0A41E0CA34D40709F0B0CF09
:10256000DD2041F181E08093A2010E945205909309
:10257000A1018093A0018091A0019091A1010E94EE
:1025800043050697D8F08091F90180931702809156
:10259000FA01809318028091FB01809319028091C7
:1025A000FC0180931A021092A20108C080E0BBCF08
:1025B00080E0CDCF8091A2018111DDCF8D2DDF9103
:1025C000CF911F910F91FF90EF90DF90CF900895E2
:1025D000AF92BF92CF92DF92EF92FF920F931F9331
:1025E000CF93DF93EC018AE0A82E2881222309F4FF
:1025F0008CC02130C9F599818A81913021F42296CD
:102600000E94CE1105C0923029F422960E948710B4
:102610002196EBCF933021F422960E944610F8CFFA
:10262000943011F02196F4CF229630E020E0AE01F4
:102630004F5F5F4F8053990B8A30910550F02150C6
:10264000310930F38FE99FE00197F1F700C00000F6
:10265000F6CFA29EB001A39E700D11249C01260FFF
:10266000371F8981EA01E3CFE22FF0E0EF51FE4FFF
:10267000B490822F86958695869590E0FC01EF5266
:10268000FE4FE4902770F12C022E02C0F594E794DF
:102690000A94E2F731E0E322FF24FC01EF53FE4FFE
:1026A000C490D12C022E02C0D594C7940A94E2F7AC
:1026B00031E0C322DD24FC01EF54FE4F049110E011
:1026C00002C0159507952A95E2F701701127E114CC
:1026D000F10419F081EE0E948710C114D10419F0A1
:1026E00086EE0E9487108B2D0E94CE11CD2819F006
:1026F00086EE0E944610EF2819F081EE0E944610E7
:10270000012B09F485CF8CE27BCFDF91CF911F9114
:102710000F91FF90EF90DF90CF90BF90AF90089512
:102720006AEE7EEF90E080E00E94652860E082E043
:1027300090E00E94472860E083E090E00E944728F4
:1027400010923A0210923B0210923C0210923D020B
:1027500060E084E090E00E94472860E082E290E040
:102760000E94472860E085E090E00E94472860E0F2
:1027700086E090E00E9447286FEF87E090E00E949B
:10278000472840E050E0BA0188E090E00E945928D4
:1027900060E08DE090E00E94472840E050E0BA0100
:1027A00088E190E00E94592860E087E190E00E9473
:1027B000472840E050E0BA018CE190E00E9459289F
:1027C00070E060E080E290E00E94652840E050E028
:1027D000BA0188E190E00E94592840E050E0BA0137
:1027E0008FE090E00E94592840E050E0BA0183E178
:1027F00090E00C9459282F923F924F925F926F92E3
:102800007F928F929F92AF92BF92CF92DF92EF9280
:10281000FF920F931F93CF93DF9300D000D000D08F
:102820000F92CDB7DEB7FC017F836E838150954553
:102830004F018F3F910510F425E59226AE81BF81AF
:1028400012967C90772009F4CCC2BFEF8B169104CE
:1028500059F150F12AE282162DE5920621F01092EC
:102860009E014F016AC080919E0191E0892780936B
:102870009E01712C872D27960FB6F894DEBF0FBEF0
:10288000CDBFDF91CF911F910F91FF90EF90DF901F
:10289000CF90BF90AF909F908F907F906F905F9000
:1028A0004F903F902F90089580919E01882309F4C6
:1028B00035C110929E0140EC8416910408F086C048
:1028C00050E88516910408F0F3C080E4881691045E
:1028D00008F0B8C021E030E040E050E060E070E097
:1028E00080E090E0082D0E94F327E0917E012E2BDE
:1028F000E0917F013E2BE09180014E2BE091810120
:102900005E2BE09182016E2BE09183017E2BE091A2
:1029100084018E2BE09185019E2B20937E013093C4
:102920007F014093800150938101609382017093F5
:1029300083018093840190938501C40182519F4556
:10294000409708F06AC48FEF93E00E943928811104
:1029500090CF0EEE080D87EDE82EF12C0111DFC2AD
:1029600019821A821B821C82BB24BA9487010F5FD2
:102970001F4FC7010E94392889831A82882309F4CE
:1029800078CF813009F002C3670182E0C80ED11C04
:10299000C8010E943928082F8A83882309F469CF47
:1029A000C6010E943928182F8FEF800F833008F05E
:1029B000C5C2670193E0C90ED11C1B83112321F00E
:1029C000CE0101960E94E8127601D0CF9FEF8916C2
:1029D000910411F008F07ECF21E030E040E050E0BB
:1029E00060E070E080E090E08401005C11090E94EA
:1029F000F327E09196012E2BE09197013E2BE09179
:102A000098014E2BE09199015E2BE0919A016E2B7B
:102A1000E0919B017E2BE0919C018E2BE0919D012A
:102A20009E2B2093960130939701409398015093E9
:102A3000990160939A0170939B0180939C019093FC
:102A40009D017BCF21E030E040E050E060E070E0AD
:102A500080E090E08401005411090E94F327E09186
:102A600086012E2BE09187013E2BE09188014E2BB1
:102A7000E09189015E2BE0918A016E2BE0918B0140
:102A80007E2BE0918C018E2BE0918D019E2B20936B
:102A900086013093870140938801509389016093A8
:102AA0008A0170938B0180938C0190938D0145CFA7
:102AB00021E030E040E050E060E070E080E090E055
:102AC0008401005811090E94F327E0918E012E2BFA
:102AD000E0918F013E2BE09190014E2BE09191010E
:102AE0005E2BE09192016E2BE09193017E2BE091A1
:102AF00094018E2BE09195019E2B20938E013093B3
:102B00008F014093900150939101609392017093D3
:102B1000930180939401909395010FCFA0E48A16BE
:102B2000910408F06CC020907E0130907F014090AD
:102B300080015090810160908201B0918301A09149
:102B40008401209185012D8321E030E040E050E0B8
:102B500060E070E080E090E0082D0E94F327A22E54
:102B6000A220B32EB320C42EC420D52ED520E62E0D
:102B7000E620F72EFB22082F0A231D8119230E942D
:102B80000C2809F06ECE40EC8416910408F096C033
:102B900050E88516910408F0F5C080E48816910489
:102BA00008F0C1C021E030E040E050E060E070E0BB
:102BB00080E090E0082D0E94F32720953095409505
:102BC00050956095709580959095222133214421F0
:102BD000552166217B238A23AD819A2320937E0190
:102BE00030937F0140938001509381016093820173
:102BF0007093830180938401909385013ACE40E8DD
:102C000084169104E8F4209086013090870140906A
:102C100088015090890160908A01B0918B01A09148
:102C20008C0150918D015D8321E030E040E050E067
:102C300060E070E080E090E08401005411098DCFE5
:102C400080EC88169104E8F420908E0130908F017A
:102C5000409090015090910160909201B091930149
:102C6000A0919401909195019D8321E030E040E096
:102C700050E060E070E080E090E0840100581109CD
:102C80006CCF209096013090970140909801509021
:102C9000990160909A01B0919B01A0919C012091B3
:102CA0009D012D8321E030E040E050E060E070E0E5
:102CB00080E090E08401005C11094FCF9FEF8916FE
:102CC000910411F008F06ECF8401005C110921E03D
:102CD00030E040E050E060E070E080E090E00E9492
:102CE000F327209530954095509560957095809587
:102CF0009095222133214421552166217B238A236B
:102D0000FD819F2320939601309397014093980172
:102D10005093990160939A0170939B0180939C0159
:102D200090939D01A6CD84010054110921E030E06B
:102D300040E050E060E070E080E090E00E94F32727
:102D4000209530954095509560957095809590951B
:102D5000222133214421552166217B238A23BD81F1
:102D60009B232093860130938701409388015093E1
:102D7000890160938A0170938B0180938C019093F9
:102D80008D0177CD84010058110921E030E040E049
:102D900050E060E070E080E090E00E94F327209532
:102DA000309540955095609570958095909522212D
:102DB00033214421552166217B238A23ED819E23E3
:102DC00020938E0130938F01409390015093910195
:102DD0006093920170939301809394019093950175
:102DE00048CD2FEF8216910409F068F540E484166F
:102DF000910408F050C0A0907E01B0907F01C09077
:102E00008001D0908101E0908201F0908301A09137
:102E100084011091850121E030E040E050E060E065
:102E200070E080E090E0082D0E94F327A222B322F8
:102E3000C422D522E622F7220A2F082319230E9452
:102E40000C2809F417CDE0315FE5F50709F4AAC0B5
:102E5000E1318FE5F80709F4ABC0E33F5CE5F50726
:102E600009F4ACC008F07BC2E83D9CE5F90709F421
:102E7000A1C0E93DACE5FA0709F4ACC0E73DBCE50B
:102E8000FB0709F077C226E241EE61EE8E819F8159
:102E90000E94EB11EECC50E885169104A0F4A090AE
:102EA0008601B0908701C0908801D0908901E090A0
:102EB0008A01F0908B01A0918C0110918D0180E42A
:102EC000881A9108A8CF90EC89169104A0F4A090DC
:102ED0008E01B0908F01C0909001D0909101E09050
:102EE0009201F0909301A091940110919501B0E8A6
:102EF0008B1A910890CFA0909601B0909701C09046
:102F00009801D0909901E0909A01F0909B01A091D6
:102F10009C0110919D0120EC821A91087CCFE11454
:102F200044E0F40609F4A5CCC7010E9439288111B8
:102F300001C001505FEFE51AF50A10CD043009F029
:102F400043CD6701A4E0CA0ED11CC70103960E94BD
:102F50003928112309F48DCC882309F48ACC8150B7
:102F6000990BB89E9001B99E300D1124E12FE150CC
:102F7000FF0BCF01820F931F019708F425CDAFE916
:102F8000BFE01197F1F700C00000F6CFCE01019627
:102F90000E94E812680118CD81E00E94390D0E945C
:102FA000DE0C67CC81E00E94FA0C0E94DE0C62CC41
:102FB00082E0F9CF27E245EE65EE68CF26E241EEEA
:102FC00060EE64CF27E245EE64EE60CF26E241EE8C
:102FD00062EE5CCF28E241E0EFCF8091F7018061A3
:102FE000F6E08F16FCE59F0609F49FC08091F7017B
:102FF000886027E082162CE5920608F496C080913E
:10300000F701806292C08091F7018D7F4CE08416B9
:103010004CE5940609F489C060F48AE088168CE5D2
:10302000980609F497C008F48FC08091F7018E7F4D
:103030007CC08091F701877FAEE08A16ACE59A06E6
:1030400009F473C08091F7018B7FBFE08B16BCE55C
:103050009B0608F46AC08091F7018F7E66C0EBEF93
:103060008E16ECE59E0609F467C068F523E182162A
:103070002CE5920609F47AC090F451E185165CE5DE
:10308000950609F46FC082E188168CE5980609F070
:103090002BC10E94640D8091F7018F7746C095E1A6
:1030A00089169CE5990609F469C008F47DC08091F1
:1030B000F8018160BAEF8B16BCE59B0609F014C1DC
:1030C0008093F80111C1EFEF8E16ECE59E0609F42E
:1030D00051C0A0F48091F8018D7F2DEF82162CE570
:1030E000920671F38091F8018E7F4EEF84164CE5C5
:1030F000940630F38091F8018360E2CF51E08516A9
:103100005DE5950609F459C008F444C060E092E01A
:1031100089169DE5990609F0E7C08EE090E00E94CF
:103120004728E2C08091F70181608093F701DCC0FD
:103130008091F7018460F9CF8091F8018260C0CF5F
:103140008091F7018064F1CF0E94640D8091F701B6
:103150008068EBCF8091F7018C60E7CF8091F70119
:103160008F7DE3CF8091F7018F7BDFCF8091F701D7
:10317000837FDBCF8091F8018C7FA2CF8091F70114
:1031800082FB992790F921E0922790FB82F990FB2E
:1031900083F9CBCF8091F801982F909591708E7F15
:1031A000892B90FB81F98CCF0E94640D9091F701DF
:1031B000892F97FB87F98058B8CF61E0AECFA6E1A1
:1031C0008A16ACE59A0609F09FC08091F4018A7ACC
:1031D00091E009F490E090939F0169E2811165E329
:1031E00086E791E00E945E050E947E0542CB85E362
:1031F000CCC00E94640D2E9829982B98BFEFE4E371
:10320000FCE0B150E040F040E1F700C000000E9457
:10321000320581E0A1C080E09FC020E182162FE549
:10322000920609F4B9CE82E041E184164FE5940696
:1032300009F4B3CE83EF88168CE5980609F4BECE68
:1032400008F0B1C0A8ED8A16ACE59A0609F4B2CE32
:10325000B9ED8B16BCE59B0609F4BCCEE7ED8E16E6
:10326000ECE59E0609F40FCE10924002E2E08E16C5
:10327000ECE59E0608F4A3CFF6E18F16FCE59F0669
:1032800030F0C4018A5F9C45099708F098CF0E94EE
:10329000A8089093F8018093F70120E182162CE5AD
:1032A000920609F45BCF08F0DACE58E085165CE5AB
:1032B000950609F445CF08F0A6CE94E089169CE562
:1032C000990609F435CF08F088CEB2E08B16BCE53C
:1032D0009B0609F427CF8091F7018260E3E08E1608
:1032E000ECE59E0609F421CF6091F7011091F801F9
:1032F00084E090E00E944728612F82E290E00E94E3
:1033000047280E94640DB5CAAAE58A16ADE59A065B
:1033100009F47FCF70F48114ECE59E0609F469CFBF
:10332000FEED8F16FCE59F0609F0A4CA0E949013DB
:10333000A0CA2BE582162DE5920609F46CCF4CE568
:1033400084164DE5940609F095CA8091F80182FB38
:10335000882780F991E089270E94240B8BCAE53FDA
:103360002CE5F20709F432CE08F42CCEE63F5CE5FA
:10337000F50739F177247394E631FC4509F07ACAF0
:1033800080919F01811133CF89E2E8E7F1E02EE7D8
:1033900031E09191891303C0DF0111971C922E1720
:1033A0003F07B9F721CFF5EF8F16FCE59F0609F42B
:1033B0000DCE08F407CE46EF84164CE5940609F0CE
:1033C00053CF27E245EE66EE61CD0F931F93CF9367
:1033D000DF9300D000D000D0CDB7DEB78C01909342
:1033E000A4018093A3011B821C821D821E828EEF8A
:1033F00089838A8381E08B830E94520581609D834B
:103400008C83011580E2180708F03FC0C801805E78
:103410009109089728F067E176E00115110511F48C
:103420006CE276E0C8010E941308802F0E9487108A
:103430008FE39CE90197F1F700C000000E9452055C
:1034400081609D838C831B82011590E2190720F512
:10345000802F0E944610C801805E9109089728F0CD
:103460006CE076E00115110511F461E276E0C80127
:103470000E94130826960FB6F894DEBF0FBECDBF8C
:10348000DF91CF911F910F910895BE016F5F7F4F24
:10349000C8010E94FB13CCCFBE016F5F7F4FC801F4
:1034A0000E94FB13E7CFCF92DF92EF92FF921F9320
:1034B000CF93DF93182FC0904102D0904202E0904A
:1034C0004302F090440280913A0290913B02A09115
:1034D0003C02B0913D02C82AD92AEA2AFB2ACFE150
:1034E000D0E0D701C6010C2E04C0B695A7959795DC
:1034F00087950A94D2F780FF13C0412F60E08C2F8C
:103500000E94B6088130910559F00E94E51981E0CA
:10351000DF91CF911F91FF90EF90DF90CF900895B2
:103520002197F8F6412F60E080E00E94B608EDCFC9
:103530004F925F926F927F928F929F92AF92BF92C3
:10354000CF92DF92EF92FF920F931F93CF93DF936F
:1035500000D000D00F92CDB7DEB76C01FC018381A3
:103560009481892B31F08081918189238F3F09F0EB
:10357000EDC20F900F900F900F900F90DF91CF91B1
:103580001F910F91FF90EF90DF90CF90BF90AF9081
:103590009F908F907F906F905F904F9008950E94C2
:1035A000B40A182F682F89819A810E94D4056981F5
:1035B0007A81812F0E940E09B6010E94FB138111AE
:1035C00020C08091F1018770A1F2F60182818823E9
:1035D00081F282E00F900F900F900F900F90DF918B
:1035E000CF911F910F91FF90EF90DF90CF90BF9000
:1035F000AF909F908F907F906F905F904F900C94C2
:103600001D0DF6018281008111818823D9F1C80145
:103610000E94B40AF82E682FC8010E94D405B80190
:103620008F2D0E942A098C01882EF601F280A58038
:10363000A2943FE0A3228091F1018770A1F0EF2CCA
:10364000FF2091F0812F807F803421F080E2800F75
:10365000883048F082E00E941D0D8091F101877052
:10366000EE24E3948111E12CB12EB2942FE0B2222A
:10367000FBE0FB1508F440C0EB2DF0E0EB56F74DF6
:103680000C94E627C8010E94AB05F82EC8CF212F65
:103690002F70A22E107F19F0A29490EFA922FF2084
:1036A000C9F0AA2069F080E2800F883010F0811004
:1036B0000BC08091F401A82AA092F4010E947E051B
:1036C000802F0E94871018C08091F301A82AA09231
:1036D000F301F4CF802F0E944610AA2069F0A09435
:1036E000005E083010F081103DC08091F401A822E6
:1036F000A092F4010E947E05EB2DE850FF0B349759
:1037000020F40E9462060E94F507EE2009F431CFF2
:103710008091F10180FD2DCFF6011282859585956E
:1037200085950E94390DC6010E94981A8091F10179
:103730008595859585950F900F900F900F900F9020
:10374000DF91CF911F910F91FF90EF90DF90CF907D
:10375000BF90AF909F908F907F906F905F904F90B1
:103760000C94FA0C8091F301A822A092F301C2CF2D
:10377000312F3F70932E107F103219F0929480EF0A
:103780009822882071F081E0881681F1FF20D9F11C
:10379000AA2091F1F601858180FF92CF8F708583F9
:1037A0002BC0FF20B1F09091F501892D892BA1103C
:1037B00003C00E942C06A0CFE1E0AE12FACF209108
:1037C000F80122FD99CF891709F496CF8093F5016E
:1037D00093CFA11006C00E947805892D0E94210672
:1037E0008BCFF1E0AF1609F487CFF5CFFF2031F092
:1037F00022E02A1508F480CF892DDBCF31E03A157D
:1038000008F47ACFEACFAA2041F3F9E38F1297C1E7
:103810002FEF37EE83E0215030408040E1F700C0C9
:1038200000008DC1812F86958695837061F081306F
:1038300009F062CFC8019370F11002C090E080E0FF
:103840000E94360659CFC8019370F11002C090E073
:1038500080E00E944C0650CF802FFF2039F00E945C
:1038600033070E940C0C0E940C0C46CF0E946E067F
:10387000FACF812F837009F066C0F1103DCF802F01
:10388000829586958770880F880F602F6F70462EFF
:10389000512C712C612C082E04C0440C551C661C44
:1038A000771C0A94D2F740E050E0BA0104FF0FC041
:1038B0004FE050E060E070E004C0440F551F661F09
:1038C000771F8A95D2F74095509560957095812F16
:1038D000869586958370823019F1D8F400913A026A
:1038E00010913B0220913C0230913D02813069F001
:1038F0004429552966297729CB01BA016023712310
:10390000822393230E945A0DF7CE402A512A622A1D
:10391000732ACB01BA016429752986299729F2CF28
:10392000442955296629772900913A0210913B02D2
:1039300020913C0230913D02CB01BA0160277127F2
:1039400082279327DFCF8695FF2011F0812F81708A
:10395000882309F4D1CE802F829586958770880FB1
:10396000880F602F6F70462E512C712C612C082E01
:1039700004C0440C551C661C771C0A94D2F740E026
:1039800050E0BA0104FF0FC04FE050E060E070E08B
:1039900004C0440F551F661F771F8A95D2F74095C4
:1039A000509560957095812F8695869583708230AD
:1039B00019F1D8F400914102109142022091430282
:1039C00030914402813069F04429552966297729CC
:1039D000CB01BA0160237123822393230E94D20C6E
:1039E0008BCE402A512A622A732ACB01BA0164295C
:1039F000752986299729F2CF4429552966297729DF
:103A00000091410210914202209143023091440200
:103A1000CB01BA016027712782279327DFCF1F7060
:103A2000FF2029F0812F0E94390D802FC2CE802FD8
:103A30000E942106812F0E94FA0C5ECE802F92EF09
:103A4000891609F454C0981578F0E0EF8E1639F114
:103A5000F1EF8F1609F443C0FF2009F46BC0A110E9
:103A60002FCE812F8F7140C023EF821609F444C0FE
:103A700034EF8312F1CFFF2009F451C01F71812F61
:103A80000E94390D8091F80182FD07C0E8E01E9F79
:103A9000C001112483608093F101812F25C0FF2094
:103AA000C9F081E08A1508F427CE1F7161E070E04B
:103AB00080E090E004C0660F771F881F991F1A9559
:103AC000D2F70091410210914202209143023091BD
:103AD0004402A0CF92E09A1508F40ECEE6CF812FD3
:103AE0008F71FF2009F4A7CF0E94390D05CE812FD9
:103AF0008F71FF20C9F39FCF60E070E0CB01FF2002
:103B000009F46CCF1F7161E070E080E090E004C0C8
:103B1000660F771F881F991F1A95D2F75FCF81E034
:103B20000E941D0DF1E0FA1508F0E6CD82E00E943A
:103B30001D0DE2CDAA2039F0893309F469CE802F1A
:103B40000E944610D9CD812F8F7175CF85E0DE019F
:103B5000119601900D928A95E1F7F60122818981F3
:103B60009A8121111CCD0E94AB05182F20CD1F93E7
:103B7000CF93DF938091AF01807FA9F48091AC0156
:103B8000882389F08091E101D091B0016091AA0170
:103B90007091AB01A091AD01B091AE01C62FC723CA
:103BA00016E0D81304C0DF91CF911F91089590E0E3
:103BB000109711F0CF3F19F401968770F2CF189F3C
:103BC0009001199F300D1124F901EF54FE4F4181EE
:103BD0004713F2CF40814613EFCF42814111ECCF22
:103BE000438154814A1B5B0B483C510528F7809167
:103BF000AF018F7080618093AF01F901EA54FE4FED
:103C000080818F70806180838AEA91E00E94981A97
:103C1000DF91CF911F910C940206AF92BF92CF9289
:103C2000DF92EF92FF920F931F93CF93DF93CDB765
:103C3000DEB761970FB6F894DEBF0FBECDBF8C0123
:103C400085E0F801DE011D9601900D928A95E1F75D
:103C5000F80180819181E2802AEAA22E21E0B22E31
:103C60006091AD017091AE016115710509F43EC11D
:103C70003091AA014091AB01232F24232F3F09F457
:103C800035C1C380D480F090AC01F601E61BF70B80
:103C9000FF2009F4FBC02091AF01522F507FE83C78
:103CA000F10508F0BBC0511178C0FE2C491321C0AA
:103CB00038131FC0E1101DC02F7020612093AF0189
:103CC000C5010E94981A8091AF01F80185838F2D5C
:103CD00061960FB6F894DEBF0FBECDBFDF91CF91D6
:103CE0001F910F91FF90EF90DF90CF90BF90AF901A
:103CF0000895CD2829F0282F29232F3F09F014C13A
:103D000020E0F22FF170DF2E20FF3DC02091E10175
:103D10004091B00156E0241315C08D879E878D8594
:103D20009E850E94F60A292F22952F702230F8F0E6
:103D3000243020F59F70F9F0F8019581907FD9F437
:103D4000D12C1FC030E0529FF001539FF00D112481
:103D5000EF54FE4F6181961306C06081861303C045
:103D60006281E61210C02F5F3F4F2770D4CF9F7043
:103D700011F0882329F3805E883010F3C8010E9477
:103D8000981AFD2CA4CFEE2009F4A1CF8091AF01A9
:103D900081608093AF01F12C9ACF491312C0381380
:103DA00010C0E1100EC0F8012583C8010E94981AC6
:103DB00086E0F801AAEAB1E001900D928A95E1F758
:103DC00086CF8D879E878D859E850E94000B8823D8
:103DD00009F1EE20F9F08091AF01803270F020916E
:103DE000AA013091AB0138872F831986DB86CA86FA
:103DF0008C87CE0107960E94981A86E0F801AAEAFD
:103E0000B1E001900D928A95E1F70E94B71DFF2461
:103E1000F3945DCFC8010E94981AF9CF51110AC0DE
:103E20008AEA91E00E94981A86E0F50111928A953B
:103E3000E9F7B1CF49130FC038130DC0E1100BC023
:103E4000F8012583C8010E94981A86E0F5011192B5
:103E50008A95E9F73CCF8D879E878D859E850E9448
:103E6000000B8823B9F2EE20A9F28091AF018032D5
:103E700020F22091AA013091AB013A8329831B8261
:103E8000DD82CC828E83CE010196B5CFE83CF10570
:103E9000E0F6FE2CEE2009F4BDCF491316C038130E
:103EA00014C08091AF0180FD83CF982F907F09F4DB
:103EB0007FCFF8018583903F09F477CF982F907FCB
:103EC000905F8F70892B858370CF8D879E878D85BE
:103ED0009E850E94000B811190CF8091AF0181607F
:103EE0008093AF01C8010E94981AF1CEEE2009F428
:103EF00091CF8D879E878D859E850E94000BF82E21
:103F0000882309F487CF86E0F801AAEAB1E001909E
:103F10000D928A95E1F78091AA019091AB010E94E0
:103F2000F60A0E94B71DD3CE21E02E25EACE1F93BC
:103F3000CF93DF93CDB7DEB767970FB6F894DEBFA8
:103F40000FBECDBF342F4B8B252F5C8B6D8B7E8BA3
:103F50008F8B8E899F8961111092F3011A8A198AB9
:103F60003D872E876F87998B888B86E0FE013D9673
:103F7000DE01179601900D928A95E1F7CE01079622
:103F80000E940D1E882389F016E08091E101909136
:103F9000B001891349C067960FB6F894DEBF0FBE13
:103FA000CDBFDF91CF911F91089586E0FE01379636
:103FB000DE01119601900D928A95E1F78A859B8525
:103FC000892B11F38F81988589238F3FE9F2209106
:103FD000B00130E0C9010196877099274091E10155
:103FE0004817190671F40E94640D1092B0011092E6
:103FF000E10186E0EAEAF1E0DF011D928A95E9F746
:10400000C3CF96E0929FD001939FB00D1124AF547F
:10401000BE4FFE01319601900D929A95E1F7809383
:10402000B0010E940206B0CF819FC00111248F54BD
:104030009E4F0E940D1E882309F4ADCF8091E101AF
:1040400090E00196877099278093E1019ECF1F929F
:104050000F920FB60F9211242F933F934F935F93BC
:104060006F937F938F939F93AF93BF93CF93DF9380
:10407000EF93FF93D091E900DF708091EC00C82F9F
:10408000C17080FDC0E81092E9008091F000877F48
:104090008093F00078940E946F0D1092E900809157
:1040A000F00088608093F000CD2BCF70C093E900C2
:1040B000FF91EF91DF91CF91BF91AF919F918F9140
:1040C0007F916F915F914F913F912F910F900FBE14
:1040D0000F901F9018951F920F920FB60F921124F8
:1040E0002F933F934F935F936F937F938F939F9300
:1040F000AF93BF93EF93FF938091E10082FF15C0D0
:104100008091E20082FF11C08091E1008B7F80935B
:10411000E100209122022F5F822F62E30E94C627D6
:10412000992309F4BEC0209322028091DA0080FF17
:1041300028C08091D80080FF24C08091DA008E7F53
:104140008093DA008091D90080FFE1C080E189BDD1
:1041500082E189BD09B400FEFDCF81E08093300289
:104160008EE694E00E94030380912302811109C02E
:104170000E94A5030E9470048091E20084608093F5
:10418000E2008091E10080FF1BC08091E20080FF8F
:1041900017C08091E2008E7F8093E2008091E20060
:1041A00080618093E2008091D80080628093D80083
:1041B00019BC85E08093300286E794E00E940303F7
:1041C0008091E10084FF2DC08091E20084FF29C02E
:1041D00080E189BD82E189BD89B5982F917080FF0A
:1041E000FBCF8091D8008F7D8093D8008091E10033
:1041F0008F7E8093E1008091E2008F7E8093E200C9
:104200008091E20081608093E200809131028823F6
:1042100009F487C084E0809330028AE794E00E942A
:1042200003038091E10083FF2BC08091E20083FFB4
:1042300027C08091E100877F8093E10082E0809336
:104240003002109231028091E1008E7F8093E10074
:104250008091E2008E7F8093E2008091E200806195
:104260008093E20042E060E080E00E943E048091A2
:10427000F00088608093F0008EE794E00E940303D2
:10428000FF91EF91BF91AF919F918F917F916F912E
:104290005F914F913F912F910F900FBE0F901F9004
:1042A00018951092220280912102882309F43DCFB3
:1042B000809130028430C1F49091E9009F70209188
:1042C000EC00822F817020FD80E8892B95E090938F
:1042D000E9009091EB0090FF04C09091EE0097FDF3
:1042E00008C08F708093E900109221021ECF1092B7
:1042F000F1009091E80095FDFACF9091E80090FFD1
:10430000F0CF9091E8009E779093E800EACF19BC37
:104310001092300282E794E00E940303109223027D
:1043200030CF8091E30087FD93E09093300275CF0A
:10433000CDB7DEB7E4970FB6F894DEBF0FBECDBFA2
:1043400084B7877F84BF0FB6F894A89580916000EA
:10435000886180936000109260000FBE80E890E05A
:104360000FB6F89480936100909361000FBE85B7FB
:10437000806885BF85B7806885BF84EE90E19093A3
:10438000750180937401269A219A239A0E94A503AD
:104390000E9470048091E20084608093E20078942F
:1043A000809130028823A1F01091E9001F70909154
:1043B000EC00892F817090FD80E8182B1092E900A5
:1043C0008091E80083FD0E946F0D1F701093E9003B
:1043D00082E084BD93E095BD9AEF97BD80936E0017
:1043E00084EF0E949B0785EF0E949B0786EF0E9447
:1043F0009B0787EF0E949B0786E60E949B0787E941
:104400000E949B0786EC0E949B0784E30E949B0707
:1044100085E30E949B071092F901109217021092F7
:10442000FA01109218021092FB01109219021092D8
:10443000FC0110921A0290E080E00E9441288A3E1E
:104440009E4F11F00E94901382E090E00E94392864
:10445000809310020E94A8089093F8018093F701BE
:104460000E944F128FE39CE90197F1F700C0000012
:104470000E944F1280911A0280FF17C06FEF83E2F3
:1044800090E00E9447286FEF84E290E00E94472866
:104490006FEF85E290E00E9447286FEF7FEF90E09A
:1044A00080E00E9465280E94320583E090E00E942F
:1044B0003928682F70E090E080E00E945A0D6091EA
:1044C00041027091420280914302909144020E9405
:1044D0004A082E9A299A2B9A9FEFE7EEF3E0915023
:1044E000E040F040E1F700C000002E9829982B989A
:1044F0002FEF47EE83E0215040408040E1F700C0BD
:1045000000002E9A299A2B9A9FEFE7EEF3E0915044
:10451000E040F040E1F700C000002E9829982B9869
:1045200083E290E00E943928833409F0B9C484E220
:1045300090E00E9439288B3F09F0B2C485E290E0F8
:104540000E9439288E3C09F0ABC422982A9A5498CC
:104550005C9A83B182FB882780F94C9966C090E011
:10456000892B8093020282E091E09093FE01809378
:10457000FD018DE594E00E94030387E192E024E0D1
:10458000280F2CABE5E54E2EE3E05E2E8091300245
:10459000853099F489E594E00E94030370E4F72ED6
:1045A00000E112E180913002853009F440C00E94A0
:1045B000640D0E9462060E94F5070E944F12882334
:1045C00059F08FB7F89440911B0250911C026091F2
:1045D0001D0270911E028FBF51E1652E52E0752EB3
:1045E00067E1C62E62E0D62E10E000E00BABF601CC
:1045F00031906F01F30121903F01231052C00F5FF2
:104600001F4F0430110591F78FEF8EA78FA718AABF
:104610000E9452058160782F9AAB89AB4EA55FA5A9
:1046200068A98AA90E94971F62C092E099CF8091E1
:104630003002843031F180E00E94F5071092FF01D2
:1046400088E190E00FB6F894A895809360000FBEC3
:10465000F092600083B7817F846083BF83B78160FD
:1046600083BF7894889583B78E7F83BF0FB6F89405
:10467000A89580916000886180936000109260002E
:104680000FBE80912F02882309F48CCF0E944F1215
:10469000E7E1F2E081918111EDC39CA99E13FACF6D
:1046A00081CF8091100281FD83C1232480E0FF240B
:1046B000F394922D9F2109F4ADC189A7EBA9EAA734
:1046C0003F2081E009F480E08BA70E9452058160C1
:1046D000782F9DA78CA749A55AA56BA58DA50E94EB
:1046E000971FF801EF5EFD4F8081F826F082E09180
:1046F0000202EE0FEE0FE093020283B182FBAA24C6
:10470000A0F84C998DC180E08A29E82BE093020241
:10471000EF70F0E0E15BFE4F808190910102890F24
:104720008093010220E084304CF0809100028F5F82
:104730008093000280E00E94531A21E080910102E0
:104740008D3F4CF48091000281508093000281E003
:104750000E94531A21E080910102082E000C990B4F
:1047600064E070E00E94D22780930102222359F076
:104770008FB7F89440911B0250911C0260911D026A
:1047800070911E028FBF86E0E9E0F2E0DE01119633
:1047900001900D928A95E1F7F0900B02E0900C02E7
:1047A00010910D0200910E0210920B0210920C0259
:1047B00010920D0210920E028F2D8E2909F448C01E
:1047C00080910702909108020E9443059C019091FC
:1047D0000602992309F48AC323333105C8F19F3FA8
:1047E00019F09F5F90930602FF2059F00E94130773
:1047F0009FEF1F140CF491E0899F802D112480936A
:104800000B02EE2059F00E9413079FEF1E140CF4C8
:1048100091E0899F802D112480930C0230910B022E
:104820003323B1F020910C02222391F045EB3403A5
:10483000C0011124992309F4F6C090930B0245EBB3
:10484000240390011124332309F4F1C030930C02A6
:10485000812F802B09F448C08091040290910502B9
:104860000E9443059C0190910302992309F439C3E6
:1048700025363105C8F19F3F19F09F5F90930302E1
:10488000112359F00E94F1069FEF11160CF491E0EC
:10489000899F802D112480930D02002359F00E94DE
:1048A000F1069FEF10160CF491E0899F802D1124E2
:1048B00080930E0230910D023323B1F020910E024D
:1048C000222391F045EB3403C0011124992309F40C
:1048D000B2C090930D0245EB2403900111243323C1
:1048E00009F4ADC030930E0280910B0290910C023E
:1048F000892B90910D02892B90910E02892B11F03A
:104900000E940C0C86E0FE013196A9E0B2E0019015
:104910000D928A95E1F70E94620690910F02891725
:1049200031F00E94620680930F020E94F507809189
:104930003002843009F02ACE83E08093E900809130
:10494000E80082FF23CE8091E80090E085FF0CC054
:104950000E94C40330E2E32EF12C8E010F5F1F4F43
:10496000882309F47AC091E08091E8008B778093E6
:10497000E800992309F40ACE00911F021091200249
:1049800089810115110509F476C08E3F09F0BFC079
:104990008A81833020F08550833008F0B8C0EA81E6
:1049A000E83008F0B4C0F0E0EF55F74D0C94E6277E
:1049B0008AE593E00E94030347E1842E42E0942EAF
:1049C000F12CE12CFF92EF925F924F920E949C0398
:1049D00082E593E00E940303F40181914F010E945C
:1049E000FB071F928F938DE493E09F938F930E9418
:1049F0009C038BE493E00E940303FFEFEF1AFF0A8E
:104A00000FB6F894DEBF0FBECDBF94E0E916F104F7
:104A1000C9F64BCE8F5FFF0C853009F04ACEEFCD43
:104A200082E090E071CE81E080930B0208CF81E0BC
:104A300080930C020DCF81E080930D024CCF81E07A
:104A400080930E0251CF8091F100F80181938F0184
:104A5000F1E0EF1AF10809F486CF8091E80085FDB6
:104A6000F2CF8091E8008B778093E8000E94C40326
:104A7000882399F378CF8D3009F4ABC0B8F4843033
:104A800009F48EC048F4823049F108F07AC08130D0
:104A900009F18FEF89833BC0863009F497C008F491
:104AA0008AC08C30B1F780E18A8331C0813109F44A
:104AB000EBC040F48F3009F4BAC008F48EC00E94F5
:104AC0003E0B25C0833109F409C108F4DFC08E3FD5
:104AD00001F765CF1A8289E08B8319C08A81823001
:104AE00009F4F7C18330D1F1813099F62FB7F894EA
:104AF00060911B0270911C0280911D0290911E0218
:104B00002FBF0E94EC276B837C838D839E838091D3
:104B10003002843009F03ACD1091E9001F70909175
:104B2000EC00892F817090FD80E8182B82E0809343
:104B3000E9008091E80080FF0DC050E040E060E2B5
:104B400070E0CE0101960E94F5038091E8008E7717
:104B50008093E8001F701093E90018CD8091000148
:104B600090910101892B99F2809117028B8380919A
:104B700018028C83809119028D8380911A028E8392
:104B8000C6CF8A81823009F084CF6B817C818D8190
:104B90009E810E94EC2786E290E00E944728B7CFD2
:104BA0004C816B818A810E94DF089827892798278A
:104BB0009E838D83ACCF2D813E81322723273227E0
:104BC0004C816B818A810E947F0BA1CF0E94B40B24
:104BD0009ECF83E08A8389E27FCF0C8110E00D3184
:104BE000110508F094CFEA80FB80FE24EF24FE2418
:104BF000CE0101966C01080F191FC70189529F4F02
:104C00000C151D0509F483CFF9E2EF16F3E0FF065A
:104C100058F40E943928F6018483FFEFEF1AFF0A47
:104C20002FEFC21AD20AE9CFF6011482F6CF809193
:104C3000000190910101892B09F469CFEC80F12CDE
:104C40004DE1E416F10408F062CF0A811B811027C0
:104C500001271027CE0101966C01E00EF11EC8015C
:104C600089529F4FE016F10609F451CF0932E3E073
:104C70001E0720F4F60164810E944728FFEFCF1A37
:104C8000DF0A0F5F1F4FEBCF84E00ECF0C8110E0E7
:104C90000D31110508F03BCFEA80FB80FE24EF24A4
:104CA000FE24CE0101966C01080F191FC7018796DB
:104CB0000C151D0509F42BCFF0EAEF16F10458F49A
:104CC0000E943928F6018483FFEFEF1AFF0A2FEFC5
:104CD000C21AD20AEBCFF6011482F6CFEC80F12C87
:104CE0004DE1E416F10408F012CF0A811B81102770
:104CF00001271027003A110508F009CF80EA90E05B
:104D0000801B910B8E159F0508F401CFCE010196F3
:104D10006C01E00EF11EC80187960E151F0509F4FF
:104D2000F6CE003A110520F4F60164810E9447286E
:104D3000FFEFCF1ADF0A0F5F1F4FEDCF88E0EDE0E6
:104D4000F1E0DE01919601900D928A95E1F783E002
:104D500089831A821B821C8288E0FE01B196DE01E3
:104D6000159601900D928A95E1F7D1CE80EF898357
:104D70001A821B821C82CBCE8C81682F70E0762F2A
:104D800066278B81860F972F911D092E000CAA0B89
:104D9000BB0B25E0880F991FAA1FBB1F2A95D1F7CF
:104DA000AC01BD01405E5F4F6F4F7F4F4817590701
:104DB0006A077B0708F4ABCE803F9105A105B105DA
:104DC00008F0A5CE413F51056105710520F040EF87
:104DD00050E060E070E0481B590BBC0167597C4F04
:104DE000CE0101960E94292892CE1B810C8140E0C1
:104DF000602F812F0E94B6089827892798279A83C9
:104E0000898341E0602F812F0E94B6089827892767
:104E100098279C838B837BCE2E813F81322723274B
:104E200032274D816C818B810E944E0B70CE4EE1FA
:104E300050E06FEF70E0CE0103960E94322880911F
:104E4000000189830A8363CE81E090E09093200281
:104E500080931F0282E390E09093160280931502E4
:104E60000E94520554CE8091000189830A8380916B
:104E7000150232CE09BD19BD09B400FEFDCF8091E7
:104E8000D8008F7D8093D8008091E000826080936D
:104E9000E0008091E00081FDFCCF0E94640D82CB98
:104EA00060E086E290E00E9447280E94B40B0E94D6
:104EB0003E0B63E483E290E00E9447286BEF84E2BC
:104EC00090E00E9447286EEC85E290E00E9447281F
:104ED0003CCB86E290E00E9439281B821C821D8216
:104EE0004ECE2D32314008F0C8CCFECC2D323140B0
:104EF00008F077CCADCC78941F921FB61F92112486
:104F00008F939F93AF93BF9380911B0290911C024C
:104F1000A0911D02B0911E020196A11DB11D8093AA
:104F20001B0290931C02A0931D02B0931E02BF911E
:104F3000AF919F918F911F901FBE1F9018951F9248
:104F40001FB61F9211248F939F93AF93BF938091AD
:104F5000FF01811113C080911B0290911C02A0914E
:104F60001D02B0911E024196A11DB11D80931B022E
:104F700090931C02A0931D02B0931E02BF91AF91AB
:104F80009F918F911F901FBE1F901895991B79E0DC
:104F900004C0991F961708F0961B881F7A95C9F7C9
:104FA0008095089597FB072E16F4009407D077FD9F
:104FB00009D00E94152807FC05D03EF490958195F4
:104FC0009F4F0895709561957F4F0895EE0FFF1FD5
:104FD0000590F491E02D0994692796276927782791
:104FE000872778270895002E083090F0982F872F74
:104FF000762F652F542F432F322F22270850F4CFBE
:10500000220F331F441F551F661F771F881F991FCC
:105010000A95B2F7002D08952A153B054C055D054C
:105020006E057F05800791070895AA1BBB1B51E100
:1050300007C0AA1FBB1FA617B70710F0A61BB70B08
:10504000881F991F5A95A9F780959095BC01CD01AD
:105050000895FB01DC0102C005900D9241505040C3
:10506000D8F70895DC0101C06D9341505040E0F73E
:105070000895F999FECF92BD81BDF89A992780B520
:105080000895A8E1B0E042E050E00C946D28262F8E
:10509000F999FECF92BD81BDF89A019700B402162E
:1050A00039F01FBA20BD0FB6F894FA9AF99A0FBEDC
:1050B00008950396272F0E9448280E944728252FED
:1050C0000E944828242F0C9448280196272F0E94DC
:1050D00048280C944728DC01CB01FC01F999FECF4C
:1050E00006C0F2BDE1BDF89A319600B40D92415070
:1050F0005040B8F70895F894FFCF0F0B0F0B180B23
:10510000180B1A0B180B180B180B0F0B0F0B1F0B90
:10511000180B180B1F0B540E7C0ECF0E7C0ECF0EEF
:10512000AF0EE70ECF0EEF0FFC0F471B471BB81B50
:10513000B81B121C2C1C7C1B7C1B391C0F1D1E1D3C
:105140001E1D9E26B626BC26F5260C2717272427CB
:02515000332703
:1051520001002F05A11180117C11781101E3885BF8
:10516200143685246B818283E200E900EA00B500EF
:10517200B600B700CD008301CC008A0192019401F0
:105182002102230224022502260227022A02B30058
:10519200B4006F007000F4F5F6F76697C634350078
:1051A200FF0100010000FFFF0000010001FF0040BD
:1051B20022812271014F01CE00AC009404AD04CDD6
:0451C20004E60400FB
:00000001FF
